{
  "contractName": "DeciMath",
  "abi": [
    {
      "constant": true,
      "inputs": [
        {
          "name": "x",
          "type": "uint256"
        },
        {
          "name": "y",
          "type": "uint256"
        }
      ],
      "name": "decMul2",
      "outputs": [
        {
          "name": "decProduct",
          "type": "uint256"
        }
      ],
      "payable": false,
      "stateMutability": "pure",
      "type": "function",
      "signature": "0x94bcbc8d"
    },
    {
      "constant": true,
      "inputs": [
        {
          "name": "x",
          "type": "uint256"
        },
        {
          "name": "y",
          "type": "uint256"
        }
      ],
      "name": "decDiv2",
      "outputs": [
        {
          "name": "decQuotient",
          "type": "uint256"
        }
      ],
      "payable": false,
      "stateMutability": "pure",
      "type": "function",
      "signature": "0x4016e201"
    },
    {
      "constant": true,
      "inputs": [
        {
          "name": "x",
          "type": "uint256"
        },
        {
          "name": "y",
          "type": "uint256"
        }
      ],
      "name": "decMul18",
      "outputs": [
        {
          "name": "decProd",
          "type": "uint256"
        }
      ],
      "payable": false,
      "stateMutability": "pure",
      "type": "function",
      "signature": "0xf7523c52"
    },
    {
      "constant": true,
      "inputs": [
        {
          "name": "x",
          "type": "uint256"
        },
        {
          "name": "y",
          "type": "uint256"
        }
      ],
      "name": "decDiv18",
      "outputs": [
        {
          "name": "decQuotient",
          "type": "uint256"
        }
      ],
      "payable": false,
      "stateMutability": "pure",
      "type": "function",
      "signature": "0x64ce07d8"
    },
    {
      "constant": true,
      "inputs": [
        {
          "name": "x",
          "type": "uint256"
        },
        {
          "name": "n",
          "type": "uint256"
        }
      ],
      "name": "expNoDp",
      "outputs": [
        {
          "name": "",
          "type": "uint256"
        }
      ],
      "payable": false,
      "stateMutability": "pure",
      "type": "function",
      "signature": "0x6aca6de4"
    },
    {
      "constant": true,
      "inputs": [
        {
          "name": "x",
          "type": "uint256"
        },
        {
          "name": "n",
          "type": "uint256"
        }
      ],
      "name": "exp2",
      "outputs": [
        {
          "name": "",
          "type": "uint256"
        }
      ],
      "payable": false,
      "stateMutability": "pure",
      "type": "function",
      "signature": "0x1953d556"
    },
    {
      "constant": true,
      "inputs": [
        {
          "name": "x",
          "type": "uint256"
        },
        {
          "name": "n",
          "type": "uint256"
        }
      ],
      "name": "exp18",
      "outputs": [
        {
          "name": "",
          "type": "uint256"
        }
      ],
      "payable": false,
      "stateMutability": "pure",
      "type": "function",
      "signature": "0x72749dca"
    }
  ],
  "bytecode": "0x608060405234801561001057600080fd5b50610708806100206000396000f3fe608060405260043610610083576000357c0100000000000000000000000000000000000000000000000000000000900463ffffffff1680631953d556146100885780634016e201146100e157806364ce07d81461013a5780636aca6de41461019357806372749dca146101ec57806394bcbc8d14610245578063f7523c521461029e575b600080fd5b34801561009457600080fd5b506100cb600480360360408110156100ab57600080fd5b8101908080359060200190929190803590602001909291905050506102f7565b6040518082815260200191505060405180910390f35b3480156100ed57600080fd5b506101246004803603604081101561010457600080fd5b8101908080359060200190929190803590602001909291905050506103aa565b6040518082815260200191505060405180910390f35b34801561014657600080fd5b5061017d6004803603604081101561015d57600080fd5b8101908080359060200190929190803590602001909291905050506103f6565b6040518082815260200191505060405180910390f35b34801561019f57600080fd5b506101d6600480360360408110156101b657600080fd5b810190808035906020019092919080359060200190929190505050610449565b6040518082815260200191505060405180910390f35b3480156101f857600080fd5b5061022f6004803603604081101561020f57600080fd5b810190808035906020019092919080359060200190929190505050610520565b6040518082815260200191505060405180910390f35b34801561025157600080fd5b506102886004803603604081101561026857600080fd5b8101908080359060200190929190803590602001909291905050506105e1565b6040518082815260200191505060405180910390f35b3480156102aa57600080fd5b506102e1600480360360408110156102c157600080fd5b810190808035906020019092919080359060200190929190505050610622565b6040518082815260200191505060405180910390f35b60008082141561030a57606490506103a4565b6000606490505b600183111561039657600060028481151561032857fe5b06141561034f5761033984856105e1565b935060028381151561034757fe5b049250610391565b600060028481151561035d57fe5b061415156103905761036f84826105e1565b905061037b84856105e1565b935060026001840381151561038c57fe5b0492505b5b610311565b6103a084826105e1565b9150505b92915050565b6000806103c160648561067d90919063ffffffff16565b9050826103e36002858115156103d357fe5b04836106bb90919063ffffffff16565b8115156103ec57fe5b0491505092915050565b600080610414670de0b6b3a76400008561067d90919063ffffffff16565b90508261043660028581151561042657fe5b04836106bb90919063ffffffff16565b81151561043f57fe5b0491505092915050565b60008082141561045c576001905061051a565b6000600190505b600183111561050357600060028481151561047a57fe5b0614156104aa57610494848561067d90919063ffffffff16565b93506002838115156104a257fe5b0492506104fe565b60006002848115156104b857fe5b061415156104fd576104d3818561067d90919063ffffffff16565b90506104e8848561067d90919063ffffffff16565b93506002600184038115156104f957fe5b0492505b5b610463565b610516818561067d90919063ffffffff16565b9150505b92915050565b60008082141561053a57670de0b6b3a764000090506105db565b6000670de0b6b3a764000090505b60018311156105cd57600060028481151561055f57fe5b061415610586576105708485610622565b935060028381151561057e57fe5b0492506105c8565b600060028481151561059457fe5b061415156105c7576105a68482610622565b90506105b28485610622565b93506002600184038115156105c357fe5b0492505b5b610548565b6105d78482610622565b9150505b92915050565b6000806105f7838561067d90919063ffffffff16565b9050606461060f6032836106bb90919063ffffffff16565b81151561061857fe5b0491505092915050565b600080610638838561067d90919063ffffffff16565b9050670de0b6b3a764000061066a6002670de0b6b3a764000081151561065a57fe5b04836106bb90919063ffffffff16565b81151561067357fe5b0491505092915050565b60008083141561069057600090506106b5565b600082840290508284828115156106a357fe5b041415156106b057600080fd5b809150505b92915050565b60008082840190508381101515156106d257600080fd5b809150509291505056fea165627a7a72305820e21d389e2e115c7a00af943afea8a75c469a89448d99dc894d35dd2ba140890c0029",
  "source": "pragma solidity ^0.5.0;\r\n\r\nimport 'openzeppelin-solidity/contracts/math/SafeMath.sol';\r\n\r\ncontract DeciMath {\r\n  using SafeMath for uint;\r\n\r\n  uint constant QUINT = 10**18;\r\n\r\n  // 2 DP functions\r\n  function decMul2(uint x, uint y) public pure returns (uint decProduct) {\r\n    uint prod_xy = x.mul(y);\r\n    decProduct = prod_xy.add(100 / 2) / 100;\r\n  }\r\n  function decDiv2(uint x, uint y) public pure returns (uint decQuotient) {\r\n    uint prod_100x = x.mul(100);\r\n    decQuotient = prod_100x.add(y / 2) / y;\r\n  }\r\n\r\n  // 18 DP Functions\r\n  function decMul18(uint x, uint y) public pure returns (uint decProd) {\r\n    uint prod_xy = x.mul(y);\r\n    decProd = prod_xy.add(QUINT / 2) / QUINT;\r\n  }\r\n\r\n  function decDiv18(uint x, uint y) public pure returns (uint decQuotient) {\r\n    uint prod_xQuint = x.mul(QUINT);\r\n    decQuotient = prod_xQuint.add(y / 2) / y;\r\n  }\r\n\r\n  function expNoDp(uint x, uint n) public pure returns (uint) {\r\n    if (n == 0)\r\n      return 1;\r\n\r\n    uint y = 1;\r\n\r\n    while (n > 1)\r\n      if (n % 2 == 0) {\r\n        x = x.mul(x);\r\n        n = n / 2;\r\n      } else if (n % 2 != 0) {\r\n        y = x.mul(y);\r\n        x = x.mul(x);\r\n        n = (n - 1)/2;\r\n      }\r\n    return x.mul(y);\r\n  }\r\n\r\n  function exp2(uint x, uint n) public pure returns (uint) {\r\n    if (n == 0)\r\n      return 100;\r\n\r\n    uint y = 100;\r\n\r\n    while (n > 1)\r\n      if (n % 2 == 0) {\r\n        x = decMul2(x, x);\r\n        n = n / 2;\r\n      } else if (n % 2 != 0) {\r\n        y = decMul2(x, y);\r\n        x = decMul2(x, x);\r\n        n = (n - 1)/2;\r\n      }\r\n    return decMul2(x, y);\r\n  }\r\n\r\n  function exp18(uint x, uint n) public pure returns (uint) {\r\n    if (n == 0)\r\n      return QUINT;\r\n\r\n    uint y = QUINT;\r\n\r\n    while (n > 1)\r\n      if (n % 2 == 0) {\r\n        x = decMul18(x, x);\r\n        n = n / 2;\r\n      } else if (n % 2 != 0) {\r\n        y = decMul18(x, y);\r\n        x = decMul18(x, x);\r\n        n = (n - 1)/2;\r\n      }\r\n    return decMul18(x, y);\r\n  }\r\n}\r\n",
  "sourcePath": "C:/Users/Administrator/Desktop/Solidity/DeciMath/contracts/DeciMath.sol",
  "compiler": {
    "name": "solc",
    "version": "0.5.0+commit.1d4f565a.Emscripten.clang"
  },
  "schemaVersion": "3.0.2",
  "updatedAt": "2019-03-06T22:40:08.052Z",
  "devdoc": {
    "methods": {}
  },
  "userdoc": {
    "methods": {}
  }
}