{
  "contractName": "DeciMathCaller",
  "abi": [
    {
      "constant": false,
      "inputs": [
        {
          "name": "_decimathAddr",
          "type": "address"
        }
      ],
      "name": "setDeciMath",
      "outputs": [],
      "payable": false,
      "stateMutability": "nonpayable",
      "type": "function"
    },
    {
      "constant": false,
      "inputs": [
        {
          "name": "n",
          "type": "uint256"
        }
      ],
      "name": "callExp",
      "outputs": [
        {
          "name": "",
          "type": "uint256"
        }
      ],
      "payable": false,
      "stateMutability": "nonpayable",
      "type": "function"
    }
  ],
  "bytecode": "0x608060405234801561001057600080fd5b50610231806100206000396000f3fe60806040526004361061004c576000357c0100000000000000000000000000000000000000000000000000000000900463ffffffff1680633a47bea914610051578063e0bae6c1146100a0575b600080fd5b34801561005d57600080fd5b5061008a6004803603602081101561007457600080fd5b81019080803590602001909291905050506100f1565b6040518082815260200191505060405180910390f35b3480156100ac57600080fd5b506100ef600480360360208110156100c357600080fd5b81019080803573ffffffffffffffffffffffffffffffffffffffff1690602001909291905050506101c2565b005b60008060009054906101000a900473ffffffffffffffffffffffffffffffffffffffff1673ffffffffffffffffffffffffffffffffffffffff1663b581fbe3836040518263ffffffff167c01000000000000000000000000000000000000000000000000000000000281526004018082815260200191505060206040518083038186803b15801561018157600080fd5b505afa158015610195573d6000803e3d6000fd5b505050506040513d60208110156101ab57600080fd5b810190808051906020019092919050505050919050565b806000806101000a81548173ffffffffffffffffffffffffffffffffffffffff021916908373ffffffffffffffffffffffffffffffffffffffff1602179055505056fea165627a7a723058207636423f17f7b81c3ea3447475cb378410795ff1e512071f1ecc0d529f8de14c0029",
  "source": "pragma solidity ^0.5.0;\r\nimport './DeciMath.sol';\r\n\r\n// Proxy contract, used in tests to call DeciMath funcs.\r\n// Allows us to calculate actual gas used in DeciMath 'view' functions.\r\n// Local calls to view functions use 0 gas, so to check gas we call them as part of a transaction, via a proxy contract.\r\n\r\n// Example usage:\r\n// An EOA sends tx to DeciMathCaller.callExp(n), which in turn calls exp(n) on deployed DeciMath instance.\r\n// As the latter func is called within a tx, it uses gas.\r\n\r\ncontract DeciMathCaller {\r\n\r\n  DeciMath decimath;\r\n\r\n  function setDeciMath(address _decimathAddr) public {\r\n    decimath = DeciMath(_decimathAddr);\r\n  }\r\n\r\n  function callExp(uint n) public returns (uint) {\r\n    decimath.exp(n);\r\n  }\r\n}\r\n",
  "sourcePath": "C:/Users/Administrator/Desktop/Solidity/DeciMath/contracts/DeciMathCaller.sol",
  "compiler": {
    "name": "solc",
    "version": "0.5.0+commit.1d4f565a.Emscripten.clang"
  },
  "schemaVersion": "3.0.2",
  "updatedAt": "2019-03-09T17:30:07.804Z",
  "devdoc": {
    "methods": {}
  },
  "userdoc": {
    "methods": {}
  }
}