{
  "contractName": "DeciMathCaller",
  "abi": [
    {
      "constant": false,
      "inputs": [
        {
          "name": "_decimathAddr",
          "type": "address"
        }
      ],
      "name": "setDeciMath",
      "outputs": [],
      "payable": false,
      "stateMutability": "nonpayable",
      "type": "function",
      "signature": "0xe0bae6c1"
    },
    {
      "constant": false,
      "inputs": [
        {
          "name": "x",
          "type": "uint256"
        },
        {
          "name": "y",
          "type": "uint256"
        }
      ],
      "name": "callDecMul18",
      "outputs": [
        {
          "name": "",
          "type": "uint256"
        }
      ],
      "payable": false,
      "stateMutability": "nonpayable",
      "type": "function",
      "signature": "0xc1a6f2ea"
    },
    {
      "constant": false,
      "inputs": [
        {
          "name": "n",
          "type": "uint256"
        }
      ],
      "name": "callExp",
      "outputs": [
        {
          "name": "",
          "type": "uint256"
        }
      ],
      "payable": false,
      "stateMutability": "nonpayable",
      "type": "function",
      "signature": "0x3a47bea9"
    },
    {
      "constant": false,
      "inputs": [
        {
          "name": "b",
          "type": "uint256"
        },
        {
          "name": "x",
          "type": "uint256"
        }
      ],
      "name": "callPowBySquare18",
      "outputs": [
        {
          "name": "",
          "type": "uint256"
        }
      ],
      "payable": false,
      "stateMutability": "nonpayable",
      "type": "function",
      "signature": "0x80e35449"
    },
    {
      "constant": false,
      "inputs": [
        {
          "name": "b",
          "type": "uint256"
        },
        {
          "name": "x",
          "type": "uint256"
        }
      ],
      "name": "callPowBySquare38",
      "outputs": [
        {
          "name": "",
          "type": "uint256"
        }
      ],
      "payable": false,
      "stateMutability": "nonpayable",
      "type": "function",
      "signature": "0xf6f9466e"
    },
    {
      "constant": false,
      "inputs": [
        {
          "name": "n",
          "type": "uint256"
        }
      ],
      "name": "callExpTaylor",
      "outputs": [
        {
          "name": "",
          "type": "uint256"
        }
      ],
      "payable": false,
      "stateMutability": "nonpayable",
      "type": "function",
      "signature": "0x935dcbca"
    },
    {
      "constant": false,
      "inputs": [
        {
          "name": "x",
          "type": "uint256"
        },
        {
          "name": "accuracy",
          "type": "uint256"
        }
      ],
      "name": "callLog2",
      "outputs": [
        {
          "name": "",
          "type": "uint256"
        }
      ],
      "payable": false,
      "stateMutability": "nonpayable",
      "type": "function",
      "signature": "0x11f2a675"
    },
    {
      "constant": false,
      "inputs": [
        {
          "name": "x",
          "type": "uint256"
        },
        {
          "name": "accuracy",
          "type": "uint256"
        }
      ],
      "name": "callLn",
      "outputs": [
        {
          "name": "",
          "type": "uint256"
        }
      ],
      "payable": false,
      "stateMutability": "nonpayable",
      "type": "function",
      "signature": "0xfa385126"
    },
    {
      "constant": false,
      "inputs": [
        {
          "name": "x",
          "type": "uint256"
        }
      ],
      "name": "callPow2",
      "outputs": [
        {
          "name": "",
          "type": "uint256"
        }
      ],
      "payable": false,
      "stateMutability": "nonpayable",
      "type": "function",
      "signature": "0xc012ce2f"
    },
    {
      "constant": false,
      "inputs": [
        {
          "name": "base",
          "type": "uint256"
        },
        {
          "name": "x",
          "type": "uint256"
        }
      ],
      "name": "callPow",
      "outputs": [
        {
          "name": "",
          "type": "uint256"
        }
      ],
      "payable": false,
      "stateMutability": "nonpayable",
      "type": "function",
      "signature": "0x55ee781b"
    }
  ],
  "bytecode": "0x608060405234801561001057600080fd5b5061070d806100206000396000f3fe6080604052600436106100a35763ffffffff7c010000000000000000000000000000000000000000000000000000000060003504166311f2a67581146100a85780633a47bea9146100ea57806355ee781b1461011457806380e3544914610144578063935dcbca14610174578063c012ce2f1461019e578063c1a6f2ea146101c8578063e0bae6c1146101f8578063f6f9466e1461022d578063fa3851261461025d575b600080fd5b3480156100b457600080fd5b506100d8600480360360408110156100cb57600080fd5b508035906020013561028d565b60408051918252519081900360200190f35b3480156100f657600080fd5b506100d86004803603602081101561010d57600080fd5b503561032d565b34801561012057600080fd5b506100d86004803603604081101561013757600080fd5b50803590602001356103c5565b34801561015057600080fd5b506100d86004803603604081101561016757600080fd5b5080359060200135610432565b34801561018057600080fd5b506100d86004803603602081101561019757600080fd5b503561049f565b3480156101aa57600080fd5b506100d8600480360360208110156101c157600080fd5b5035610505565b3480156101d457600080fd5b506100d8600480360360408110156101eb57600080fd5b508035906020013561056b565b34801561020457600080fd5b5061022b6004803603602081101561021b57600080fd5b5035600160a060020a03166105d8565b005b34801561023957600080fd5b506100d86004803603604081101561025057600080fd5b5080359060200135610607565b34801561026957600080fd5b506100d86004803603604081101561028057600080fd5b5080359060200135610674565b60008054604080517fe92fab3b00000000000000000000000000000000000000000000000000000000815260048101869052602481018590529051600160a060020a039092169163e92fab3b91604480820192602092909190829003018186803b1580156102fa57600080fd5b505afa15801561030e573d6000803e3d6000fd5b505050506040513d602081101561032457600080fd5b50909392505050565b60008054604080517fb581fbe3000000000000000000000000000000000000000000000000000000008152600481018590529051600160a060020a039092169163b581fbe391602480820192602092909190829003018186803b15801561039357600080fd5b505afa1580156103a7573d6000803e3d6000fd5b505050506040513d60208110156103bd57600080fd5b509092915050565b60008054604080517f2e4c697f00000000000000000000000000000000000000000000000000000000815260048101869052602481018590529051600160a060020a0390921691632e4c697f91604480820192602092909190829003018186803b1580156102fa57600080fd5b60008054604080517f34eceac000000000000000000000000000000000000000000000000000000000815260048101869052602481018590529051600160a060020a03909216916334eceac091604480820192602092909190829003018186803b1580156102fa57600080fd5b60008054604080517f1ea97975000000000000000000000000000000000000000000000000000000008152600481018590529051600160a060020a0390921691631ea9797591602480820192602092909190829003018186803b15801561039357600080fd5b60008054604080517f442b7ffb000000000000000000000000000000000000000000000000000000008152600481018590529051600160a060020a039092169163442b7ffb91602480820192602092909190829003018186803b15801561039357600080fd5b60008054604080517ff7523c5200000000000000000000000000000000000000000000000000000000815260048101869052602481018590529051600160a060020a039092169163f7523c5291604480820192602092909190829003018186803b1580156102fa57600080fd5b6000805473ffffffffffffffffffffffffffffffffffffffff1916600160a060020a0392909216919091179055565b60008054604080517fa269351500000000000000000000000000000000000000000000000000000000815260048101869052602481018590529051600160a060020a039092169163a269351591604480820192602092909190829003018186803b1580156102fa57600080fd5b60008054604080517f44f7787f00000000000000000000000000000000000000000000000000000000815260048101869052602481018590529051600160a060020a03909216916344f7787f91604480820192602092909190829003018186803b1580156102fa57600080fdfea165627a7a72305820f6ef53ab98d5494479db7e34fc6d38a0e6a286a1473d7d2d30b5c704b6445b270029",
  "source": "pragma solidity ^0.5.0;\r\nimport './DeciMath.sol';\r\n\r\n/* Proxy contract. ONLY NEEDED FOR TESTS. Used to call DeciMath functions.\r\n\r\nThe Proxy allows us to calculate actual gas used in DeciMath 'view' functions.\r\nLocal calls to view functions use 0 gas, so to check gas we call them as part of a transaction, via this proxy contract.\r\n\r\nExample usage:\r\nAn EOA sends a tx to DeciMathCaller.callExp(n), which in turn calls exp(n) on the deployed DeciMath instance.\r\nAs the latter function is called from within a tx, it uses gas.  We can grab the gas used from the tx receipt.\r\n\r\nSee scripts/gasCalculator.js for gas and error tests.\r\n*/\r\n\r\ncontract DeciMathCaller {\r\n  DeciMath decimath;\r\n\r\n  function setDeciMath(address _decimathAddr) public {\r\n    decimath = DeciMath(_decimathAddr);\r\n  }\r\n\r\n  function callDecMul18(uint x, uint y) public returns (uint) {\r\n    decimath.decMul18(x, y);\r\n  }\r\n\r\n  function callExp(uint n) public returns (uint) {\r\n    decimath.exp(n);\r\n  }\r\n\r\n  function callPowBySquare18(uint b, uint x) public returns (uint) {\r\n    decimath.powBySquare18(b, x);\r\n  }\r\n\r\n  function callPowBySquare38(uint b, uint x) public returns (uint) {\r\n    decimath.powBySquare38(b, x);\r\n  }\r\n\r\n  function callExpTaylor(uint n) public returns (uint) {\r\n    decimath.exp_taylor(n);\r\n  }\r\n\r\n\r\n  function callLog2(uint x, uint accuracy) public returns (uint) {\r\n    decimath.log_2(x, accuracy);\r\n  }\r\n\r\n  function callLn(uint x, uint accuracy) public returns (uint) {\r\n    decimath.ln(x, accuracy);\r\n  }\r\n\r\n  function callPow2(uint x) public returns (uint) {\r\n    decimath.pow2(x);\r\n  }\r\n\r\n  function callPow(uint base, uint x) public returns (uint) {\r\n    decimath.pow(base, x);\r\n  }\r\n}\r\n",
  "sourcePath": "C:/Users/Administrator/Desktop/Solidity/DeciMath/contracts/DeciMathCaller.sol",
  "compiler": {
    "name": "solc",
    "version": "0.5.0+commit.1d4f565a.Emscripten.clang"
  },
  "schemaVersion": "3.0.6",
  "updatedAt": "2019-05-05T20:49:12.774Z",
  "devdoc": {
    "methods": {}
  },
  "userdoc": {
    "methods": {}
  }
}