{
  "contractName": "DeciMath",
  "abi": [
    {
      "constant": true,
      "inputs": [
        {
          "name": "x",
          "type": "uint256"
        },
        {
          "name": "y",
          "type": "uint256"
        }
      ],
      "name": "decMul2",
      "outputs": [
        {
          "name": "decProduct",
          "type": "uint256"
        }
      ],
      "payable": false,
      "stateMutability": "pure",
      "type": "function"
    },
    {
      "constant": true,
      "inputs": [
        {
          "name": "x",
          "type": "uint256"
        },
        {
          "name": "y",
          "type": "uint256"
        }
      ],
      "name": "decDiv2",
      "outputs": [
        {
          "name": "decQuotient",
          "type": "uint256"
        }
      ],
      "payable": false,
      "stateMutability": "pure",
      "type": "function"
    },
    {
      "constant": true,
      "inputs": [
        {
          "name": "x",
          "type": "uint256"
        },
        {
          "name": "y",
          "type": "uint256"
        }
      ],
      "name": "decMul18",
      "outputs": [
        {
          "name": "decProd",
          "type": "uint256"
        }
      ],
      "payable": false,
      "stateMutability": "pure",
      "type": "function"
    },
    {
      "constant": true,
      "inputs": [
        {
          "name": "x",
          "type": "uint256"
        },
        {
          "name": "y",
          "type": "uint256"
        }
      ],
      "name": "decDiv18",
      "outputs": [
        {
          "name": "decQuotient",
          "type": "uint256"
        }
      ],
      "payable": false,
      "stateMutability": "pure",
      "type": "function"
    },
    {
      "constant": true,
      "inputs": [
        {
          "name": "x",
          "type": "uint256"
        },
        {
          "name": "n",
          "type": "uint256"
        }
      ],
      "name": "expNoDec",
      "outputs": [
        {
          "name": "",
          "type": "uint256"
        }
      ],
      "payable": false,
      "stateMutability": "pure",
      "type": "function"
    },
    {
      "constant": true,
      "inputs": [
        {
          "name": "x",
          "type": "uint256"
        },
        {
          "name": "n",
          "type": "uint256"
        }
      ],
      "name": "exp2",
      "outputs": [
        {
          "name": "",
          "type": "uint256"
        }
      ],
      "payable": false,
      "stateMutability": "pure",
      "type": "function"
    },
    {
      "constant": true,
      "inputs": [
        {
          "name": "x",
          "type": "uint256"
        },
        {
          "name": "n",
          "type": "uint256"
        }
      ],
      "name": "exp18",
      "outputs": [
        {
          "name": "",
          "type": "uint256"
        }
      ],
      "payable": false,
      "stateMutability": "pure",
      "type": "function"
    },
    {
      "constant": true,
      "inputs": [
        {
          "name": "n",
          "type": "uint256"
        }
      ],
      "name": "exp",
      "outputs": [
        {
          "name": "",
          "type": "uint256"
        }
      ],
      "payable": false,
      "stateMutability": "pure",
      "type": "function"
    }
  ],
  "bytecode": "0x608060405234801561001057600080fd5b506107c9806100206000396000f3fe60806040526004361061008e576000357c0100000000000000000000000000000000000000000000000000000000900463ffffffff1680631953d556146100935780634016e201146100ec57806364ce07d81461014557806372749dca1461019e57806394bcbc8d146101f7578063b581fbe314610250578063e26b78e81461029f578063f7523c52146102f8575b600080fd5b34801561009f57600080fd5b506100d6600480360360408110156100b657600080fd5b810190808035906020019092919080359060200190929190505050610351565b6040518082815260200191505060405180910390f35b3480156100f857600080fd5b5061012f6004803603604081101561010f57600080fd5b810190808035906020019092919080359060200190929190505050610404565b6040518082815260200191505060405180910390f35b34801561015157600080fd5b506101886004803603604081101561016857600080fd5b810190808035906020019092919080359060200190929190505050610450565b6040518082815260200191505060405180910390f35b3480156101aa57600080fd5b506101e1600480360360408110156101c157600080fd5b8101908080359060200190929190803590602001909291905050506104a3565b6040518082815260200191505060405180910390f35b34801561020357600080fd5b5061023a6004803603604081101561021a57600080fd5b810190808035906020019092919080359060200190929190505050610564565b6040518082815260200191505060405180910390f35b34801561025c57600080fd5b506102896004803603602081101561027357600080fd5b81019080803590602001909291905050506105a5565b6040518082815260200191505060405180910390f35b3480156102ab57600080fd5b506102e2600480360360408110156102c257600080fd5b81019080803590602001909291908035906020019092919050505061060c565b6040518082815260200191505060405180910390f35b34801561030457600080fd5b5061033b6004803603604081101561031b57600080fd5b8101908080359060200190929190803590602001909291905050506106e3565b6040518082815260200191505060405180910390f35b60008082141561036457606490506103fe565b6000606490505b60018311156103f057600060028481151561038257fe5b0614156103a9576103938485610564565b93506002838115156103a157fe5b0492506103eb565b60006002848115156103b757fe5b061415156103ea576103c98482610564565b90506103d58485610564565b93506002600184038115156103e657fe5b0492505b5b61036b565b6103fa8482610564565b9150505b92915050565b60008061041b60648561073e90919063ffffffff16565b90508261043d60028581151561042d57fe5b048361077c90919063ffffffff16565b81151561044657fe5b0491505092915050565b60008061046e670de0b6b3a76400008561073e90919063ffffffff16565b90508261049060028581151561048057fe5b048361077c90919063ffffffff16565b81151561049957fe5b0491505092915050565b6000808214156104bd57670de0b6b3a7640000905061055e565b6000670de0b6b3a764000090505b60018311156105505760006002848115156104e257fe5b061415610509576104f384856106e3565b935060028381151561050157fe5b04925061054b565b600060028481151561051757fe5b0614151561054a5761052984826106e3565b905061053584856106e3565b935060026001840381151561054657fe5b0492505b5b6104cb565b61055a84826106e3565b9150505b92915050565b60008061057a838561073e90919063ffffffff16565b9050606461059260328361077c90919063ffffffff16565b81151561059b57fe5b0491505092915050565b600080600190506000670de0b6b3a764000090506000670de0b6b3a7640000905060008090505b8383111561060057670de0b6b3a7640000810190506105f46105ee84886106e3565b82610450565b925082820191506105cc565b81945050505050919050565b60008082141561061f57600190506106dd565b6000600190505b60018311156106c657600060028481151561063d57fe5b06141561066d57610657848561073e90919063ffffffff16565b935060028381151561066557fe5b0492506106c1565b600060028481151561067b57fe5b061415156106c057610696818561073e90919063ffffffff16565b90506106ab848561073e90919063ffffffff16565b93506002600184038115156106bc57fe5b0492505b5b610626565b6106d9818561073e90919063ffffffff16565b9150505b92915050565b6000806106f9838561073e90919063ffffffff16565b9050670de0b6b3a764000061072b6002670de0b6b3a764000081151561071b57fe5b048361077c90919063ffffffff16565b81151561073457fe5b0491505092915050565b6000808314156107515760009050610776565b6000828402905082848281151561076457fe5b0414151561077157600080fd5b809150505b92915050565b600080828401905083811015151561079357600080fd5b809150509291505056fea165627a7a72305820994e03a56ceabbb10a9d53061c8666f631819f6fabdb68b078fb159068125e1d0029",
  "source": "pragma solidity ^0.5.0;\r\n\r\nimport 'openzeppelin-solidity/contracts/math/SafeMath.sol';\r\ncontract DeciMath {\r\n  using SafeMath for uint;\r\n\r\n  uint constant QUINT = 10**18;\r\n\r\n  // 2 DP functions\r\n  function decMul2(uint x, uint y) public pure returns (uint decProduct) {\r\n    uint prod_xy = x.mul(y);\r\n    decProduct = prod_xy.add(100 / 2) / 100;\r\n  }\r\n  function decDiv2(uint x, uint y) public pure returns (uint decQuotient) {\r\n    uint prod_100x = x.mul(100);\r\n    decQuotient = prod_100x.add(y / 2) / y;\r\n  }\r\n\r\n  // 18 DP Functions\r\n  function decMul18(uint x, uint y) public pure returns (uint decProd) {\r\n    uint prod_xy = x.mul(y);\r\n    decProd = prod_xy.add(QUINT / 2) / QUINT;\r\n  }\r\n\r\n  function decDiv18(uint x, uint y) public pure returns (uint decQuotient) {\r\n    uint prod_xQuint = x.mul(QUINT);\r\n    decQuotient = prod_xQuint.add(y / 2) / y;\r\n  }\r\n\r\n  function expNoDec(uint x, uint n) public pure returns (uint) {\r\n    if (n == 0)\r\n      return 1;\r\n\r\n    uint y = 1;\r\n\r\n    while (n > 1)\r\n      if (n % 2 == 0) {\r\n        x = x.mul(x);\r\n        n = n / 2;\r\n      } else if (n % 2 != 0) {\r\n        y = x.mul(y);\r\n        x = x.mul(x);\r\n        n = (n - 1)/2;\r\n      }\r\n    return x.mul(y);\r\n  }\r\n\r\n  function exp2(uint x, uint n) public pure returns (uint) {\r\n    if (n == 0)\r\n      return 100;\r\n\r\n    uint y = 100;\r\n\r\n    while (n > 1)\r\n      if (n % 2 == 0) {\r\n        x = decMul2(x, x);\r\n        n = n / 2;\r\n      } else if (n % 2 != 0) {\r\n        y = decMul2(x, y);\r\n        x = decMul2(x, x);\r\n        n = (n - 1)/2;\r\n      }\r\n    return decMul2(x, y);\r\n  }\r\n\r\n  function exp18(uint x, uint n) public pure returns (uint) {\r\n    if (n == 0)\r\n      return QUINT;\r\n\r\n    uint y = QUINT;\r\n\r\n    while (n > 1)\r\n      if (n % 2 == 0) {\r\n        x = decMul18(x, x);\r\n        n = n / 2;\r\n      } else if (n % 2 != 0) {\r\n        y = decMul18(x, y);\r\n        x = decMul18(x, x);\r\n        n = (n - 1)/2;\r\n      }\r\n    return decMul18(x, y);\r\n  }\r\n\r\n  // e^n for real exponent.\r\n  // Exponent 'n' is  fixed point 18DP, represented by a uint.\r\n  function exp(uint n) public pure returns (uint) {\r\n    uint tolerance = 1;\r\n    uint term = QUINT;\r\n    uint sum = QUINT;\r\n    uint i = 0;\r\n\r\n    while (term > tolerance) { // stop computing terms when smallest term reaches 10^-18 in size\r\n       i += QUINT;\r\n      term = decDiv18( decMul18(term, n), i );\r\n      sum += term;\r\n    }\r\n    return sum;\r\n  }\r\n}\r\n",
  "sourcePath": "C:\\Users\\Administrator\\Desktop\\Solidity\\DeciMath\\contracts\\DeciMath.sol",
  "compiler": {
    "name": "solc",
    "version": "0.5.0+commit.1d4f565a.Emscripten.clang"
  },
  "schemaVersion": "3.0.2",
  "updatedAt": "2019-03-09T17:30:07.809Z",
  "devdoc": {
    "methods": {}
  },
  "userdoc": {
    "methods": {}
  }
}