{
  "contractName": "DeciMath",
  "abi": [
    {
      "constant": true,
      "inputs": [
        {
          "name": "",
          "type": "uint256"
        }
      ],
      "name": "powersOfTwo",
      "outputs": [
        {
          "name": "",
          "type": "uint256"
        }
      ],
      "payable": false,
      "stateMutability": "view",
      "type": "function",
      "signature": "0x26fd647a"
    },
    {
      "constant": true,
      "inputs": [
        {
          "name": "",
          "type": "uint256"
        }
      ],
      "name": "table_log2",
      "outputs": [
        {
          "name": "",
          "type": "uint256"
        }
      ],
      "payable": false,
      "stateMutability": "view",
      "type": "function",
      "signature": "0xe9b9ddea"
    },
    {
      "constant": true,
      "inputs": [
        {
          "name": "",
          "type": "uint256"
        }
      ],
      "name": "table_2_x",
      "outputs": [
        {
          "name": "",
          "type": "uint256"
        }
      ],
      "payable": false,
      "stateMutability": "view",
      "type": "function",
      "signature": "0xf594a59c"
    },
    {
      "constant": true,
      "inputs": [
        {
          "name": "x",
          "type": "uint256"
        },
        {
          "name": "y",
          "type": "uint256"
        }
      ],
      "name": "decMul18",
      "outputs": [
        {
          "name": "decProd",
          "type": "uint256"
        }
      ],
      "payable": false,
      "stateMutability": "pure",
      "type": "function",
      "signature": "0xf7523c52"
    },
    {
      "constant": true,
      "inputs": [
        {
          "name": "x",
          "type": "uint256"
        },
        {
          "name": "y",
          "type": "uint256"
        }
      ],
      "name": "decDiv18",
      "outputs": [
        {
          "name": "decQuotient",
          "type": "uint256"
        }
      ],
      "payable": false,
      "stateMutability": "pure",
      "type": "function",
      "signature": "0x64ce07d8"
    },
    {
      "constant": true,
      "inputs": [
        {
          "name": "x",
          "type": "uint256"
        },
        {
          "name": "y",
          "type": "uint256"
        }
      ],
      "name": "decMul30",
      "outputs": [
        {
          "name": "decProd",
          "type": "uint256"
        }
      ],
      "payable": false,
      "stateMutability": "pure",
      "type": "function",
      "signature": "0x58be7a89"
    },
    {
      "constant": true,
      "inputs": [
        {
          "name": "x",
          "type": "uint256"
        },
        {
          "name": "y",
          "type": "uint256"
        }
      ],
      "name": "decMul38",
      "outputs": [
        {
          "name": "decProd",
          "type": "uint256"
        }
      ],
      "payable": false,
      "stateMutability": "pure",
      "type": "function",
      "signature": "0x6172f467"
    },
    {
      "constant": true,
      "inputs": [
        {
          "name": "num",
          "type": "uint256"
        },
        {
          "name": "digit",
          "type": "uint256"
        },
        {
          "name": "posOfChop",
          "type": "uint256"
        }
      ],
      "name": "chopAndRound",
      "outputs": [
        {
          "name": "chopped",
          "type": "uint256"
        }
      ],
      "payable": false,
      "stateMutability": "pure",
      "type": "function",
      "signature": "0xd3f87aae"
    },
    {
      "constant": true,
      "inputs": [
        {
          "name": "x",
          "type": "uint256"
        }
      ],
      "name": "convert38To18DP",
      "outputs": [
        {
          "name": "y",
          "type": "uint256"
        }
      ],
      "payable": false,
      "stateMutability": "pure",
      "type": "function",
      "signature": "0x24433426"
    },
    {
      "constant": true,
      "inputs": [
        {
          "name": "x",
          "type": "uint256"
        }
      ],
      "name": "convert38To30DP",
      "outputs": [
        {
          "name": "y",
          "type": "uint256"
        }
      ],
      "payable": false,
      "stateMutability": "pure",
      "type": "function",
      "signature": "0x78b09c47"
    },
    {
      "constant": true,
      "inputs": [
        {
          "name": "x",
          "type": "uint256"
        }
      ],
      "name": "convert30To20DP",
      "outputs": [
        {
          "name": "y",
          "type": "uint256"
        }
      ],
      "payable": false,
      "stateMutability": "pure",
      "type": "function",
      "signature": "0x8d5dab35"
    },
    {
      "constant": true,
      "inputs": [
        {
          "name": "x",
          "type": "uint256"
        }
      ],
      "name": "convert30To18DP",
      "outputs": [
        {
          "name": "y",
          "type": "uint256"
        }
      ],
      "payable": false,
      "stateMutability": "pure",
      "type": "function",
      "signature": "0x8e962c70"
    },
    {
      "constant": true,
      "inputs": [
        {
          "name": "x",
          "type": "uint256"
        }
      ],
      "name": "floor",
      "outputs": [
        {
          "name": "num",
          "type": "uint256"
        }
      ],
      "payable": false,
      "stateMutability": "pure",
      "type": "function",
      "signature": "0x504f5e56"
    },
    {
      "constant": true,
      "inputs": [
        {
          "name": "num",
          "type": "uint256"
        }
      ],
      "name": "countDigits",
      "outputs": [
        {
          "name": "",
          "type": "uint256"
        }
      ],
      "payable": false,
      "stateMutability": "view",
      "type": "function",
      "signature": "0x9636c762"
    },
    {
      "constant": true,
      "inputs": [
        {
          "name": "x",
          "type": "uint256"
        },
        {
          "name": "n",
          "type": "uint256"
        }
      ],
      "name": "expBySquare",
      "outputs": [
        {
          "name": "",
          "type": "uint256"
        }
      ],
      "payable": false,
      "stateMutability": "pure",
      "type": "function",
      "signature": "0x045f48d2"
    },
    {
      "constant": true,
      "inputs": [
        {
          "name": "base",
          "type": "uint256"
        },
        {
          "name": "n",
          "type": "uint256"
        }
      ],
      "name": "expBySquare18",
      "outputs": [
        {
          "name": "",
          "type": "uint256"
        }
      ],
      "payable": false,
      "stateMutability": "pure",
      "type": "function",
      "signature": "0x5dceada5"
    },
    {
      "constant": true,
      "inputs": [
        {
          "name": "base",
          "type": "uint256"
        },
        {
          "name": "n",
          "type": "uint256"
        }
      ],
      "name": "expBySquare38",
      "outputs": [
        {
          "name": "",
          "type": "uint256"
        }
      ],
      "payable": false,
      "stateMutability": "pure",
      "type": "function",
      "signature": "0x2879bc96"
    },
    {
      "constant": true,
      "inputs": [
        {
          "name": "x",
          "type": "uint256"
        }
      ],
      "name": "exp",
      "outputs": [
        {
          "name": "num",
          "type": "uint256"
        }
      ],
      "payable": false,
      "stateMutability": "view",
      "type": "function",
      "signature": "0xb581fbe3"
    },
    {
      "constant": true,
      "inputs": [
        {
          "name": "x",
          "type": "uint256"
        }
      ],
      "name": "exp_taylor",
      "outputs": [
        {
          "name": "",
          "type": "uint256"
        }
      ],
      "payable": false,
      "stateMutability": "pure",
      "type": "function",
      "signature": "0x1ea97975"
    },
    {
      "constant": true,
      "inputs": [
        {
          "name": "x",
          "type": "uint256"
        },
        {
          "name": "accuracy",
          "type": "uint256"
        }
      ],
      "name": "log2",
      "outputs": [
        {
          "name": "",
          "type": "uint256"
        }
      ],
      "payable": false,
      "stateMutability": "view",
      "type": "function",
      "signature": "0x78b9a1f3"
    },
    {
      "constant": true,
      "inputs": [
        {
          "name": "x",
          "type": "uint256"
        }
      ],
      "name": "two_x",
      "outputs": [
        {
          "name": "",
          "type": "uint256"
        }
      ],
      "payable": false,
      "stateMutability": "view",
      "type": "function",
      "signature": "0xd8e9acc0"
    },
    {
      "constant": true,
      "inputs": [
        {
          "name": "x",
          "type": "uint256"
        },
        {
          "name": "accuracy",
          "type": "uint256"
        }
      ],
      "name": "ln",
      "outputs": [
        {
          "name": "",
          "type": "uint256"
        }
      ],
      "payable": false,
      "stateMutability": "view",
      "type": "function",
      "signature": "0x44f7787f"
    },
    {
      "constant": true,
      "inputs": [
        {
          "name": "base",
          "type": "uint256"
        },
        {
          "name": "x",
          "type": "uint256"
        }
      ],
      "name": "pow",
      "outputs": [
        {
          "name": "power",
          "type": "uint256"
        }
      ],
      "payable": false,
      "stateMutability": "view",
      "type": "function",
      "signature": "0x2e4c697f"
    },
    {
      "constant": false,
      "inputs": [],
      "name": "setLUT1",
      "outputs": [],
      "payable": false,
      "stateMutability": "nonpayable",
      "type": "function",
      "signature": "0xe5ac5717"
    },
    {
      "constant": false,
      "inputs": [],
      "name": "setLUT2",
      "outputs": [],
      "payable": false,
      "stateMutability": "nonpayable",
      "type": "function",
      "signature": "0xa463a087"
    },
    {
      "constant": false,
      "inputs": [],
      "name": "setLUT3",
      "outputs": [],
      "payable": false,
      "stateMutability": "nonpayable",
      "type": "function",
      "signature": "0x889de906"
    },
    {
      "constant": false,
      "inputs": [],
      "name": "setAllLUTs",
      "outputs": [],
      "payable": false,
      "stateMutability": "nonpayable",
      "type": "function",
      "signature": "0x55996838"
    }
  ],
  "bytecode": "0x6080604052600060ef60006101000a81548160ff02191690831515021790555034801561002b57600080fd5b50613a9e8061003b6000396000f3fe60806040526004361061015f576000357c0100000000000000000000000000000000000000000000000000000000900463ffffffff168063045f48d2146101645780631ea97975146101bd578063244334261461020c57806326fd647a1461025b5780632879bc96146102aa5780632e4c697f1461030357806344f7787f1461035c578063504f5e56146103b5578063559968381461040457806358be7a891461041b5780635dceada5146104745780636172f467146104cd57806364ce07d81461052657806378b09c471461057f57806378b9a1f3146105ce578063889de906146106275780638d5dab351461063e5780638e962c701461068d5780639636c762146106dc578063a463a0871461072b578063b581fbe314610742578063d3f87aae14610791578063d8e9acc0146107f4578063e5ac571714610843578063e9b9ddea1461085a578063f594a59c146108a9578063f7523c52146108f8575b600080fd5b34801561017057600080fd5b506101a76004803603604081101561018757600080fd5b810190808035906020019092919080359060200190929190505050610951565b6040518082815260200191505060405180910390f35b3480156101c957600080fd5b506101f6600480360360208110156101e057600080fd5b8101908080359060200190929190505050610a04565b6040518082815260200191505060405180910390f35b34801561021857600080fd5b506102456004803603602081101561022f57600080fd5b8101908080359060200190929190505050610a6b565b6040518082815260200191505060405180910390f35b34801561026757600080fd5b506102946004803603602081101561027e57600080fd5b8101908080359060200190929190505050610aac565b6040518082815260200191505060405180910390f35b3480156102b657600080fd5b506102ed600480360360408110156102cd57600080fd5b810190808035906020019092919080359060200190929190505050610ac6565b6040518082815260200191505060405180910390f35b34801561030f57600080fd5b506103466004803603604081101561032657600080fd5b810190808035906020019092919080359060200190929190505050610b97565b6040518082815260200191505060405180910390f35b34801561036857600080fd5b5061039f6004803603604081101561037f57600080fd5b810190808035906020019092919080359060200190929190505050610c2f565b6040518082815260200191505060405180910390f35b3480156103c157600080fd5b506103ee600480360360208110156103d857600080fd5b8101908080359060200190929190505050611015565b6040518082815260200191505060405180910390f35b34801561041057600080fd5b50610419611038565b005b34801561042757600080fd5b5061045e6004803603604081101561043e57600080fd5b81019080803590602001909291908035906020019092919050505061108a565b6040518082815260200191505060405180910390f35b34801561048057600080fd5b506104b76004803603604081101561049757600080fd5b8101908080359060200190929190803590602001909291905050506110dd565b6040518082815260200191505060405180910390f35b3480156104d957600080fd5b50610510600480360360408110156104f057600080fd5b81019080803590602001909291908035906020019092919050505061119e565b6040518082815260200191505060405180910390f35b34801561053257600080fd5b506105696004803603604081101561054957600080fd5b8101908080359060200190929190803590602001909291905050506111f7565b6040518082815260200191505060405180910390f35b34801561058b57600080fd5b506105b8600480360360208110156105a257600080fd5b8101908080359060200190929190505050611238565b6040518082815260200191505060405180910390f35b3480156105da57600080fd5b50610611600480360360408110156105f157600080fd5b81019080803590602001909291908035906020019092919050505061126f565b6040518082815260200191505060405180910390f35b34801561063357600080fd5b5061063c611462565b005b34801561064a57600080fd5b506106776004803603602081101561066157600080fd5b8101908080359060200190929190505050611a08565b6040518082815260200191505060405180910390f35b34801561069957600080fd5b506106c6600480360360208110156106b057600080fd5b8101908080359060200190929190505050611a41565b6040518082815260200191505060405180910390f35b3480156106e857600080fd5b50610715600480360360208110156106ff57600080fd5b8101908080359060200190929190505050611a7b565b6040518082815260200191505060405180910390f35b34801561073757600080fd5b50610740611ab2565b005b34801561074e57600080fd5b5061077b6004803603602081101561076557600080fd5b8101908080359060200190929190505050612740565b6040518082815260200191505060405180910390f35b34801561079d57600080fd5b506107de600480360360608110156107b457600080fd5b81019080803590602001909291908035906020019092919080359060200190929190505050612848565b6040518082815260200191505060405180910390f35b34801561080057600080fd5b5061082d6004803603602081101561081757600080fd5b810190808035906020019092919050505061288f565b6040518082815260200191505060405180910390f35b34801561084f57600080fd5b50610858612aa2565b005b34801561086657600080fd5b506108936004803603602081101561087d57600080fd5b810190808035906020019092919050505061396c565b6040518082815260200191505060405180910390f35b3480156108b557600080fd5b506108e2600480360360208110156108cc57600080fd5b8101908080359060200190929190505050613986565b6040518082815260200191505060405180910390f35b34801561090457600080fd5b5061093b6004803603604081101561091b57600080fd5b8101908080359060200190929190803590602001909291905050506139a0565b6040518082815260200191505060405180910390f35b60008082141561096457600190506109fe565b6000600190505b60018311156109f057600060028481151561098257fe5b0614156109a95761099384856139e9565b93506002838115156109a157fe5b0492506109eb565b60006002848115156109b757fe5b061415156109ea576109c984826139e9565b90506109d584856139e9565b93506002600184038115156109e657fe5b0492505b5b61096b565b6109fa84826139e9565b9150505b92915050565b600080600190506000670de0b6b3a764000090506000670de0b6b3a7640000905060008090505b83831115610a5f57670de0b6b3a764000081019050610a53610a4d84886139a0565b826111f7565b92508282019150610a2b565b81945050505050919050565b600080678ac7230489e8000068056bc75e2d6310000084811515610a8b57fe5b06811515610a9557fe5b049050610aa483826014612848565b915050919050565b606481606481101515610abb57fe5b016000915090505481565b600080821415610ae8576f4b3b4ca85a86c47a098a2240000000009050610b91565b60006f4b3b4ca85a86c47a098a22400000000090505b6001831115610b83576000600284811515610b1557fe5b061415610b3c57610b26848561119e565b9350600283811515610b3457fe5b049250610b7e565b6000600284811515610b4a57fe5b06141515610b7d57610b5c848261119e565b9050610b68848561119e565b9350600260018403811515610b7957fe5b0492505b5b610afe565b610b8d848261119e565b9150505b92915050565b6000670de0b6b3a764000083101515610bcd57610bc6610bc183610bbc866046610c2f565b6139a0565b612740565b9050610c29565b670de0b6b3a7640000831015610c28576000610c0483610bff610bf8670de0b6b3a7640000886111f7565b6046610c2f565b6139a0565b9050610c20670de0b6b3a7640000610c1b83612740565b6111f7565b915050610c29565b5b92915050565b6000670de0b6b3a76400008310151515610cb1576040517f08c379a00000000000000000000000000000000000000000000000000000000081526004018080602001828103825260128152602001807f696e707574206d757374206265203e3d2031000000000000000000000000000081525060200191505060405180910390fd5b60008090506000610ccb670de0b6b3a764000060026139e9565b90505b670de0b6b3a764000060020285101515610fbf57670de0b6b3a764000063400000000285101515610d1e57610d1185670de0b6b3a76400006340000000026111f7565b9450601e82019150610fba565b670de0b6b3a7640000621000000285101515610d5857610d4b85670de0b6b3a764000062100000026111f7565b9450601482019150610fb9565b670de0b6b3a76400006180000285101515610d9057610d8385670de0b6b3a7640000618000026111f7565b9450600f82019150610fb8565b670de0b6b3a76400006104000285101515610dc857610dbb85670de0b6b3a7640000610400026111f7565b9450600a82019150610fb7565b670de0b6b3a76400006102000285101515610e0057610df385670de0b6b3a7640000610200026111f7565b9450600982019150610fb6565b670de0b6b3a76400006101000285101515610e3857610e2b85670de0b6b3a7640000610100026111f7565b9450600882019150610fb5565b670de0b6b3a764000060800285101515610e6e57610e6185670de0b6b3a76400006080026111f7565b9450600782019150610fb4565b670de0b6b3a764000060400285101515610ea457610e9785670de0b6b3a76400006040026111f7565b9450600682019150610fb3565b670de0b6b3a764000060200285101515610eda57610ecd85670de0b6b3a76400006020026111f7565b9450600582019150610fb2565b670de0b6b3a764000060100285101515610f1057610f0385670de0b6b3a76400006010026111f7565b9450600482019150610fb1565b670de0b6b3a764000060080285101515610f4657610f3985670de0b6b3a76400006008026111f7565b9450600382019150610fb0565b670de0b6b3a764000060040285101515610f7c57610f6f85670de0b6b3a76400006004026111f7565b9450600282019150610faf565b670de0b6b3a764000060020285101515610fae57610fa585670de0b6b3a76400006002026111f7565b94506001820191505b5b5b5b5b5b5b5b5b5b5b5b5b610cce565b60006c0c9f2c9cd04674edea40000000830290506000610ffe6c08bfade8cec3c65ca697cfbe72610ff984610ff48b8b61126f565b613a27565b61108a565b905061100981611a41565b94505050505092915050565b600068056bc75e2d631000008281151561102b57fe5b0682039050809050919050565b6000151560ef60009054906101000a900460ff16151514156110885761105c612aa2565b611064611ab2565b61106c611462565b600160ef60006101000a81548160ff0219169083151502179055505b565b60008061109784846139e9565b90506c0c9f2c9cd04674edea400000006110ca8260026c0c9f2c9cd04674edea400000008115156110c457fe5b04613a27565b8115156110d357fe5b0491505092915050565b6000808214156110f757670de0b6b3a76400009050611198565b6000670de0b6b3a764000090505b600183111561118a57600060028481151561111c57fe5b0614156111435761112d84856139a0565b935060028381151561113b57fe5b049250611185565b600060028481151561115157fe5b061415156111845761116384826139a0565b905061116f84856139a0565b935060026001840381151561118057fe5b0492505b5b611105565b61119484826139a0565b9150505b92915050565b6000806111ab84846139e9565b90506f4b3b4ca85a86c47a098a2240000000006111e48260026f4b3b4ca85a86c47a098a2240000000008115156111de57fe5b04613a27565b8115156111ed57fe5b0491505092915050565b60008061120c84670de0b6b3a76400006139e9565b9050826112258260028681151561121f57fe5b04613a27565b81151561122e57fe5b0491505092915050565b600080629896806305f5e1008481151561124e57fe5b0681151561125857fe5b04905061126783826008612848565b915050919050565b600060ef60009054906101000a900460ff1615156112f5576040517f08c379a00000000000000000000000000000000000000000000000000000000081526004018080602001828103825260198152602001807f4c6f6f6b7570207461626c6573206d757374206265207365740000000000000081525060200191505060405180910390fd5b670de0b6b3a764000083101580156113175750670de0b6b3a764000060020283105b15156113b1576040517f08c379a00000000000000000000000000000000000000000000000000000000081526004018080602001828103825260228152602001807f696e7075742078206d7573742062652077697468696e2072616e6765205b312c81526020017f325b00000000000000000000000000000000000000000000000000000000000081525060400191505060405180910390fd5b60006113c68468056bc75e2d631000006139e9565b905060006f4b3b4ca85a86c47a098a224000000000905060008090506000600190505b858111151561144d5761140c60008260648110151561140457fe5b01548561119e565b92506f4b3b4ca85a86c47a098a224000000000831015156114405782935060648160648110151561143957fe5b0154820191505b80806001019150506113e9565b5061145781611238565b935050505092915050565b6f50a19b26283d0b34e82c419e778521b360c8600060278110151561148357fe5b01819055506f4bc1422ac6aec230a72fd844c9aea33160c860016027811015156114a957fe5b01819055506f4b48a7525f322bd41641432d1b296e5360c860026027811015156114cf57fe5b01819055506f4b3ca26adc181e23c3f7c5dad355d41e60c860036027811015156114f557fe5b01819055506f4b3b6ed5219f48be09db701ae9ef16d660c8600460278110151561151b57fe5b01819055506f4b3b50133a89943d50fdc16ee0f2f73e60c8600560278110151561154157fe5b01819055506f4b3b4cffd7520f6c63dac18be5cb197f60c8600660278110151561156757fe5b01819055506f4b3b4cb11a34adcb07707cfefb195abe60c8600760278110151561158d57fe5b01819055506f4b3b4ca93a7e8ef66a7f91d9c09f21a760c860086027811015156115b357fe5b01819055506f4b3b4ca870ec58b98ed4c5fde7bd323260c860096027811015156115d957fe5b01819055506f4b3b4ca85cc42019fcf7fc9916c7068760c8600a6027811015156115ff57fe5b01819055506f4b3b4ca85ac01a706eadf372d36d133860c8600b60278110151561162557fe5b01819055506f4b3b4ca85a8c8045e0741b9a7e66ef7060c8600c60278110151561164b57fe5b01819055506f4b3b4ca85a8757419f07ee5d9d9096fe60c8600d60278110151561167157fe5b01819055506f4b3b4ca85a86d327987d1d0fb611d99660c8600e60278110151561169757fe5b01819055506f4b3b4ca85a86c5f1cb08d4ee5ee0cb7f60c8600f6027811015156116bd57fe5b01819055506f4b3b4ca85a86c49f9ce39a84a316264b60c860106027811015156116e357fe5b01819055506f4b3b4ca85a86c47dcb797b13a9e89c9660c8601160278110151561170957fe5b01819055506f4b3b4ca85a86c47a69bbab21f7640fa660c8601260278110151561172f57fe5b01819055506f4b3b4ca85a86c47a1328aff03256ce5d60c8601360278110151561175557fe5b01819055506f4b3b4ca85a86c47a0a80639e6b6f14a360c8601460278110151561177b57fe5b01819055506f4b3b4ca85a86c47a09a2c2630abe4edd60c860156027811015156117a157fe5b01819055506f4b3b4ca85a86c47a098c98a9e7796e4960c860166027811015156117c757fe5b01819055506f4b3b4ca85a86c47a098a614a9725be3b60c860176027811015156117ed57fe5b01819055506f4b3b4ca85a86c47a098a288ddbea2c9f60c8601860278110151561181357fe5b01819055506f4b3b4ca85a86c47a098a22e162ca9e1060c8601960278110151561183957fe5b01819055506f4b3b4ca85a86c47a098a2250237aa96860c8601a60278110151561185f57fe5b01819055506f4b3b4ca85a86c47a098a22419d25ddbe60c8601b60278110151561188557fe5b01819055506f4b3b4ca85a86c47a098a22402950962d60c8601c6027811015156118ab57fe5b01819055506f4b3b4ca85a86c47a098a22400421a89e60c8601d6027811015156118d157fe5b01819055506f4b3b4ca85a86c47a098a22400069c41060c8601e6027811015156118f757fe5b01819055506f4b3b4ca85a86c47a098a2240000a939b60c8601f60278110151561191d57fe5b01819055506f4b3b4ca85a86c47a098a224000010ec360c8602060278110151561194357fe5b01819055506f4b3b4ca85a86c47a098a224000001b1360c8602160278110151561196957fe5b01819055506f4b3b4ca85a86c47a098a2240000002b560c8602260278110151561198f57fe5b01819055506f4b3b4ca85a86c47a098a22400000004560c860236027811015156119b557fe5b01819055506f4b3b4ca85a86c47a098a22400000000760c860246027811015156119db57fe5b01819055506f4b3b4ca85a86c47a098a22400000000160c86025602781101515611a0157fe5b0181905550565b600080633b9aca006402540be40084811515611a2057fe5b06811515611a2a57fe5b049050611a398382600a612848565b915050919050565b60008064174876e80064e8d4a5100084811515611a5a57fe5b06811515611a6457fe5b049050611a738382600c612848565b915050919050565b600080600090505b600083141515611aa957600a83811515611a9957fe5b0492508080600101915050611a83565b80915050919050565b6f96769950b50d88f4131444800000000060646000606481101515611ad357fe5b01819055506f259da6542d43623d04c511200000000060646001606481101515611af957fe5b01819055506f12ced32a16a1b11e826288900000000060646002606481101515611b1f57fe5b01819055506f096769950b50d88f413144480000000060646003606481101515611b4557fe5b01819055506f04b3b4ca85a86c47a098a2240000000060646004606481101515611b6b57fe5b01819055506f0259da6542d43623d04c51120000000060646005606481101515611b9157fe5b01819055506f012ced32a16a1b11e82628890000000060646006606481101515611bb757fe5b01819055506e96769950b50d88f41314448000000060646007606481101515611bdc57fe5b01819055506e4b3b4ca85a86c47a098a224000000060646008606481101515611c0157fe5b01819055506e259da6542d43623d04c5112000000060646009606481101515611c2657fe5b01819055506e12ced32a16a1b11e826288900000006064600a606481101515611c4b57fe5b01819055506e096769950b50d88f413144480000006064600b606481101515611c7057fe5b01819055506e04b3b4ca85a86c47a098a2240000006064600c606481101515611c9557fe5b01819055506e0259da6542d43623d04c51120000006064600d606481101515611cba57fe5b01819055506e012ced32a16a1b11e82628890000006064600e606481101515611cdf57fe5b01819055506d96769950b50d88f41314448000006064600f606481101515611d0357fe5b01819055506d4b3b4ca85a86c47a098a2240000060646010606481101515611d2757fe5b01819055506d259da6542d43623d04c51120000060646011606481101515611d4b57fe5b01819055506d12ced32a16a1b11e82628890000060646012606481101515611d6f57fe5b01819055506d096769950b50d88f41314448000060646013606481101515611d9357fe5b01819055506d04b3b4ca85a86c47a098a224000060646014606481101515611db757fe5b01819055506d0259da6542d43623d04c5112000060646015606481101515611ddb57fe5b01819055506d012ced32a16a1b11e8262889000060646016606481101515611dff57fe5b01819055506c96769950b50d88f4131444800060646017606481101515611e2257fe5b01819055506c4b3b4ca85a86c47a098a22400060646018606481101515611e4557fe5b01819055506c259da6542d43623d04c511200060646019606481101515611e6857fe5b01819055506c12ced32a16a1b11e82628890006064601a606481101515611e8b57fe5b01819055506c096769950b50d88f41314448006064601b606481101515611eae57fe5b01819055506c04b3b4ca85a86c47a098a224006064601c606481101515611ed157fe5b01819055506c0259da6542d43623d04c5112006064601d606481101515611ef457fe5b01819055506c012ced32a16a1b11e8262889006064601e606481101515611f1757fe5b01819055506b96769950b50d88f4131444806064601f606481101515611f3957fe5b01819055506b4b3b4ca85a86c47a098a224060646020606481101515611f5b57fe5b01819055506b259da6542d43623d04c5112060646021606481101515611f7d57fe5b01819055506b12ced32a16a1b11e8262889060646022606481101515611f9f57fe5b01819055506b096769950b50d88f4131444860646023606481101515611fc157fe5b01819055506b04b3b4ca85a86c47a098a22460646024606481101515611fe357fe5b01819055506b0259da6542d43623d04c51126064602560648110151561200557fe5b01819055506b012ced32a16a1b11e82628896064602660648110151561202757fe5b01819055506a96769950b50d88f41314446064602760648110151561204857fe5b01819055506a4b3b4ca85a86c47a098a226064602860648110151561206957fe5b01819055506a259da6542d43623d04c5116064602960648110151561208a57fe5b01819055506a12ced32a16a1b11e8262886064602a6064811015156120ab57fe5b01819055506a096769950b50d88f4131446064602b6064811015156120cc57fe5b01819055506a04b3b4ca85a86c47a098a26064602c6064811015156120ed57fe5b01819055506a0259da6542d43623d04c516064602d60648110151561210e57fe5b01819055506a012ced32a16a1b11e826286064602e60648110151561212f57fe5b01819055506996769950b50d88f413146064602f60648110151561214f57fe5b0181905550694b3b4ca85a86c47a098a6064603060648110151561216f57fe5b018190555069259da6542d43623d04c56064603160648110151561218f57fe5b01819055506912ced32a16a1b11e8262606460326064811015156121af57fe5b018190555069096769950b50d88f4131606460336064811015156121cf57fe5b01819055506904b3b4ca85a86c47a098606460346064811015156121ef57fe5b0181905550690259da6542d43623d04c6064603560648110151561220f57fe5b018190555069012ced32a16a1b11e8266064603660648110151561222f57fe5b01819055506896769950b50d88f4136064603760648110151561224e57fe5b0181905550684b3b4ca85a86c47a096064603860648110151561226d57fe5b018190555068259da6542d43623d046064603960648110151561228c57fe5b01819055506812ced32a16a1b11e826064603a6064811015156122ab57fe5b018190555068096769950b50d88f416064603b6064811015156122ca57fe5b01819055506804b3b4ca85a86c47a06064603c6064811015156122e957fe5b0181905550680259da6542d43623d06064603d60648110151561230857fe5b018190555068012ced32a16a1b11e86064603e60648110151561232757fe5b01819055506796769950b50d88f46064603f60648110151561234557fe5b0181905550674b3b4ca85a86c47a6064604060648110151561236357fe5b018190555067259da6542d43623d6064604160648110151561238157fe5b01819055506712ced32a16a1b11e6064604260648110151561239f57fe5b018190555067096769950b50d88f606460436064811015156123bd57fe5b01819055506704b3b4ca85a86c47606460446064811015156123db57fe5b0181905550670259da6542d43623606460456064811015156123f957fe5b018190555067012ced32a16a1b116064604660648110151561241757fe5b01819055506696769950b50d886064604760648110151561243457fe5b0181905550664b3b4ca85a86c46064604860648110151561245157fe5b018190555066259da6542d43626064604960648110151561246e57fe5b01819055506612ced32a16a1b16064604a60648110151561248b57fe5b018190555066096769950b50d86064604b6064811015156124a857fe5b01819055506604b3b4ca85a86c6064604c6064811015156124c557fe5b0181905550660259da6542d4366064604d6064811015156124e257fe5b018190555066012ced32a16a1b6064604e6064811015156124ff57fe5b01819055506596769950b50d6064604f60648110151561251b57fe5b0181905550654b3b4ca85a866064605060648110151561253757fe5b018190555065259da6542d436064605160648110151561255357fe5b01819055506512ced32a16a16064605260648110151561256f57fe5b018190555065096769950b506064605360648110151561258b57fe5b01819055506504b3b4ca85a8606460546064811015156125a757fe5b0181905550650259da6542d4606460556064811015156125c357fe5b018190555065012ced32a16a606460566064811015156125df57fe5b01819055506496769950b5606460576064811015156125fa57fe5b0181905550644b3b4ca85a6064605860648110151561261557fe5b018190555064259da6542d6064605960648110151561263057fe5b01819055506412ced32a166064605a60648110151561264b57fe5b018190555064096769950b6064605b60648110151561266657fe5b01819055506404b3b4ca856064605c60648110151561268157fe5b0181905550640259da65426064605d60648110151561269c57fe5b018190555064012ced32a16064605e6064811015156126b757fe5b018190555063967699506064605f6064811015156126d157fe5b0181905550634b3b4ca8606460606064811015156126eb57fe5b018190555063259da6546064606160648110151561270557fe5b01819055506312ced32a6064606260648110151561271f57fe5b018190555063096769956064606360648110151561273957fe5b0181905550565b6000806000806127558564e8d4a510006139e9565b945061276e6c1235995e1e4b3c4c2e092eb92a8661108a565b945061277985611a08565b945068056bc75e2d6310000085108015612794575060008510155b156127e6576127ac68056bc75e2d6310000086613a27565b915060026f4b3b4ca85a86c47a098a2240000000008115156127ca57fe5b0490506127df816127da8461288f565b61119e565b9350612835565b68056bc75e2d631000006127f986611015565b039250828503915061281e60026128198568056bc75e2d63100000613a48565b610951565b90506128328161282d8461288f565b6139e9565b93505b61283e84610a6b565b9350505050919050565b60006005831015612867576128608483600a0a613a48565b9050612885565b6005831015156128845760016128808584600a0a613a48565b0190505b5b8090509392505050565b600060ef60009054906101000a900460ff161515612915576040517f08c379a00000000000000000000000000000000000000000000000000000000081526004018080602001828103825260198152602001807f4c6f6f6b7570207461626c6573206d757374206265207365740000000000000081525060200191505060405180910390fd5b68056bc75e2d631000008210158015612939575068056bc75e2d6310000060020282105b15156129d3576040517f08c379a00000000000000000000000000000000000000000000000000000000081526004018080602001828103825260228152602001807f696e7075742078206d7573742062652077697468696e2072616e6765205b312c81526020017f325b00000000000000000000000000000000000000000000000000000000000081525060400191505060405180910390fd5b6000670de0b6b3a76400008302905060006f4b3b4ca85a86c47a098a224000000000600202905060006f4b3b4ca85a86c47a098a22400000000083811515612a1757fe5b0690506000612a2582611a7b565b905060008090505b81811015612a9557600081600a0a60018301600a0a85811515612a4c57fe5b06811515612a5657fe5b0490506000612a7860c884602503602781101515612a7057fe5b015483610ac6565b9050612a84868261119e565b955050508080600101915050612a2d565b5082945050505050919050565b6000806000606481101515612ab357fe5b01819055506f35326198caa4cf0398dd2df4a401fff760006001606481101515612ad957fe5b01819055506f3f43136bbc1145a3d84ccd8fde80506060006002606481101515612aff57fe5b01819055506f44fcdaff61cc4ceae78af7acfc2dcb3360006003606481101515612b2557fe5b01819055506f480ac4b15dff81588c37988631acc64760006004606481101515612b4b57fe5b01819055506f499e9cc45b22529d4b6abaa6c727fa1e60006005606481101515612b7157fe5b01819055506f4a6bd6a98878b7e749bca36139d8d43860006006606481101515612b9757fe5b01819055506f4ad349c2776ffca447fac2991089d49660006007606481101515612bbd57fe5b01819055506f4b07392f52b5c840e2f500a685315e0e60006008606481101515612be357fe5b01819055506f4b213e68c12287618b3844474164936160006009606481101515612c0957fe5b01819055506f4b2e4467966940f3e15f711b485e0c4e6000600a606481101515612c2f57fe5b01819055506f4b34c83fb45aa7f02968d3f10c7bf1736000600b606481101515612c5557fe5b01819055506f4b380a61f5a1002253dd42289d3f4eae6000600c606481101515612c7b57fe5b01819055506f4b39ab80a386e7ea4aa8befbc274a5996000600d606481101515612ca157fe5b01819055506f4b3a7c135de075ee193ece3e8ec0de136000600e606481101515612cc757fe5b01819055506f4b3ae45d93e9a0ecb716a961237770f66000600f606481101515612ced57fe5b01819055506f4b3b1882e525a71aafc82b1e629fd4f560006010606481101515612d1357fe5b01819055506f4b3b32959b519153545560036c6f85ac60006011606481101515612d3957fe5b01819055506f4b3b3f9ef9cb0196d145667cf95b889260006012606481101515612d5f57fe5b01819055506f4b3b4623a9e098ae32898d763688291560006013606481101515612d8557fe5b01819055506f4b3b496602219bfcc6e3c6e7270bab6160006014606481101515612dab57fe5b01819055506f4b3b4b072e4fab95795f9efc3a14fb8c60006015606481101515612dd157fe5b01819055506f4b3b4bd7c46a16de429d50fdc920a2e560006016606481101515612df757fe5b01819055506f4b3b4c400f782561c5f99e6e8cc40d7560006017606481101515612e1d57fe5b01819055506f4b3b4c7434ff62db4faed2a218e2ba6c60006018606481101515612e4357fe5b01819055506f4b3b4c8e47c30f26069626269d2ce29760006019606481101515612e6957fe5b01819055506f4b3b4c9b5124e8aede8e5d050e398bb16000601a606481101515612e8f57fe5b01819055506f4b3b4ca1d5d5d64c29abc793827320756000601b606481101515612eb557fe5b01819055506f4b3b4ca5182e4d510702d61d917cca2d6000601c606481101515612edb57fe5b01819055506f4b3b4ca6b95a88e103a07462aefce70c6000601d606481101515612f0157fe5b01819055506f4b3b4ca789f0a6ac656bc95b2f53ca656000601e606481101515612f2757fe5b01819055506f4b3b4ca7f23bb592ef30954fa967f1b76000601f606481101515612f4d57fe5b01819055506f4b3b4ca826613d066a4ac3a84c9c92d460006020606481101515612f7357fe5b01819055506f4b3b4ca8407400c03565ccec42b792c860006021606481101515612f9957fe5b01819055506f4b3b4ca84d7d629d1e56ce142844001860006022606481101515612fbf57fe5b01819055506f4b3b4ca85402138b93a82dc995d5ca4760006023606481101515612fe557fe5b01819055506f4b3b4ca857446c02ce87156cab570f3e6000602460648110151561300b57fe5b01819055506f4b3b4ca858e5983e6c0417304dc679166000602560648110151561303157fe5b01819055506f4b3b4ca859b62e5c3ac5fb8ea4e9f5c66000602660648110151561305757fe5b01819055506f4b3b4ca85a1e796b2227c69cf1f6a8cc6000602760648110151561307d57fe5b01819055506f4b3b4ca85a529ef295d8e25be0dbbfd7600060286064811015156130a357fe5b01819055506f4b3b4ca85a6cb1b64fb17dc94a65fac1600060296064811015156130c957fe5b01819055506f4b3b4ca85a79bb182c9dcee37bb1041a6000602a6064811015156130ef57fe5b01819055506f4b3b4ca85a803fc91b13f849737803bf6000602b60648110151561311557fe5b01819055506f4b3b4ca85a838221924f0d32a723e24d6000602c60648110151561313b57fe5b01819055506f4b3b4ca85a85234dcdec97b4ceebe93e6000602d60648110151561316157fe5b01819055506f4b3b4ca85a85f3e3ebbb5cf9464c72a36000602e60648110151561318757fe5b01819055506f4b3b4ca85a865c2efaa2bf9c5adbd8d56000602f6064811015156131ad57fe5b01819055506f4b3b4ca85a869054821670ee1b5b544b600060306064811015156131d357fe5b01819055506f4b3b4ca85a86aa6745d049970929041e600060316064811015156131f957fe5b01819055506f4b3b4ca85a86b770a7ad35eb837358886000603260648110151561321f57fe5b01819055506f4b3b4ca85a86bdf5589bac15c17161e16000603360648110151561324557fe5b01819055506f4b3b4ca85a86c137b112e72ae0a69e5a6000603460648110151561326b57fe5b01819055506f4b3b4ca85a86c2d8dd4e84b5704eca8a6000603560648110151561329157fe5b01819055506f4b3b4ca85a86c3a9736c537ab826441b600060366064811015156132b757fe5b01819055506f4b3b4ca85a86c411be7b3add5c12d9c7600060376064811015156132dd57fe5b01819055506f4b3b4ca85a86c445e402ae8eae095acf6000603860648110151561330357fe5b01819055506f4b3b4ca85a86c45ff6c668675704a8e16000603960648110151561332957fe5b01819055506f4b3b4ca85a86c46d00284553ab8253506000603a60648110151561334f57fe5b01819055506f4b3b4ca85a86c47384d933c9d5c129636000603b60648110151561337557fe5b01819055506f4b3b4ca85a86c476c731ab04eae0949c6000603c60648110151561339b57fe5b01819055506f4b3b4ca85a86c478685de6a275704a456000603d6064811015156133c157fe5b01819055506f4b3b4ca85a86c47938f404713ab825206000603e6064811015156133e757fe5b01819055506f4b3b4ca85a86c479a13f13589d5c12956000603f60648110151561340d57fe5b01819055506f4b3b4ca85a86c479d5649acc4eae094a6000604060648110151561343357fe5b01819055506f4b3b4ca85a86c479ef775e86275704aa6000604160648110151561345957fe5b01819055506f4b3b4ca85a86c479fc80c06313ab825a6000604260648110151561347f57fe5b01819055506f4b3b4ca85a86c47a0305715189d5c132600060436064811015156134a557fe5b01819055506f4b3b4ca85a86c47a0647c9c8c4eae09e600060446064811015156134cb57fe5b01819055506f4b3b4ca85a86c47a07e8f60462757054600060456064811015156134f157fe5b01819055506f4b3b4ca85a86c47a08b98c22313ab82a6000604660648110151561351757fe5b01819055506f4b3b4ca85a86c47a0921d731189d5c1a6000604760648110151561353d57fe5b01819055506f4b3b4ca85a86c47a0955fcb88c4eae126000604860648110151561356357fe5b01819055506f4b3b4ca85a86c47a09700f7c4627570e6000604960648110151561358957fe5b01819055506f4b3b4ca85a86c47a097d18de2313ab8c6000604a6064811015156135af57fe5b01819055506f4b3b4ca85a86c47a09839d8f1189d5c66000604b6064811015156135d557fe5b01819055506f4b3b4ca85a86c47a0986dfe788c4eae86000604c6064811015156135fb57fe5b01819055506f4b3b4ca85a86c47a09888113c46275746000604d60648110151561362157fe5b01819055506f4b3b4ca85a86c47a098951a9e2313aba6000604e60648110151561364757fe5b01819055506f4b3b4ca85a86c47a0989b9f4f1189d626000604f60648110151561366d57fe5b01819055506f4b3b4ca85a86c47a0989ee1a788c4eb66000605060648110151561369357fe5b01819055506f4b3b4ca85a86c47a098a082d3c462760600060516064811015156136b957fe5b01819055506f4b3b4ca85a86c47a098a15369e2313b0600060526064811015156136df57fe5b01819055506f4b3b4ca85a86c47a098a1bbb4f1189d86000605360648110151561370557fe5b01819055506f4b3b4ca85a86c47a098a1efda788c4ec6000605460648110151561372b57fe5b01819055506f4b3b4ca85a86c47a098a209ed3c462766000605560648110151561375157fe5b01819055506f4b3b4ca85a86c47a098a216f69e231406000605660648110151561377757fe5b01819055506f4b3b4ca85a86c47a098a21d7b4f118a06000605760648110151561379d57fe5b01819055506f4b3b4ca85a86c47a098a220bda788c50600060586064811015156137c357fe5b01819055506f4b3b4ca85a86c47a098a2225ed3c4628600060596064811015156137e957fe5b01819055506f4b3b4ca85a86c47a098a2232f69e23146000605a60648110151561380f57fe5b01819055506f4b3b4ca85a86c47a098a22397b4f118a6000605b60648110151561383557fe5b01819055506f4b3b4ca85a86c47a098a223cbda788ca6000605c60648110151561385b57fe5b01819055506f4b3b4ca85a86c47a098a223e5ed3c46a6000605d60648110151561388157fe5b01819055506f4b3b4ca85a86c47a098a223f2f69e23a6000605e6064811015156138a757fe5b01819055506f4b3b4ca85a86c47a098a223f97b4f1226000605f6064811015156138cd57fe5b01819055506f4b3b4ca85a86c47a098a223fcbda7896600060606064811015156138f357fe5b01819055506f4b3b4ca85a86c47a098a223fe5ed3c506000606160648110151561391957fe5b01819055506f4b3b4ca85a86c47a098a223ff2f69e286000606260648110151561393f57fe5b01819055506f4b3b4ca85a86c47a098a223ff97b4f146000606360648110151561396557fe5b0181905550565b60008160648110151561397b57fe5b016000915090505481565b60c88160278110151561399557fe5b016000915090505481565b6000806139ad84846139e9565b9050670de0b6b3a76400006139d6826002670de0b6b3a76400008115156139d057fe5b04613a27565b8115156139df57fe5b0491505092915050565b6000808314156139fc5760009050613a21565b60008284029050828482811515613a0f57fe5b04141515613a1c57600080fd5b809150505b92915050565b6000808284019050838110151515613a3e57600080fd5b8091505092915050565b60008082111515613a5857600080fd5b60008284811515613a6557fe5b049050809150509291505056fea165627a7a723058202c6a7f4d2422bc905db95c86f0c495e8c81010d3179340689426add0789ddc750029",
  "source": "pragma solidity ^0.5.0;\r\n\r\ncontract DeciMath {\r\n  uint constant TEN38 = 10**38;\r\n  uint constant TEN30 = 10**30;\r\n  uint constant TEN20 = 10**20;\r\n  uint constant TEN19 = 10**19;\r\n  uint constant TEN18 = 10**18;\r\n  uint constant TEN17 = 10**17;\r\n  uint constant TEN12 = 10**12;\r\n  uint constant TEN11 = 10**11;\r\n  uint constant TEN10 = 10**10;\r\n  uint constant TEN9 = 10**9;\r\n  uint constant TEN8 = 10**8;\r\n  uint constant TEN7 = 10**7;\r\n\r\n  // ln(2) - used in ln(x)\r\n  uint constant LN2 = 693147180559945309417232121458; // to 30 DP\r\n  //17656808;\r\n\r\n  //  1/ln(2) - used in exp(x)\r\n  uint constant ONE_OVER_LN2 = 1442695040888963407359924681002; // to 30 DP\r\n\r\n  //Lookup table arrays for log2(x)\r\n  uint[100] public table_log2;\r\n  uint[100] public powersOfTwo;\r\n\r\n  // Lookup table for two_x(x)\r\n  uint[39] public table_2_x;\r\n\r\n  bool tablesAreSet = false;\r\n\r\n  // Basic math operators. Identical to Zeppelin's SafeMath\r\n  function mul(uint256 a, uint256 b) internal pure returns (uint256) {\r\n    if (a == 0) {\r\n        return 0;\r\n    }\r\n    uint256 c = a * b;\r\n    require(c / a == b);\r\n    return c;\r\n  }\r\n\r\n  function div(uint256 a, uint256 b) internal pure returns (uint256) {\r\n    require(b > 0);\r\n    uint256 c = a / b;\r\n    return c;\r\n  }\r\n\r\n  function sub(uint256 a, uint256 b) internal pure returns (uint256) {\r\n    require(b <= a);\r\n    uint256 c = a - b;\r\n    return c;\r\n  }\r\n\r\n  function add(uint256 a, uint256 b) internal pure returns (uint256) {\r\n    uint256 c = a + b;\r\n    require(c >= a);\r\n    return c;\r\n  }\r\n\r\n  function mod(uint256 a, uint256 b) internal pure returns (uint256) {\r\n    require(b != 0);\r\n    return a % b;\r\n  }\r\n\r\n  //Basic decimal math operators. Inputs and output are uint representations of fixed-point decimals.\r\n\r\n\r\n  // 18 Decimal places\r\n  function decMul18(uint x, uint y) public pure returns (uint decProd) {\r\n    uint prod_xy = mul(x, y);\r\n    decProd = add(prod_xy, TEN18 / 2) / TEN18;\r\n  }\r\n\r\n  function decDiv18(uint x, uint y) public pure returns (uint decQuotient) {\r\n    uint prod_xTEN18 = mul(x, TEN18);\r\n    decQuotient = add(prod_xTEN18, y / 2) / y;\r\n  }\r\n  // 30 Decimal places\r\n  function decMul30(uint x, uint y) public pure returns (uint decProd) {\r\n    uint prod_xy = mul(x, y);\r\n    decProd = add(prod_xy, TEN30 / 2) / TEN30;\r\n  }\r\n\r\n  // 38 Decimal places\r\n  function decMul38(uint x, uint y) public pure returns (uint decProd) {\r\n    uint prod_xy = mul(x, y);\r\n    decProd = add(prod_xy, TEN38 / 2) / TEN38;\r\n  }\r\n\r\n  /****** HELPER FUNCTIONS ******/\r\n\r\n  // Precision conversion. Chop the last digits, and round the resulting number\r\n  function chopAndRound(uint num, uint digit, uint posOfChop) public pure returns (uint chopped) {\r\n    if  ( digit < 5 ) { // round down - chop off the last digits\r\n      chopped = div(num, 10**posOfChop);\r\n    } else if ( digit >= 5 ) { // round up - chop off last digits, and increment new last digit by 1\r\n      chopped = div(num, 10**posOfChop) + 1;\r\n    }\r\n    return chopped;\r\n  }\r\n\r\n  /* 'Convert' functions are repetitive - but explicit naming vastly improves\r\n  readability of the algorithms that use them */\r\n\r\n  // convert 38DP fixed-point to 18DP fixed-point\r\n  function convert38To18DP(uint x) public pure returns ( uint y ) {\r\n    uint digit = ( x % TEN20 ) / TEN19; // grab 20th digit from-the-right\r\n    return chopAndRound(x, digit, 20);\r\n  }\r\n\r\n  function convert38To30DP(uint x) public pure returns ( uint y ) {\r\n    uint digit = ( x % TEN8 ) / TEN7;\r\n    return chopAndRound(x, digit, 8);\r\n  }\r\n\r\n  function convert30To20DP(uint x) public pure returns ( uint y ) {\r\n    uint digit = ( x % TEN10) / TEN9;\r\n    return chopAndRound(x, digit, 10);\r\n  }\r\n\r\n  function convert30To18DP(uint x) public pure returns ( uint y ) {\r\n    uint digit = ( x % TEN12) / TEN11;\r\n    return chopAndRound(x, digit, 12);\r\n  }\r\n\r\n  // return the floor of a fixed-point 20DP number\r\n  function floor(uint x) public pure returns (uint num) {\r\n    num = x - (x % TEN20);\r\n    return num;\r\n  }\r\n\r\n  function countDigits(uint num) public view returns (uint) {\r\n    uint digits = 0;\r\n\r\n    while (num != 0) {\r\n      num /= 10;  // When num <10, yields 0 due to EVM floor division\r\n      digits++;\r\n    }\r\n    return digits;\r\n  }\r\n\r\n    /* b^x functions for integer exponent. Use  highly performant 'exponetiation-by-squaring' algorithm\r\n     - O(log(n)) operations. */\r\n\r\n    // Integer base, integer exponent\r\n  function expBySquare(uint x, uint n) public pure returns (uint) {\r\n    if (n == 0)\r\n      return 1;\r\n\r\n    uint y = 1;\r\n\r\n    while (n > 1)\r\n    if (n % 2 == 0) {\r\n      x = mul(x, x);\r\n      n = n / 2;\r\n    } else if (n % 2 != 0) {\r\n      y = mul(x, y);\r\n      x = mul(x, x);\r\n      n = (n - 1)/2;\r\n    }\r\n    return mul(x, y);\r\n  }\r\n\r\n      //Fixed-point 18DP base, integer exponent n\r\n  function expBySquare18(uint base, uint n) public pure returns (uint) {\r\n    if (n == 0)\r\n    return TEN18;\r\n\r\n    uint y = TEN18;\r\n\r\n    while (n > 1) {\r\n      if (n % 2 == 0) {\r\n        base = decMul18(base, base);\r\n        n = n / 2;\r\n      } else if (n % 2 != 0) {\r\n        y = decMul18(base, y);\r\n        base = decMul18(base, base);\r\n        n = (n - 1)/2;\r\n      }\r\n    }\r\n    return decMul18(base, y);\r\n  }\r\n\r\n        //Fixed-point 38DP base,integer exponent n\r\n  function expBySquare38(uint base, uint n) public pure returns (uint) {\r\n    if (n == 0)\r\n    return TEN38;\r\n\r\n    uint y = TEN38;\r\n\r\n    while (n > 1) {\r\n      if (n % 2 == 0) {\r\n        base = decMul38(base, base);\r\n        n = n / 2;\r\n      } else if (n % 2 != 0) {\r\n        y = decMul38(base, y);\r\n        base = decMul38(base, base);\r\n        n = (n - 1)/2;\r\n      }\r\n    }\r\n    return decMul38(base, y);\r\n  }\r\n  /* EXP(x). Use identities:\r\n\r\n  A) e^x = 2^(x / ln(2))\r\n  and\r\n  B) 2^y = (2^r) * 2^(x - r); where r = floor(x) - 1, and (x - r) is in range [1,2[\r\n  Input 18 DP, output 18 DP.\r\n  */\r\n  function exp(uint x) public view returns (uint num) {\r\n    uint intExponent;  // 20 DP\r\n    uint decExponent;  // 20 DP\r\n    uint coefficient;  // 38 DP\r\n\r\n    x = mul(x, TEN12); // make x 30DP\r\n    x = decMul30( ONE_OVER_LN2, x);\r\n    x = convert30To20DP(x);  //back to 20 DP\r\n\r\n    // if x < 1, do: (2^-1) * 2^(1 + x)\r\n    if (x < TEN20 && x >= 0) {\r\n      decExponent = add(TEN20, x);\r\n      coefficient = TEN38 / 2; // 0.5, as 38DP\r\n      num = decMul38(coefficient, two_x(decExponent));  // return 2^r * 2^(x - r)\r\n    } else {\r\n      intExponent = floor(x) - TEN20;\r\n      decExponent = x - intExponent; // decimal exponent in range [1,2[\r\n      coefficient =  expBySquare(2, div(intExponent, TEN20));\r\n      num = mul(coefficient, two_x(decExponent)); //  use normal mul to avoid overflow, as coeff. is an int\r\n    }\r\n\r\n    return convert38To18DP(num);\r\n  }\r\n\r\n  // Taylor series implementation of e^x - lower accuracy and higher gas cost than exp(x). 18DP Input.\r\n  function exp_taylor(uint x) public pure returns (uint) {\r\n    uint tolerance = 1;\r\n    uint term = TEN18;\r\n    uint sum = TEN18;\r\n    uint i = 0;\r\n\r\n    while (term > tolerance) { // stop computing terms when smallest term reaches 10^-18 in size\r\n      i += TEN18;\r\n      term = decDiv18( decMul18(term, x), i );\r\n      sum += term;\r\n    }\r\n    return sum;\r\n  }\r\n\r\n  // Base-2 logarithm function, for x in range [1,2[.  Input 18DP, output 30DP (for use in ln(x) ) .\r\n\r\n  function log2(uint x, uint accuracy) public view returns (uint) {\r\n    require(tablesAreSet, 'Lookup tables must be set');\r\n    require(x >= TEN18 && x < 2 * TEN18, 'input x must be within range [1,2[');\r\n    uint prod = mul(x, TEN20);  // make x 38 DP\r\n    uint newProd = TEN38;\r\n    uint output = 0;\r\n\r\n    for (uint i = 1; i <= accuracy; i++) {\r\n      newProd = decMul38(table_log2[i], prod);\r\n\r\n      if (newProd >= TEN38) {\r\n        prod = newProd;\r\n        output += powersOfTwo[i];\r\n      }\r\n    }\r\n    return convert38To30DP(output);\r\n  }\r\n\r\n  // 2^x function, for x in range [1,2[. Input 20DP, output 30DP ( for use in exp(x) )\r\n  function two_x(uint x) public view returns (uint) {\r\n    require (tablesAreSet, 'Lookup tables must be set');\r\n    require(x >= TEN20 && x < 2 * TEN20, 'input x must be within range [1,2[');\r\n    uint x_38dp = x * TEN18;\r\n    uint prod = 2 * TEN38;\r\n    uint fractPart = x_38dp % TEN38;\r\n    uint digitsLength = countDigits(fractPart);\r\n\r\n    // loop backwards through mantissa digits. Multiply each by the Lookup-table value\r\n    for (uint i = 0; i < digitsLength; i++) {\r\n      uint digit  = ( fractPart % (10 ** (i + 1))) / (10 ** i); // grab the i'th digit from right\r\n\r\n      // computer i'th term, and new product\r\n      uint term = expBySquare38(table_2_x[37 - i], digit);\r\n      prod = decMul38(prod, term);\r\n    }\r\n    return prod;\r\n  }\r\n\r\n  /* Natural log function ln(x).\r\n  Uses identities:\r\n  A) ln(x) = log2(x) * ln(2)\r\n  and\r\n  B) log2(x) = log2(2^q * y)           y in range [1,2[\r\n  = log2(2^q) + log2(y)\r\n  = q + log2(y)\r\n\r\n  The algorithm finds q and y by repeated division by powers-of-two.\r\n  Input 18 DP, output 18 DP.\r\n  */\r\n  function ln(uint x, uint accuracy) public view returns (uint) {\r\n    require(x >= TEN18, \"input must be >= 1\");\r\n    uint count = 0; // track\r\n    uint TWO = mul(TEN18, 2);\r\n\r\n    /* Calculate q.\r\n\r\n    Use branches to divide by powers-of-two, until output is in [1,2[.\r\n    Branch approach is performant than simple successive division by 2.\r\n    As max input of ln(x) is ~10^40 ~= 2^132, starting division at 2^30 yields sufficiently few operations for large x. */\r\n    while (x >= 2 * TEN18 ) { // Conditionals need primary expressions - can't use \"mul\". No risk of overflow.\r\n      if (x >= 1073741824 * TEN18) {\r\n        x = decDiv18(x, 1073741824 * TEN18);\r\n        count += 30;\r\n      } else if (x >= 1048576 * TEN18) {\r\n        x = decDiv18(x, 1048576 * TEN18);\r\n        count += 20;\r\n      } else if (x >= 32768 * TEN18) {\r\n        x = decDiv18(x, 32768 * TEN18);\r\n        count += 15;\r\n      } else if (x >= 1024 * TEN18) {\r\n      x = decDiv18(x, 1024 * TEN18);\r\n      count += 10;\r\n      } else if (x >= 512 * TEN18) {\r\n        x = decDiv18(x, 512 * TEN18);\r\n        count += 9;\r\n      } else if (x >= 256 * TEN18) {\r\n        x = decDiv18(x, 256 * TEN18);\r\n        count += 8;\r\n      } else if (x >= 128 * TEN18) {\r\n        x = decDiv18(x, 128 * TEN18);\r\n        count += 7;\r\n      } else if (x >= 64 * TEN18) {\r\n        x = decDiv18(x, 64 * TEN18);\r\n        count += 6;\r\n      } else if (x >= 32 * TEN18) {\r\n        x = decDiv18(x, 32 * TEN18);\r\n        count += 5;\r\n      }  else if (x >= 16 * TEN18) {\r\n        x = decDiv18(x, 16 * TEN18);\r\n        count += 4;\r\n      } else if (x >= 8 * TEN18) {\r\n        x = decDiv18(x, 8 * TEN18);\r\n        count += 3;\r\n      } else if (x >= 4 * TEN18) {\r\n        x = decDiv18(x, 4 * TEN18);\r\n        count += 2;\r\n      } else if (x >= 2 * TEN18) {\r\n        x = decDiv18(x, 2 * TEN18);\r\n        count += 1;\r\n      }\r\n    }\r\n\r\n    //naive repeated div by 2\r\n    /* while (x >= 2 * TEN18 ) {\r\n      x = decDiv18(x, 2 * TEN18);\r\n      count += 1;\r\n    } */\r\n\r\n    uint q =  count * TEN30;\r\n    uint output = decMul30(LN2, add(q, log2(x, accuracy)));\r\n\r\n    return convert30To18DP(output);\r\n  }\r\n\r\n  /* pow(b, x) for 18 DP base and exponent.\r\n\r\n  Uses identity:  b^x = exp (x * ln(b)).  Output 18 DP. */\r\n  function pow(uint base, uint x) public view returns (uint power) {\r\n   if (base >= TEN18) {\r\n       return exp(decMul18(x, ln(base, 70)));\r\n     }\r\n   /* for b < 1, rewrite b^x :\r\n    b^x = exp(x * -ln(1/b)) = 1/exp(x * ln(1/b).\r\n   Thus, we avoid passing argument y < 1 to ln(y), and z < 0 to exp(z). */\r\n    if (base < TEN18) {\r\n      uint exponent = decMul18(x, ln(decDiv18(TEN18, base), 70));\r\n      return decDiv18(TEN18, exp(exponent));\r\n    }\r\n  }\r\n\r\n  /// Lookup Tables (LUTs). 38 DP fixed-point numbers.\r\n\r\n  // LUT1 for log2(x). The i'th term is 1/(2^(1/2^i))\r\n  function setLUT1() public {\r\n    table_log2[0] = 0;\r\n    table_log2[1] = 70710678118654752440084436210484903927;\r\n    table_log2[2] = 84089641525371454303112547623321489504;\r\n    table_log2[3] = 91700404320467123174354159479414442803;\r\n    table_log2[4] = 95760328069857364693630563514791544391;\r\n    table_log2[5] = 97857206208770013450916112581343574558;\r\n    table_log2[6] = 98922801319397548412912495906558366776;\r\n    table_log2[7] = 99459942348363317565247768622216631446;\r\n    table_log2[8] = 99729605608547012625765991384792260110;\r\n    table_log2[9] = 99864711289097017358812131808592040801;\r\n    table_log2[10] = 99932332750265075236028365984373804110;\r\n    table_log2[11] = 99966160649624368394219686876281565555;\r\n    table_log2[12] = 99983078893192906311748078019767389870;\r\n    table_log2[13] = 99991539088661349753372497156418872729;\r\n    table_log2[14] = 99995769454843113254396753730099797523;\r\n    table_log2[15] = 99997884705049192982650067113039327478;\r\n    table_log2[16] = 99998942346931446424221059225315431669;\r\n    table_log2[17] = 99999471172067428300770241277030532524;\r\n    table_log2[18] = 99999735585684139498225234636504270994;\r\n    table_log2[19] = 99999867792754675970531776759801063701;\r\n    table_log2[20] = 99999933896355489526178052900624509793;\r\n    table_log2[21] = 99999966948172282646511738368820575116;\r\n    table_log2[22] = 99999983474084775793885880947314828005;\r\n    table_log2[23] = 99999991737042046514572235133214264693;\r\n    table_log2[24] = 99999995868520937911689915196095249004;\r\n    table_log2[25] = 99999997934260447619445466250978583191;\r\n    table_log2[26] = 99999998967130218475622805194415901617;\r\n    table_log2[27] = 99999999483565107904286413727651274869;\r\n    table_log2[28] = 99999999741782553618761958785587923501;\r\n    table_log2[29] = 99999999870891276726035667265628464908;\r\n    table_log2[30] = 99999999935445638342181505587572099685;\r\n    table_log2[31] = 99999999967722819165881670780794171831;\r\n    table_log2[32] = 99999999983861409581638564886938948308;\r\n    table_log2[33] = 99999999991930704790493714817578668744;\r\n    table_log2[34] = 99999999995965352395165465502313349144;\r\n    table_log2[35] = 99999999997982676197562384774537267783;\r\n    table_log2[36] = 99999999998991338098776105393113730878;\r\n    table_log2[37] = 99999999999495669049386780948018133270;\r\n    table_log2[38] = 99999999999747834524693072536874382790;\r\n    table_log2[39] = 99999999999873917262346456784153520332;\r\n    table_log2[40] = 99999999999936958631173208521005842391;\r\n    table_log2[41] = 99999999999968479315586599292735191745;\r\n    table_log2[42] = 99999999999984239657793298404425663514;\r\n    table_log2[43] = 99999999999992119828896648891727348671;\r\n    table_log2[44] = 99999999999996059914448324368242303565;\r\n    table_log2[45] = 99999999999998029957224162164715809086;\r\n    table_log2[46] = 99999999999999014978612081077506568867;\r\n    table_log2[47] = 99999999999999507489306040537540450517;\r\n    table_log2[48] = 99999999999999753744653020268467016779;\r\n    table_log2[49] = 99999999999999876872326510134157706270;\r\n    table_log2[50] = 99999999999999938436163255067059902600;\r\n    table_log2[51] = 99999999999999969218081627533525213665;\r\n    table_log2[52] = 99999999999999984609040813766761422426;\r\n    table_log2[53] = 99999999999999992304520406883380415114;\r\n    table_log2[54] = 99999999999999996152260203441690133531;\r\n    table_log2[55] = 99999999999999998076130101720845048263;\r\n    table_log2[56] = 99999999999999999038065050860422519503;\r\n    table_log2[57] = 99999999999999999519032525430211258593;\r\n    table_log2[58] = 99999999999999999759516262715105629008;\r\n    table_log2[59] = 99999999999999999879758131357552814435;\r\n    table_log2[60] = 99999999999999999939879065678776407196;\r\n    table_log2[61] = 99999999999999999969939532839388203589;\r\n    table_log2[62] = 99999999999999999984969766419694101792;\r\n    table_log2[63] = 99999999999999999992484883209847050901;\r\n    table_log2[64] = 99999999999999999996242441604923525450;\r\n    table_log2[65] = 99999999999999999998121220802461762730;\r\n    table_log2[66] = 99999999999999999999060610401230881370;\r\n    table_log2[67] = 99999999999999999999530305200615440690;\r\n    table_log2[68] = 99999999999999999999765152600307720350;\r\n    table_log2[69] = 99999999999999999999882576300153860180;\r\n    table_log2[70] = 99999999999999999999941288150076930090;\r\n    table_log2[71] = 99999999999999999999970644075038465050;\r\n    table_log2[72] = 99999999999999999999985322037519232530;\r\n    table_log2[73] = 99999999999999999999992661018759616270;\r\n    table_log2[74] = 99999999999999999999996330509379808140;\r\n    table_log2[75] = 99999999999999999999998165254689904070;\r\n    table_log2[76] = 99999999999999999999999082627344952040;\r\n    table_log2[77] = 99999999999999999999999541313672476020;\r\n    table_log2[78] = 99999999999999999999999770656836238010;\r\n    table_log2[79] = 99999999999999999999999885328418119010;\r\n    table_log2[80] = 99999999999999999999999942664209059510;\r\n    table_log2[81] = 99999999999999999999999971332104529760;\r\n    table_log2[82] = 99999999999999999999999985666052264880;\r\n    table_log2[83] = 99999999999999999999999992833026132440;\r\n    table_log2[84] = 99999999999999999999999996416513066220;\r\n    table_log2[85] = 99999999999999999999999998208256533110;\r\n    table_log2[86] = 99999999999999999999999999104128266560;\r\n    table_log2[87] = 99999999999999999999999999552064133280;\r\n    table_log2[88] = 99999999999999999999999999776032066640;\r\n    table_log2[89] = 99999999999999999999999999888016033320;\r\n    table_log2[90] = 99999999999999999999999999944008016660;\r\n    table_log2[91] = 99999999999999999999999999972004008330;\r\n    table_log2[92] = 99999999999999999999999999986002004170;\r\n    table_log2[93] = 99999999999999999999999999993001002090;\r\n    table_log2[94] = 99999999999999999999999999996500501050;\r\n    table_log2[95] = 99999999999999999999999999998250250530;\r\n    table_log2[96] = 99999999999999999999999999999125125270;\r\n    table_log2[97] = 99999999999999999999999999999562562640;\r\n    table_log2[98] = 99999999999999999999999999999781281320;\r\n    table_log2[99] = 99999999999999999999999999999890640660;\r\n  }\r\n\r\n  //LUT2 for log2(x). The i'th term is 2^((1/i))\r\n  function setLUT2() public {\r\n    powersOfTwo[0] = 200000000000000000000000000000000000000;\r\n    powersOfTwo[1] = 50000000000000000000000000000000000000;\r\n    powersOfTwo[2] = 25000000000000000000000000000000000000;\r\n    powersOfTwo[3] = 12500000000000000000000000000000000000;\r\n    powersOfTwo[4] = 6250000000000000000000000000000000000;\r\n    powersOfTwo[5] = 3125000000000000000000000000000000000;\r\n    powersOfTwo[6] = 1562500000000000000000000000000000000;\r\n    powersOfTwo[7] = 781250000000000000000000000000000000;\r\n    powersOfTwo[8] = 390625000000000000000000000000000000;\r\n    powersOfTwo[9] = 195312500000000000000000000000000000;\r\n    powersOfTwo[10] = 97656250000000000000000000000000000;\r\n    powersOfTwo[11] = 48828125000000000000000000000000000;\r\n    powersOfTwo[12] = 24414062500000000000000000000000000;\r\n    powersOfTwo[13] = 12207031250000000000000000000000000;\r\n    powersOfTwo[14] = 6103515625000000000000000000000000;\r\n    powersOfTwo[15] = 3051757812500000000000000000000000;\r\n    powersOfTwo[16] = 1525878906250000000000000000000000;\r\n    powersOfTwo[17] = 762939453125000000000000000000000;\r\n    powersOfTwo[18] = 381469726562500000000000000000000;\r\n    powersOfTwo[19] = 190734863281250000000000000000000;\r\n    powersOfTwo[20] = 95367431640625000000000000000000;\r\n    powersOfTwo[21] = 47683715820312500000000000000000;\r\n    powersOfTwo[22] = 23841857910156250000000000000000;\r\n    powersOfTwo[23] = 11920928955078125000000000000000;\r\n    powersOfTwo[24] = 5960464477539062500000000000000;\r\n    powersOfTwo[25] = 2980232238769531250000000000000;\r\n    powersOfTwo[26] = 1490116119384765625000000000000;\r\n    powersOfTwo[27] = 745058059692382812500000000000;\r\n    powersOfTwo[28] = 372529029846191406250000000000;\r\n    powersOfTwo[29] = 186264514923095703125000000000;\r\n    powersOfTwo[30] = 93132257461547851562500000000;\r\n    powersOfTwo[31] = 46566128730773925781250000000;\r\n    powersOfTwo[32] = 23283064365386962890625000000;\r\n    powersOfTwo[33] = 11641532182693481445312500000;\r\n    powersOfTwo[34] = 5820766091346740722656250000;\r\n    powersOfTwo[35] = 2910383045673370361328125000;\r\n    powersOfTwo[36] = 1455191522836685180664062500;\r\n    powersOfTwo[37] = 727595761418342590332031250;\r\n    powersOfTwo[38] = 363797880709171295166015625;\r\n    powersOfTwo[39] = 181898940354585647583007812;\r\n    powersOfTwo[40] = 90949470177292823791503906;\r\n    powersOfTwo[41] = 45474735088646411895751953;\r\n    powersOfTwo[42] = 22737367544323205947875976;\r\n    powersOfTwo[43] = 11368683772161602973937988;\r\n    powersOfTwo[44] = 5684341886080801486968994;\r\n    powersOfTwo[45] = 2842170943040400743484497;\r\n    powersOfTwo[46] = 1421085471520200371742248;\r\n    powersOfTwo[47] = 710542735760100185871124;\r\n    powersOfTwo[48] = 355271367880050092935562;\r\n    powersOfTwo[49] = 177635683940025046467781;\r\n    powersOfTwo[50] = 88817841970012523233890;\r\n    powersOfTwo[51] = 44408920985006261616945;\r\n    powersOfTwo[52] = 22204460492503130808472;\r\n    powersOfTwo[53] = 11102230246251565404236;\r\n    powersOfTwo[54] = 5551115123125782702118;\r\n    powersOfTwo[55] = 2775557561562891351059;\r\n    powersOfTwo[56] = 1387778780781445675529;\r\n    powersOfTwo[57] = 693889390390722837764;\r\n    powersOfTwo[58] = 346944695195361418882;\r\n    powersOfTwo[59] = 173472347597680709441;\r\n    powersOfTwo[60] = 86736173798840354720;\r\n    powersOfTwo[61] = 43368086899420177360;\r\n    powersOfTwo[62] = 21684043449710088680;\r\n    powersOfTwo[63] = 10842021724855044340;\r\n    powersOfTwo[64] = 5421010862427522170;\r\n    powersOfTwo[65] = 2710505431213761085;\r\n    powersOfTwo[66] = 1355252715606880542;\r\n    powersOfTwo[67] = 677626357803440271;\r\n    powersOfTwo[68] = 338813178901720135;\r\n    powersOfTwo[69] = 169406589450860067;\r\n    powersOfTwo[70] = 84703294725430033;\r\n    powersOfTwo[71] = 42351647362715016;\r\n    powersOfTwo[72] = 21175823681357508;\r\n    powersOfTwo[73] = 10587911840678754;\r\n    powersOfTwo[74] = 5293955920339377;\r\n    powersOfTwo[75] = 2646977960169688;\r\n    powersOfTwo[76] = 1323488980084844;\r\n    powersOfTwo[77] = 661744490042422;\r\n    powersOfTwo[78] = 330872245021211;\r\n    powersOfTwo[79] = 165436122510605;\r\n    powersOfTwo[80] = 82718061255302;\r\n    powersOfTwo[81] = 41359030627651;\r\n    powersOfTwo[82] = 20679515313825;\r\n    powersOfTwo[83] = 10339757656912;\r\n    powersOfTwo[84] = 5169878828456;\r\n    powersOfTwo[85] = 2584939414228;\r\n    powersOfTwo[86] = 1292469707114;\r\n    powersOfTwo[87] = 646234853557;\r\n    powersOfTwo[88] = 323117426778;\r\n    powersOfTwo[89] = 161558713389;\r\n    powersOfTwo[90] = 80779356694;\r\n    powersOfTwo[91] = 40389678347;\r\n    powersOfTwo[92] = 20194839173;\r\n    powersOfTwo[93] = 10097419586;\r\n    powersOfTwo[94] = 5048709793;\r\n    powersOfTwo[95] = 2524354896;\r\n    powersOfTwo[96] = 1262177448;\r\n    powersOfTwo[97] = 631088724;\r\n    powersOfTwo[98] = 315544362;\r\n    powersOfTwo[99] = 157772181;\r\n  }\r\n\r\n  // LUT for two_x(x).  The i'th term is 2^(1 / 10^(i + 1)).\r\n  function setLUT3() public {\r\n    table_2_x[0] = 107177346253629316421300632502334202291;\r\n    table_2_x[1] = 100695555005671880883269821411323978545;\r\n    table_2_x[2] = 100069338746258063253756863930385919571;\r\n    table_2_x[3] = 100006931712037656919243991260264256542;\r\n    table_2_x[4] = 100000693149582830565320908980056168150;\r\n    table_2_x[5] = 100000069314742078650777263622740703038;\r\n    table_2_x[6] = 100000006931472045825965603683996211583;\r\n    table_2_x[7] = 100000000693147182962210384558650120894;\r\n    table_2_x[8] = 100000000069314718080017181643183694247;\r\n    table_2_x[9] = 100000000006931471805839679601136972338;\r\n    table_2_x[10] = 100000000000693147180562347574486828679;\r\n    table_2_x[11] = 100000000000069314718056018553592419128;\r\n    table_2_x[12] = 100000000000006931471805599693320679280;\r\n    table_2_x[13] = 100000000000000693147180559947711682302;\r\n    table_2_x[14] = 100000000000000069314718055994554964374;\r\n    table_2_x[15] = 100000000000000006931471805599453334399;\r\n    table_2_x[16] = 100000000000000000693147180559945311819;\r\n    table_2_x[17] = 100000000000000000069314718055994530966;\r\n    table_2_x[18] = 100000000000000000006931471805599453094;\r\n    table_2_x[19] = 100000000000000000000693147180559945309;\r\n    table_2_x[20] = 100000000000000000000069314718055994531;\r\n    table_2_x[21] = 100000000000000000000006931471805599453;\r\n    table_2_x[22] = 100000000000000000000000693147180559945;\r\n    table_2_x[23] = 100000000000000000000000069314718055995;\r\n    table_2_x[24] = 100000000000000000000000006931471805599;\r\n    table_2_x[25] = 100000000000000000000000000693147180560;\r\n    table_2_x[26] = 100000000000000000000000000069314718056;\r\n    table_2_x[27] = 100000000000000000000000000006931471806;\r\n    table_2_x[28] = 100000000000000000000000000000693147181;\r\n    table_2_x[29] = 100000000000000000000000000000069314718;\r\n    table_2_x[30] = 100000000000000000000000000000006931472;\r\n    table_2_x[31] = 100000000000000000000000000000000693147;\r\n    table_2_x[32] = 100000000000000000000000000000000069315;\r\n    table_2_x[33] = 100000000000000000000000000000000006931;\r\n    table_2_x[34] = 100000000000000000000000000000000000693;\r\n    table_2_x[35] = 100000000000000000000000000000000000069;\r\n    table_2_x[36] = 100000000000000000000000000000000000007;\r\n    table_2_x[37] = 100000000000000000000000000000000000001;\r\n  }\r\n\r\n  function setAllLUTs() public {\r\n    if (tablesAreSet == false) {\r\n      setLUT1();\r\n      setLUT2();\r\n      setLUT3();\r\n      tablesAreSet = true;\r\n    }\r\n  }\r\n}\r\n",
  "sourcePath": "C:\\Users\\Administrator\\Desktop\\Solidity\\DeciMath\\contracts\\DeciMath.sol",
  "compiler": {
    "name": "solc",
    "version": "0.5.0+commit.1d4f565a.Emscripten.clang"
  },
  "schemaVersion": "3.0.6",
  "updatedAt": "2019-04-19T23:43:53.099Z",
  "devdoc": {
    "methods": {}
  },
  "userdoc": {
    "methods": {
      "chopAndRound(uint256,uint256,uint256)": {
        "notice": "**** HELPER FUNCTIONS *****"
      },
      "setLUT1()": {
        "notice": "Lookup Tables (LUTs). 38 DP fixed-point numbers."
      }
    }
  }
}