{
  "contractName": "DeciMathCaller",
  "abi": [
    {
      "constant": false,
      "inputs": [
        {
          "name": "_decimathAddr",
          "type": "address"
        }
      ],
      "name": "setDeciMath",
      "outputs": [],
      "payable": false,
      "stateMutability": "nonpayable",
      "type": "function",
      "signature": "0xe0bae6c1"
    },
    {
      "constant": false,
      "inputs": [
        {
          "name": "x",
          "type": "uint256"
        },
        {
          "name": "y",
          "type": "uint256"
        }
      ],
      "name": "callDecMul18",
      "outputs": [
        {
          "name": "",
          "type": "uint256"
        }
      ],
      "payable": false,
      "stateMutability": "nonpayable",
      "type": "function",
      "signature": "0xc1a6f2ea"
    },
    {
      "constant": false,
      "inputs": [
        {
          "name": "n",
          "type": "uint256"
        }
      ],
      "name": "callExp",
      "outputs": [
        {
          "name": "",
          "type": "uint256"
        }
      ],
      "payable": false,
      "stateMutability": "nonpayable",
      "type": "function",
      "signature": "0x3a47bea9"
    },
    {
      "constant": false,
      "inputs": [
        {
          "name": "b",
          "type": "uint256"
        },
        {
          "name": "x",
          "type": "uint256"
        }
      ],
      "name": "callExpBySquare18",
      "outputs": [
        {
          "name": "",
          "type": "uint256"
        }
      ],
      "payable": false,
      "stateMutability": "nonpayable",
      "type": "function",
      "signature": "0x530f7132"
    },
    {
      "constant": false,
      "inputs": [
        {
          "name": "b",
          "type": "uint256"
        },
        {
          "name": "x",
          "type": "uint256"
        }
      ],
      "name": "callExpBySquare38",
      "outputs": [
        {
          "name": "",
          "type": "uint256"
        }
      ],
      "payable": false,
      "stateMutability": "nonpayable",
      "type": "function",
      "signature": "0xa53b8943"
    },
    {
      "constant": false,
      "inputs": [
        {
          "name": "n",
          "type": "uint256"
        }
      ],
      "name": "callExpTaylor",
      "outputs": [
        {
          "name": "",
          "type": "uint256"
        }
      ],
      "payable": false,
      "stateMutability": "nonpayable",
      "type": "function",
      "signature": "0x935dcbca"
    },
    {
      "constant": false,
      "inputs": [
        {
          "name": "x",
          "type": "uint256"
        },
        {
          "name": "n",
          "type": "uint256"
        }
      ],
      "name": "callExp18",
      "outputs": [
        {
          "name": "",
          "type": "uint256"
        }
      ],
      "payable": false,
      "stateMutability": "nonpayable",
      "type": "function",
      "signature": "0x5528a22f"
    },
    {
      "constant": false,
      "inputs": [
        {
          "name": "x",
          "type": "uint256"
        },
        {
          "name": "accuracy",
          "type": "uint256"
        }
      ],
      "name": "callLog2",
      "outputs": [
        {
          "name": "",
          "type": "uint256"
        }
      ],
      "payable": false,
      "stateMutability": "nonpayable",
      "type": "function",
      "signature": "0x11f2a675"
    },
    {
      "constant": false,
      "inputs": [
        {
          "name": "x",
          "type": "uint256"
        },
        {
          "name": "accuracy",
          "type": "uint256"
        }
      ],
      "name": "callLn",
      "outputs": [
        {
          "name": "",
          "type": "uint256"
        }
      ],
      "payable": false,
      "stateMutability": "nonpayable",
      "type": "function",
      "signature": "0xfa385126"
    },
    {
      "constant": false,
      "inputs": [
        {
          "name": "x",
          "type": "uint256"
        }
      ],
      "name": "callTwoX",
      "outputs": [
        {
          "name": "",
          "type": "uint256"
        }
      ],
      "payable": false,
      "stateMutability": "nonpayable",
      "type": "function",
      "signature": "0x5c685d10"
    },
    {
      "constant": false,
      "inputs": [
        {
          "name": "base",
          "type": "uint256"
        },
        {
          "name": "x",
          "type": "uint256"
        }
      ],
      "name": "callPow",
      "outputs": [
        {
          "name": "",
          "type": "uint256"
        }
      ],
      "payable": false,
      "stateMutability": "nonpayable",
      "type": "function",
      "signature": "0x55ee781b"
    }
  ],
  "bytecode": "0x608060405234801561001057600080fd5b50610718806100206000396000f3fe6080604052600436106100ae5763ffffffff7c010000000000000000000000000000000000000000000000000000000060003504166311f2a67581146100b35780633a47bea9146100f5578063530f71321461011f5780635528a22f1461011f57806355ee781b1461014f5780635c685d101461017f578063935dcbca146101a9578063a53b8943146101d3578063c1a6f2ea14610203578063e0bae6c114610233578063fa38512614610268575b600080fd5b3480156100bf57600080fd5b506100e3600480360360408110156100d657600080fd5b5080359060200135610298565b60408051918252519081900360200190f35b34801561010157600080fd5b506100e36004803603602081101561011857600080fd5b5035610338565b34801561012b57600080fd5b506100e36004803603604081101561014257600080fd5b50803590602001356103d0565b34801561015b57600080fd5b506100e36004803603604081101561017257600080fd5b508035906020013561043d565b34801561018b57600080fd5b506100e3600480360360208110156101a257600080fd5b50356104aa565b3480156101b557600080fd5b506100e3600480360360208110156101cc57600080fd5b5035610510565b3480156101df57600080fd5b506100e3600480360360408110156101f657600080fd5b5080359060200135610576565b34801561020f57600080fd5b506100e36004803603604081101561022657600080fd5b50803590602001356105e3565b34801561023f57600080fd5b506102666004803603602081101561025657600080fd5b5035600160a060020a0316610650565b005b34801561027457600080fd5b506100e36004803603604081101561028b57600080fd5b508035906020013561067f565b60008054604080517f78b9a1f300000000000000000000000000000000000000000000000000000000815260048101869052602481018590529051600160a060020a03909216916378b9a1f391604480820192602092909190829003018186803b15801561030557600080fd5b505afa158015610319573d6000803e3d6000fd5b505050506040513d602081101561032f57600080fd5b50909392505050565b60008054604080517fb581fbe3000000000000000000000000000000000000000000000000000000008152600481018590529051600160a060020a039092169163b581fbe391602480820192602092909190829003018186803b15801561039e57600080fd5b505afa1580156103b2573d6000803e3d6000fd5b505050506040513d60208110156103c857600080fd5b509092915050565b60008054604080517f5dceada500000000000000000000000000000000000000000000000000000000815260048101869052602481018590529051600160a060020a0390921691635dceada591604480820192602092909190829003018186803b15801561030557600080fd5b60008054604080517f2e4c697f00000000000000000000000000000000000000000000000000000000815260048101869052602481018590529051600160a060020a0390921691632e4c697f91604480820192602092909190829003018186803b15801561030557600080fd5b60008054604080517fd8e9acc0000000000000000000000000000000000000000000000000000000008152600481018590529051600160a060020a039092169163d8e9acc091602480820192602092909190829003018186803b15801561039e57600080fd5b60008054604080517f1ea97975000000000000000000000000000000000000000000000000000000008152600481018590529051600160a060020a0390921691631ea9797591602480820192602092909190829003018186803b15801561039e57600080fd5b60008054604080517f2879bc9600000000000000000000000000000000000000000000000000000000815260048101869052602481018590529051600160a060020a0390921691632879bc9691604480820192602092909190829003018186803b15801561030557600080fd5b60008054604080517ff7523c5200000000000000000000000000000000000000000000000000000000815260048101869052602481018590529051600160a060020a039092169163f7523c5291604480820192602092909190829003018186803b15801561030557600080fd5b6000805473ffffffffffffffffffffffffffffffffffffffff1916600160a060020a0392909216919091179055565b60008054604080517f44f7787f00000000000000000000000000000000000000000000000000000000815260048101869052602481018590529051600160a060020a03909216916344f7787f91604480820192602092909190829003018186803b15801561030557600080fdfea165627a7a7230582060f1c97caaf86c68dddb303f731ecfebd9c4482dfd50de2a7fadd32e248f3e260029",
  "source": "pragma solidity ^0.5.0;\r\nimport './DeciMath.sol';\r\n\r\n/* Proxy contract. ONLY NEEDED FOR TESTS. Used to call DeciMath functions.\r\n\r\nThe Proxy allows us to calculate actual gas used in DeciMath 'view' functions.\r\nLocal calls to view functions use 0 gas, so to check gas we call them as part of a transaction, via this proxy contract.\r\n\r\nExample usage:\r\nAn EOA sends a tx to DeciMathCaller.callExp(n), which in turn calls exp(n) on the deployed DeciMath instance.\r\nAs the latter function is called from within a tx, it uses gas.  We can grab the gas used from the tx receipt.\r\n\r\nSee scripts/gasCalculator.js for gas and error tests.\r\n*/\r\n\r\ncontract DeciMathCaller {\r\n  DeciMath decimath;\r\n\r\n  function setDeciMath(address _decimathAddr) public {\r\n    decimath = DeciMath(_decimathAddr);\r\n  }\r\n\r\n  function callDecMul18(uint x, uint y) public returns (uint) {\r\n    decimath.decMul18(x, y);\r\n  }\r\n\r\n  function callExp(uint n) public returns (uint) {\r\n    decimath.exp(n);\r\n  }\r\n\r\n  function callExpBySquare18(uint b, uint x) public returns (uint) {\r\n    decimath.expBySquare18(b, x);\r\n  }\r\n\r\n  function callExpBySquare38(uint b, uint x) public returns (uint) {\r\n    decimath.expBySquare38(b, x);\r\n  }\r\n\r\n  function callExpTaylor(uint n) public returns (uint) {\r\n    decimath.exp_taylor(n);\r\n  }\r\n\r\n  function callExp18(uint x, uint n) public returns (uint) {\r\n    decimath.expBySquare18(x, n);\r\n  }\r\n\r\n  function callLog2(uint x, uint accuracy) public returns (uint) {\r\n    decimath.log2(x, accuracy);\r\n  }\r\n\r\n  function callLn(uint x, uint accuracy) public returns (uint) {\r\n    decimath.ln(x, accuracy);\r\n  }\r\n\r\n  function callTwoX(uint x) public returns (uint) {\r\n    decimath.two_x(x);\r\n  }\r\n\r\n  function callPow(uint base, uint x) public returns (uint) {\r\n    decimath.pow(base, x);\r\n  }\r\n}\r\n",
  "sourcePath": "C:/Users/Administrator/Desktop/Solidity/DeciMath/contracts/DeciMathCaller.sol",
  "compiler": {
    "name": "solc",
    "version": "0.5.0+commit.1d4f565a.Emscripten.clang"
  },
  "schemaVersion": "3.0.6",
  "updatedAt": "2019-04-20T20:10:57.280Z",
  "devdoc": {
    "methods": {}
  },
  "userdoc": {
    "methods": {}
  }
}