{
  "contractName": "DeciMath",
  "abi": [
    {
      "constant": true,
      "inputs": [
        {
          "name": "",
          "type": "uint256"
        }
      ],
      "name": "powersOfTwo",
      "outputs": [
        {
          "name": "",
          "type": "uint256"
        }
      ],
      "payable": false,
      "stateMutability": "view",
      "type": "function",
      "signature": "0x26fd647a"
    },
    {
      "constant": true,
      "inputs": [
        {
          "name": "",
          "type": "uint256"
        }
      ],
      "name": "ith_term",
      "outputs": [
        {
          "name": "",
          "type": "uint256"
        }
      ],
      "payable": false,
      "stateMutability": "view",
      "type": "function",
      "signature": "0xbefc3839"
    },
    {
      "constant": true,
      "inputs": [
        {
          "name": "x",
          "type": "uint256"
        },
        {
          "name": "y",
          "type": "uint256"
        }
      ],
      "name": "decMul2",
      "outputs": [
        {
          "name": "decProduct",
          "type": "uint256"
        }
      ],
      "payable": false,
      "stateMutability": "pure",
      "type": "function",
      "signature": "0x94bcbc8d"
    },
    {
      "constant": true,
      "inputs": [
        {
          "name": "x",
          "type": "uint256"
        },
        {
          "name": "y",
          "type": "uint256"
        }
      ],
      "name": "decDiv2",
      "outputs": [
        {
          "name": "decQuotient",
          "type": "uint256"
        }
      ],
      "payable": false,
      "stateMutability": "pure",
      "type": "function",
      "signature": "0x4016e201"
    },
    {
      "constant": true,
      "inputs": [
        {
          "name": "x",
          "type": "uint256"
        },
        {
          "name": "y",
          "type": "uint256"
        }
      ],
      "name": "decMul18",
      "outputs": [
        {
          "name": "decProd",
          "type": "uint256"
        }
      ],
      "payable": false,
      "stateMutability": "pure",
      "type": "function",
      "signature": "0xf7523c52"
    },
    {
      "constant": true,
      "inputs": [
        {
          "name": "x",
          "type": "uint256"
        },
        {
          "name": "y",
          "type": "uint256"
        }
      ],
      "name": "decMul38",
      "outputs": [
        {
          "name": "decProd",
          "type": "uint256"
        }
      ],
      "payable": false,
      "stateMutability": "pure",
      "type": "function",
      "signature": "0x6172f467"
    },
    {
      "constant": true,
      "inputs": [
        {
          "name": "x",
          "type": "uint256"
        },
        {
          "name": "y",
          "type": "uint256"
        }
      ],
      "name": "decDiv18",
      "outputs": [
        {
          "name": "decQuotient",
          "type": "uint256"
        }
      ],
      "payable": false,
      "stateMutability": "pure",
      "type": "function",
      "signature": "0x64ce07d8"
    },
    {
      "constant": true,
      "inputs": [
        {
          "name": "x",
          "type": "uint256"
        },
        {
          "name": "n",
          "type": "uint256"
        }
      ],
      "name": "expNoDec",
      "outputs": [
        {
          "name": "",
          "type": "uint256"
        }
      ],
      "payable": false,
      "stateMutability": "pure",
      "type": "function",
      "signature": "0xe26b78e8"
    },
    {
      "constant": true,
      "inputs": [
        {
          "name": "x",
          "type": "uint256"
        },
        {
          "name": "n",
          "type": "uint256"
        }
      ],
      "name": "exp2",
      "outputs": [
        {
          "name": "",
          "type": "uint256"
        }
      ],
      "payable": false,
      "stateMutability": "pure",
      "type": "function",
      "signature": "0x1953d556"
    },
    {
      "constant": true,
      "inputs": [
        {
          "name": "base",
          "type": "uint256"
        },
        {
          "name": "n",
          "type": "uint256"
        }
      ],
      "name": "exp18",
      "outputs": [
        {
          "name": "",
          "type": "uint256"
        }
      ],
      "payable": false,
      "stateMutability": "pure",
      "type": "function",
      "signature": "0x72749dca"
    },
    {
      "constant": true,
      "inputs": [
        {
          "name": "n",
          "type": "uint256"
        }
      ],
      "name": "exp",
      "outputs": [
        {
          "name": "",
          "type": "uint256"
        }
      ],
      "payable": false,
      "stateMutability": "pure",
      "type": "function",
      "signature": "0xb581fbe3"
    },
    {
      "constant": false,
      "inputs": [],
      "name": "setLUT1",
      "outputs": [],
      "payable": false,
      "stateMutability": "nonpayable",
      "type": "function",
      "signature": "0xe5ac5717"
    },
    {
      "constant": false,
      "inputs": [],
      "name": "setLUT2",
      "outputs": [],
      "payable": false,
      "stateMutability": "nonpayable",
      "type": "function",
      "signature": "0xa463a087"
    },
    {
      "constant": true,
      "inputs": [
        {
          "name": "x",
          "type": "uint256"
        },
        {
          "name": "accuracy",
          "type": "uint256"
        }
      ],
      "name": "log2",
      "outputs": [
        {
          "name": "",
          "type": "uint256"
        }
      ],
      "payable": false,
      "stateMutability": "view",
      "type": "function",
      "signature": "0x78b9a1f3"
    }
  ],
  "bytecode": "0x608060405234801561001057600080fd5b50612618806100206000396000f3fe6080604052600436106100d0576000357c0100000000000000000000000000000000000000000000000000000000900463ffffffff1680631953d556146100d557806326fd647a1461012e5780634016e2011461017d5780636172f467146101d657806364ce07d81461022f57806372749dca1461028857806378b9a1f3146102e157806394bcbc8d1461033a578063a463a08714610393578063b581fbe3146103aa578063befc3839146103f9578063e26b78e814610448578063e5ac5717146104a1578063f7523c52146104b8575b600080fd5b3480156100e157600080fd5b50610118600480360360408110156100f857600080fd5b810190808035906020019092919080359060200190929190505050610511565b6040518082815260200191505060405180910390f35b34801561013a57600080fd5b506101676004803603602081101561015157600080fd5b81019080803590602001909291905050506105c4565b6040518082815260200191505060405180910390f35b34801561018957600080fd5b506101c0600480360360408110156101a057600080fd5b8101908080359060200190929190803590602001909291905050506105de565b6040518082815260200191505060405180910390f35b3480156101e257600080fd5b50610219600480360360408110156101f957600080fd5b81019080803590602001909291908035906020019092919050505061062a565b6040518082815260200191505060405180910390f35b34801561023b57600080fd5b506102726004803603604081101561025257600080fd5b810190808035906020019092919080359060200190929190505050610695565b6040518082815260200191505060405180910390f35b34801561029457600080fd5b506102cb600480360360408110156102ab57600080fd5b8101908080359060200190929190803590602001909291905050506106e8565b6040518082815260200191505060405180910390f35b3480156102ed57600080fd5b506103246004803603604081101561030457600080fd5b8101908080359060200190929190803590602001909291905050506107a9565b6040518082815260200191505060405180910390f35b34801561034657600080fd5b5061037d6004803603604081101561035d57600080fd5b810190808035906020019092919080359060200190929190505050610841565b6040518082815260200191505060405180910390f35b34801561039f57600080fd5b506103a8610882565b005b3480156103b657600080fd5b506103e3600480360360208110156103cd57600080fd5b8101908080359060200190929190505050611510565b6040518082815260200191505060405180910390f35b34801561040557600080fd5b506104326004803603602081101561041c57600080fd5b8101908080359060200190929190505050611577565b6040518082815260200191505060405180910390f35b34801561045457600080fd5b5061048b6004803603604081101561046b57600080fd5b810190808035906020019092919080359060200190929190505050611591565b6040518082815260200191505060405180910390f35b3480156104ad57600080fd5b506104b6611668565b005b3480156104c457600080fd5b506104fb600480360360408110156104db57600080fd5b810190808035906020019092919080359060200190929190505050612532565b6040518082815260200191505060405180910390f35b60008082141561052457606490506105be565b6000606490505b60018311156105b057600060028481151561054257fe5b061415610569576105538485610841565b935060028381151561056157fe5b0492506105ab565b600060028481151561057757fe5b061415156105aa576105898482610841565b90506105958485610841565b93506002600184038115156105a657fe5b0492505b5b61052b565b6105ba8482610841565b9150505b92915050565b6064816064811015156105d357fe5b016000915090505481565b6000806105f560648561258d90919063ffffffff16565b90508261061760028581151561060757fe5b04836125cb90919063ffffffff16565b81151561062057fe5b0491505092915050565b600080610640838561258d90919063ffffffff16565b90506f4b3b4ca85a86c47a098a22400000000061068260026f4b3b4ca85a86c47a098a22400000000081151561067257fe5b04836125cb90919063ffffffff16565b81151561068b57fe5b0491505092915050565b6000806106b3670de0b6b3a76400008561258d90919063ffffffff16565b9050826106d56002858115156106c557fe5b04836125cb90919063ffffffff16565b8115156106de57fe5b0491505092915050565b60008082141561070257670de0b6b3a764000090506107a3565b6000670de0b6b3a764000090505b600183111561079557600060028481151561072757fe5b06141561074e576107388485612532565b935060028381151561074657fe5b049250610790565b600060028481151561075c57fe5b0614151561078f5761076e8482612532565b905061077a8485612532565b935060026001840381151561078b57fe5b0492505b5b610710565b61079f8482612532565b9150505b92915050565b60008083905060006f4b3b4ca85a86c47a098a224000000000905060008090506000600190505b8581111515610834576107f36000826064811015156107eb57fe5b01548561062a565b92506f4b3b4ca85a86c47a098a224000000000831015156108275782935060648160648110151561082057fe5b0154820191505b80806001019150506107d0565b5080935050505092915050565b600080610857838561258d90919063ffffffff16565b9050606461086f6032836125cb90919063ffffffff16565b81151561087857fe5b0491505092915050565b6f96769950b50d88f41314448000000000606460006064811015156108a357fe5b01819055506f259da6542d43623d04c5112000000000606460016064811015156108c957fe5b01819055506f12ced32a16a1b11e8262889000000000606460026064811015156108ef57fe5b01819055506f096769950b50d88f41314448000000006064600360648110151561091557fe5b01819055506f04b3b4ca85a86c47a098a224000000006064600460648110151561093b57fe5b01819055506f0259da6542d43623d04c5112000000006064600560648110151561096157fe5b01819055506f012ced32a16a1b11e8262889000000006064600660648110151561098757fe5b01819055506e96769950b50d88f413144480000000606460076064811015156109ac57fe5b01819055506e4b3b4ca85a86c47a098a2240000000606460086064811015156109d157fe5b01819055506e259da6542d43623d04c51120000000606460096064811015156109f657fe5b01819055506e12ced32a16a1b11e826288900000006064600a606481101515610a1b57fe5b01819055506e096769950b50d88f413144480000006064600b606481101515610a4057fe5b01819055506e04b3b4ca85a86c47a098a2240000006064600c606481101515610a6557fe5b01819055506e0259da6542d43623d04c51120000006064600d606481101515610a8a57fe5b01819055506e012ced32a16a1b11e82628890000006064600e606481101515610aaf57fe5b01819055506d96769950b50d88f41314448000006064600f606481101515610ad357fe5b01819055506d4b3b4ca85a86c47a098a2240000060646010606481101515610af757fe5b01819055506d259da6542d43623d04c51120000060646011606481101515610b1b57fe5b01819055506d12ced32a16a1b11e82628890000060646012606481101515610b3f57fe5b01819055506d096769950b50d88f41314448000060646013606481101515610b6357fe5b01819055506d04b3b4ca85a86c47a098a224000060646014606481101515610b8757fe5b01819055506d0259da6542d43623d04c5112000060646015606481101515610bab57fe5b01819055506d012ced32a16a1b11e8262889000060646016606481101515610bcf57fe5b01819055506c96769950b50d88f4131444800060646017606481101515610bf257fe5b01819055506c4b3b4ca85a86c47a098a22400060646018606481101515610c1557fe5b01819055506c259da6542d43623d04c511200060646019606481101515610c3857fe5b01819055506c12ced32a16a1b11e82628890006064601a606481101515610c5b57fe5b01819055506c096769950b50d88f41314448006064601b606481101515610c7e57fe5b01819055506c04b3b4ca85a86c47a098a224006064601c606481101515610ca157fe5b01819055506c0259da6542d43623d04c5112006064601d606481101515610cc457fe5b01819055506c012ced32a16a1b11e8262889006064601e606481101515610ce757fe5b01819055506b96769950b50d88f4131444806064601f606481101515610d0957fe5b01819055506b4b3b4ca85a86c47a098a224060646020606481101515610d2b57fe5b01819055506b259da6542d43623d04c5112060646021606481101515610d4d57fe5b01819055506b12ced32a16a1b11e8262889060646022606481101515610d6f57fe5b01819055506b096769950b50d88f4131444860646023606481101515610d9157fe5b01819055506b04b3b4ca85a86c47a098a22460646024606481101515610db357fe5b01819055506b0259da6542d43623d04c511260646025606481101515610dd557fe5b01819055506b012ced32a16a1b11e826288960646026606481101515610df757fe5b01819055506a96769950b50d88f413144460646027606481101515610e1857fe5b01819055506a4b3b4ca85a86c47a098a2260646028606481101515610e3957fe5b01819055506a259da6542d43623d04c51160646029606481101515610e5a57fe5b01819055506a12ced32a16a1b11e8262886064602a606481101515610e7b57fe5b01819055506a096769950b50d88f4131446064602b606481101515610e9c57fe5b01819055506a04b3b4ca85a86c47a098a26064602c606481101515610ebd57fe5b01819055506a0259da6542d43623d04c516064602d606481101515610ede57fe5b01819055506a012ced32a16a1b11e826286064602e606481101515610eff57fe5b01819055506996769950b50d88f413146064602f606481101515610f1f57fe5b0181905550694b3b4ca85a86c47a098a60646030606481101515610f3f57fe5b018190555069259da6542d43623d04c560646031606481101515610f5f57fe5b01819055506912ced32a16a1b11e826260646032606481101515610f7f57fe5b018190555069096769950b50d88f413160646033606481101515610f9f57fe5b01819055506904b3b4ca85a86c47a09860646034606481101515610fbf57fe5b0181905550690259da6542d43623d04c60646035606481101515610fdf57fe5b018190555069012ced32a16a1b11e82660646036606481101515610fff57fe5b01819055506896769950b50d88f4136064603760648110151561101e57fe5b0181905550684b3b4ca85a86c47a096064603860648110151561103d57fe5b018190555068259da6542d43623d046064603960648110151561105c57fe5b01819055506812ced32a16a1b11e826064603a60648110151561107b57fe5b018190555068096769950b50d88f416064603b60648110151561109a57fe5b01819055506804b3b4ca85a86c47a06064603c6064811015156110b957fe5b0181905550680259da6542d43623d06064603d6064811015156110d857fe5b018190555068012ced32a16a1b11e86064603e6064811015156110f757fe5b01819055506796769950b50d88f46064603f60648110151561111557fe5b0181905550674b3b4ca85a86c47a6064604060648110151561113357fe5b018190555067259da6542d43623d6064604160648110151561115157fe5b01819055506712ced32a16a1b11e6064604260648110151561116f57fe5b018190555067096769950b50d88f6064604360648110151561118d57fe5b01819055506704b3b4ca85a86c47606460446064811015156111ab57fe5b0181905550670259da6542d43623606460456064811015156111c957fe5b018190555067012ced32a16a1b11606460466064811015156111e757fe5b01819055506696769950b50d886064604760648110151561120457fe5b0181905550664b3b4ca85a86c46064604860648110151561122157fe5b018190555066259da6542d43626064604960648110151561123e57fe5b01819055506612ced32a16a1b16064604a60648110151561125b57fe5b018190555066096769950b50d86064604b60648110151561127857fe5b01819055506604b3b4ca85a86c6064604c60648110151561129557fe5b0181905550660259da6542d4366064604d6064811015156112b257fe5b018190555066012ced32a16a1b6064604e6064811015156112cf57fe5b01819055506596769950b50d6064604f6064811015156112eb57fe5b0181905550654b3b4ca85a866064605060648110151561130757fe5b018190555065259da6542d436064605160648110151561132357fe5b01819055506512ced32a16a16064605260648110151561133f57fe5b018190555065096769950b506064605360648110151561135b57fe5b01819055506504b3b4ca85a86064605460648110151561137757fe5b0181905550650259da6542d46064605560648110151561139357fe5b018190555065012ced32a16a606460566064811015156113af57fe5b01819055506496769950b5606460576064811015156113ca57fe5b0181905550644b3b4ca85a606460586064811015156113e557fe5b018190555064259da6542d6064605960648110151561140057fe5b01819055506412ced32a166064605a60648110151561141b57fe5b018190555064096769950b6064605b60648110151561143657fe5b01819055506404b3b4ca856064605c60648110151561145157fe5b0181905550640259da65426064605d60648110151561146c57fe5b018190555064012ced32a16064605e60648110151561148757fe5b018190555063967699506064605f6064811015156114a157fe5b0181905550634b3b4ca8606460606064811015156114bb57fe5b018190555063259da654606460616064811015156114d557fe5b01819055506312ced32a606460626064811015156114ef57fe5b018190555063096769956064606360648110151561150957fe5b0181905550565b600080600190506000670de0b6b3a764000090506000670de0b6b3a7640000905060008090505b8383111561156b57670de0b6b3a76400008101905061155f6115598488612532565b82610695565b92508282019150611537565b81945050505050919050565b60008160648110151561158657fe5b016000915090505481565b6000808214156115a45760019050611662565b6000600190505b600183111561164b5760006002848115156115c257fe5b0614156115f2576115dc848561258d90919063ffffffff16565b93506002838115156115ea57fe5b049250611646565b600060028481151561160057fe5b061415156116455761161b818561258d90919063ffffffff16565b9050611630848561258d90919063ffffffff16565b935060026001840381151561164157fe5b0492505b5b6115ab565b61165e818561258d90919063ffffffff16565b9150505b92915050565b600080600060648110151561167957fe5b01819055506f35326198caa4cf0398dd2df4a401fff76000600160648110151561169f57fe5b01819055506f3f43136bbc1145a3d84ccd8fde805060600060026064811015156116c557fe5b01819055506f44fcdaff61cc4ceae78af7acfc2dcb33600060036064811015156116eb57fe5b01819055506f480ac4b15dff81588c37988631acc6476000600460648110151561171157fe5b01819055506f499e9cc45b22529d4b6abaa6c727fa1e6000600560648110151561173757fe5b01819055506f4a6bd6a98878b7e749bca36139d8d4386000600660648110151561175d57fe5b01819055506f4ad349c2776ffca447fac2991089d4966000600760648110151561178357fe5b01819055506f4b07392f52b5c840e2f500a685315e0e600060086064811015156117a957fe5b01819055506f4b213e68c12287618b38444741649361600060096064811015156117cf57fe5b01819055506f4b2e4467966940f3e15f711b485e0c4e6000600a6064811015156117f557fe5b01819055506f4b34c83fb45aa7f02968d3f10c7bf1736000600b60648110151561181b57fe5b01819055506f4b380a61f5a1002253dd42289d3f4eae6000600c60648110151561184157fe5b01819055506f4b39ab80a386e7ea4aa8befbc274a5996000600d60648110151561186757fe5b01819055506f4b3a7c135de075ee193ece3e8ec0de136000600e60648110151561188d57fe5b01819055506f4b3ae45d93e9a0ecb716a961237770f66000600f6064811015156118b357fe5b01819055506f4b3b1882e525a71aafc82b1e629fd4f5600060106064811015156118d957fe5b01819055506f4b3b32959b519153545560036c6f85ac600060116064811015156118ff57fe5b01819055506f4b3b3f9ef9cb0196d145667cf95b88926000601260648110151561192557fe5b01819055506f4b3b4623a9e098ae32898d76368829156000601360648110151561194b57fe5b01819055506f4b3b496602219bfcc6e3c6e7270bab616000601460648110151561197157fe5b01819055506f4b3b4b072e4fab95795f9efc3a14fb8c6000601560648110151561199757fe5b01819055506f4b3b4bd7c46a16de429d50fdc920a2e5600060166064811015156119bd57fe5b01819055506f4b3b4c400f782561c5f99e6e8cc40d75600060176064811015156119e357fe5b01819055506f4b3b4c7434ff62db4faed2a218e2ba6c60006018606481101515611a0957fe5b01819055506f4b3b4c8e47c30f26069626269d2ce29760006019606481101515611a2f57fe5b01819055506f4b3b4c9b5124e8aede8e5d050e398bb16000601a606481101515611a5557fe5b01819055506f4b3b4ca1d5d5d64c29abc793827320756000601b606481101515611a7b57fe5b01819055506f4b3b4ca5182e4d510702d61d917cca2d6000601c606481101515611aa157fe5b01819055506f4b3b4ca6b95a88e103a07462aefce70c6000601d606481101515611ac757fe5b01819055506f4b3b4ca789f0a6ac656bc95b2f53ca656000601e606481101515611aed57fe5b01819055506f4b3b4ca7f23bb592ef30954fa967f1b76000601f606481101515611b1357fe5b01819055506f4b3b4ca826613d066a4ac3a84c9c92d460006020606481101515611b3957fe5b01819055506f4b3b4ca8407400c03565ccec42b792c860006021606481101515611b5f57fe5b01819055506f4b3b4ca84d7d629d1e56ce142844001860006022606481101515611b8557fe5b01819055506f4b3b4ca85402138b93a82dc995d5ca4760006023606481101515611bab57fe5b01819055506f4b3b4ca857446c02ce87156cab570f3e60006024606481101515611bd157fe5b01819055506f4b3b4ca858e5983e6c0417304dc6791660006025606481101515611bf757fe5b01819055506f4b3b4ca859b62e5c3ac5fb8ea4e9f5c660006026606481101515611c1d57fe5b01819055506f4b3b4ca85a1e796b2227c69cf1f6a8cc60006027606481101515611c4357fe5b01819055506f4b3b4ca85a529ef295d8e25be0dbbfd760006028606481101515611c6957fe5b01819055506f4b3b4ca85a6cb1b64fb17dc94a65fac160006029606481101515611c8f57fe5b01819055506f4b3b4ca85a79bb182c9dcee37bb1041a6000602a606481101515611cb557fe5b01819055506f4b3b4ca85a803fc91b13f849737803bf6000602b606481101515611cdb57fe5b01819055506f4b3b4ca85a838221924f0d32a723e24d6000602c606481101515611d0157fe5b01819055506f4b3b4ca85a85234dcdec97b4ceebe93e6000602d606481101515611d2757fe5b01819055506f4b3b4ca85a85f3e3ebbb5cf9464c72a36000602e606481101515611d4d57fe5b01819055506f4b3b4ca85a865c2efaa2bf9c5adbd8d56000602f606481101515611d7357fe5b01819055506f4b3b4ca85a869054821670ee1b5b544b60006030606481101515611d9957fe5b01819055506f4b3b4ca85a86aa6745d049970929041e60006031606481101515611dbf57fe5b01819055506f4b3b4ca85a86b770a7ad35eb8373588860006032606481101515611de557fe5b01819055506f4b3b4ca85a86bdf5589bac15c17161e160006033606481101515611e0b57fe5b01819055506f4b3b4ca85a86c137b112e72ae0a69e5a60006034606481101515611e3157fe5b01819055506f4b3b4ca85a86c2d8dd4e84b5704eca8a60006035606481101515611e5757fe5b01819055506f4b3b4ca85a86c3a9736c537ab826441b60006036606481101515611e7d57fe5b01819055506f4b3b4ca85a86c411be7b3add5c12d9c760006037606481101515611ea357fe5b01819055506f4b3b4ca85a86c445e402ae8eae095acf60006038606481101515611ec957fe5b01819055506f4b3b4ca85a86c45ff6c668675704a8e160006039606481101515611eef57fe5b01819055506f4b3b4ca85a86c46d00284553ab8253506000603a606481101515611f1557fe5b01819055506f4b3b4ca85a86c47384d933c9d5c129636000603b606481101515611f3b57fe5b01819055506f4b3b4ca85a86c476c731ab04eae0949c6000603c606481101515611f6157fe5b01819055506f4b3b4ca85a86c478685de6a275704a456000603d606481101515611f8757fe5b01819055506f4b3b4ca85a86c47938f404713ab825206000603e606481101515611fad57fe5b01819055506f4b3b4ca85a86c479a13f13589d5c12956000603f606481101515611fd357fe5b01819055506f4b3b4ca85a86c479d5649acc4eae094a60006040606481101515611ff957fe5b01819055506f4b3b4ca85a86c479ef775e86275704aa6000604160648110151561201f57fe5b01819055506f4b3b4ca85a86c479fc80c06313ab825a6000604260648110151561204557fe5b01819055506f4b3b4ca85a86c47a0305715189d5c1326000604360648110151561206b57fe5b01819055506f4b3b4ca85a86c47a0647c9c8c4eae09e6000604460648110151561209157fe5b01819055506f4b3b4ca85a86c47a07e8f60462757054600060456064811015156120b757fe5b01819055506f4b3b4ca85a86c47a08b98c22313ab82a600060466064811015156120dd57fe5b01819055506f4b3b4ca85a86c47a0921d731189d5c1a6000604760648110151561210357fe5b01819055506f4b3b4ca85a86c47a0955fcb88c4eae126000604860648110151561212957fe5b01819055506f4b3b4ca85a86c47a09700f7c4627570e6000604960648110151561214f57fe5b01819055506f4b3b4ca85a86c47a097d18de2313ab8c6000604a60648110151561217557fe5b01819055506f4b3b4ca85a86c47a09839d8f1189d5c66000604b60648110151561219b57fe5b01819055506f4b3b4ca85a86c47a0986dfe788c4eae86000604c6064811015156121c157fe5b01819055506f4b3b4ca85a86c47a09888113c46275746000604d6064811015156121e757fe5b01819055506f4b3b4ca85a86c47a098951a9e2313aba6000604e60648110151561220d57fe5b01819055506f4b3b4ca85a86c47a0989b9f4f1189d626000604f60648110151561223357fe5b01819055506f4b3b4ca85a86c47a0989ee1a788c4eb66000605060648110151561225957fe5b01819055506f4b3b4ca85a86c47a098a082d3c4627606000605160648110151561227f57fe5b01819055506f4b3b4ca85a86c47a098a15369e2313b0600060526064811015156122a557fe5b01819055506f4b3b4ca85a86c47a098a1bbb4f1189d8600060536064811015156122cb57fe5b01819055506f4b3b4ca85a86c47a098a1efda788c4ec600060546064811015156122f157fe5b01819055506f4b3b4ca85a86c47a098a209ed3c462766000605560648110151561231757fe5b01819055506f4b3b4ca85a86c47a098a216f69e231406000605660648110151561233d57fe5b01819055506f4b3b4ca85a86c47a098a21d7b4f118a06000605760648110151561236357fe5b01819055506f4b3b4ca85a86c47a098a220bda788c506000605860648110151561238957fe5b01819055506f4b3b4ca85a86c47a098a2225ed3c4628600060596064811015156123af57fe5b01819055506f4b3b4ca85a86c47a098a2232f69e23146000605a6064811015156123d557fe5b01819055506f4b3b4ca85a86c47a098a22397b4f118a6000605b6064811015156123fb57fe5b01819055506f4b3b4ca85a86c47a098a223cbda788ca6000605c60648110151561242157fe5b01819055506f4b3b4ca85a86c47a098a223e5ed3c46a6000605d60648110151561244757fe5b01819055506f4b3b4ca85a86c47a098a223f2f69e23a6000605e60648110151561246d57fe5b01819055506f4b3b4ca85a86c47a098a223f97b4f1226000605f60648110151561249357fe5b01819055506f4b3b4ca85a86c47a098a223fcbda7896600060606064811015156124b957fe5b01819055506f4b3b4ca85a86c47a098a223fe5ed3c50600060616064811015156124df57fe5b01819055506f4b3b4ca85a86c47a098a223ff2f69e286000606260648110151561250557fe5b01819055506f4b3b4ca85a86c47a098a223ff97b4f146000606360648110151561252b57fe5b0181905550565b600080612548838561258d90919063ffffffff16565b9050670de0b6b3a764000061257a6002670de0b6b3a764000081151561256a57fe5b04836125cb90919063ffffffff16565b81151561258357fe5b0491505092915050565b6000808314156125a057600090506125c5565b600082840290508284828115156125b357fe5b041415156125c057600080fd5b809150505b92915050565b60008082840190508381101515156125e257600080fd5b809150509291505056fea165627a7a723058206d56eb879e38d0985aeb52cecab23f9f8e7e768612e7544f84b47c34188fec700029",
  "source": "pragma solidity ^0.5.0;\r\n\r\nimport 'openzeppelin-solidity/contracts/math/SafeMath.sol';\r\ncontract DeciMath {\r\n  using SafeMath for uint;\r\n\r\n  uint constant QUINT = 10**18;\r\n  uint constant ONE_38_ZEROS = 10**38;\r\n\r\n  uint[100] public ith_term;\r\n  uint[100] public powersOfTwo;\r\n\r\n  // 2 DP functions\r\n  function decMul2(uint x, uint y) public pure returns (uint decProduct) {\r\n    uint prod_xy = x.mul(y);\r\n    decProduct = prod_xy.add(100 / 2) / 100;\r\n  }\r\n  function decDiv2(uint x, uint y) public pure returns (uint decQuotient) {\r\n    uint prod_100x = x.mul(100);\r\n    decQuotient = prod_100x.add(y / 2) / y;\r\n  }\r\n\r\n  // 18 DP Functions\r\n  function decMul18(uint x, uint y) public pure returns (uint decProd) {\r\n    uint prod_xy = x.mul(y);\r\n    decProd = prod_xy.add(QUINT / 2) / QUINT;\r\n  }\r\n\r\n  function decMul38(uint x, uint y) public pure returns (uint decProd) {\r\n    uint prod_xy = x.mul(y);\r\n    decProd = prod_xy.add(ONE_38_ZEROS / 2) / ONE_38_ZEROS;\r\n  }\r\n\r\n  function decDiv18(uint x, uint y) public pure returns (uint decQuotient) {\r\n    uint prod_xQuint = x.mul(QUINT);\r\n    decQuotient = prod_xQuint.add(y / 2) / y;\r\n  }\r\n\r\n  //integer base, integer exponent\r\n  function expNoDec(uint x, uint n) public pure returns (uint) {\r\n    if (n == 0)\r\n      return 1;\r\n\r\n    uint y = 1;\r\n\r\n    while (n > 1)\r\n      if (n % 2 == 0) {\r\n        x = x.mul(x);\r\n        n = n / 2;\r\n      } else if (n % 2 != 0) {\r\n        y = x.mul(y);\r\n        x = x.mul(x);\r\n        n = (n - 1)/2;\r\n      }\r\n    return x.mul(y);\r\n  }\r\n\r\n  //2DP base, positive integer exponent n\r\n  function exp2(uint x, uint n) public pure returns (uint) {\r\n    if (n == 0)\r\n      return 100;\r\n\r\n    uint y = 100;\r\n\r\n    while (n > 1)\r\n      if (n % 2 == 0) {\r\n        x = decMul2(x, x);\r\n        n = n / 2;\r\n      } else if (n % 2 != 0) {\r\n        y = decMul2(x, y);\r\n        x = decMul2(x, x);\r\n        n = (n - 1)/2;\r\n      }\r\n    return decMul2(x, y);\r\n  }\r\n\r\n\r\n\r\n  //18DP base, positive integer exponent n\r\n  function exp18(uint base, uint n) public pure returns (uint) {\r\n    if (n == 0)\r\n      return QUINT;\r\n\r\n    uint y = QUINT;\r\n\r\n    while (n > 1)\r\n      if (n % 2 == 0) {\r\n        base = decMul18(base, base);\r\n        n = n / 2;\r\n      } else if (n % 2 != 0) {\r\n        y = decMul18(base, y);\r\n        base = decMul18(base, base);\r\n        n = (n - 1)/2;\r\n      }\r\n    return decMul18(base, y);\r\n  }\r\n\r\n  // e^n for real exponent.\r\n  // Exponent 'n' is  fixed point 18DP, represented by a uint.\r\n  function exp(uint n) public pure returns (uint) {\r\n    uint tolerance = 1;\r\n    uint term = QUINT;\r\n    uint sum = QUINT;\r\n    uint i = 0;\r\n\r\n    while (term > tolerance) { // stop computing terms when smallest term reaches 10^-18 in size\r\n       i += QUINT;\r\n      term = decDiv18( decMul18(term, n), i );\r\n      sum += term;\r\n    }\r\n    return sum;\r\n  }\r\n\r\n  //Lookup Table 1. Called by log2(x) func. Used to grab the 'i'th term in the log2 algorithm.\r\n\r\nfunction setLUT1() public {\r\n// Terms at 38 DP.\r\nith_term[0] =0;\r\nith_term[1] =70710678118654752440084436210484903927;\r\nith_term[2] =84089641525371454303112547623321489504;\r\nith_term[3] =91700404320467123174354159479414442803;\r\nith_term[4] =95760328069857364693630563514791544391;\r\nith_term[5] =97857206208770013450916112581343574558;\r\nith_term[6] =98922801319397548412912495906558366776;\r\nith_term[7] =99459942348363317565247768622216631446;\r\nith_term[8] =99729605608547012625765991384792260110;\r\nith_term[9] =99864711289097017358812131808592040801;\r\nith_term[10] =99932332750265075236028365984373804110;\r\nith_term[11] =99966160649624368394219686876281565555;\r\nith_term[12] =99983078893192906311748078019767389870;\r\nith_term[13] =99991539088661349753372497156418872729;\r\nith_term[14] =99995769454843113254396753730099797523;\r\nith_term[15] =99997884705049192982650067113039327478;\r\nith_term[16] =99998942346931446424221059225315431669;\r\nith_term[17] =99999471172067428300770241277030532524;\r\nith_term[18] =99999735585684139498225234636504270994;\r\nith_term[19] =99999867792754675970531776759801063701;\r\nith_term[20] =99999933896355489526178052900624509793;\r\nith_term[21] =99999966948172282646511738368820575116;\r\nith_term[22] =99999983474084775793885880947314828005;\r\nith_term[23] =99999991737042046514572235133214264693;\r\nith_term[24] =99999995868520937911689915196095249004;\r\nith_term[25] =99999997934260447619445466250978583191;\r\nith_term[26] =99999998967130218475622805194415901617;\r\nith_term[27] =99999999483565107904286413727651274869;\r\nith_term[28] =99999999741782553618761958785587923501;\r\nith_term[29] =99999999870891276726035667265628464908;\r\nith_term[30] =99999999935445638342181505587572099685;\r\nith_term[31] =99999999967722819165881670780794171831;\r\nith_term[32] =99999999983861409581638564886938948308;\r\nith_term[33] =99999999991930704790493714817578668744;\r\nith_term[34] =99999999995965352395165465502313349144;\r\nith_term[35] =99999999997982676197562384774537267783;\r\nith_term[36] =99999999998991338098776105393113730878;\r\nith_term[37] =99999999999495669049386780948018133270;\r\nith_term[38] =99999999999747834524693072536874382790;\r\nith_term[39] =99999999999873917262346456784153520332;\r\nith_term[40] =99999999999936958631173208521005842391;\r\nith_term[41] =99999999999968479315586599292735191745;\r\nith_term[42] =99999999999984239657793298404425663514;\r\nith_term[43] =99999999999992119828896648891727348671;\r\nith_term[44] =99999999999996059914448324368242303565;\r\nith_term[45] =99999999999998029957224162164715809086;\r\nith_term[46] =99999999999999014978612081077506568867;\r\nith_term[47] =99999999999999507489306040537540450517;\r\nith_term[48] =99999999999999753744653020268467016779;\r\nith_term[49] =99999999999999876872326510134157706270;\r\nith_term[50] =99999999999999938436163255067059902600;\r\nith_term[51] =99999999999999969218081627533525213665;\r\nith_term[52] =99999999999999984609040813766761422426;\r\nith_term[53] =99999999999999992304520406883380415114;\r\nith_term[54] =99999999999999996152260203441690133531;\r\nith_term[55] =99999999999999998076130101720845048263;\r\nith_term[56] =99999999999999999038065050860422519503;\r\nith_term[57] =99999999999999999519032525430211258593;\r\nith_term[58] =99999999999999999759516262715105629008;\r\nith_term[59] =99999999999999999879758131357552814435;\r\nith_term[60] =99999999999999999939879065678776407196;\r\nith_term[61] =99999999999999999969939532839388203589;\r\nith_term[62] =99999999999999999984969766419694101792;\r\nith_term[63] =99999999999999999992484883209847050901;\r\nith_term[64] =99999999999999999996242441604923525450;\r\nith_term[65] =99999999999999999998121220802461762730;\r\nith_term[66] =99999999999999999999060610401230881370;\r\nith_term[67] =99999999999999999999530305200615440690;\r\nith_term[68] =99999999999999999999765152600307720350;\r\nith_term[69] =99999999999999999999882576300153860180;\r\nith_term[70] =99999999999999999999941288150076930090;\r\nith_term[71] =99999999999999999999970644075038465050;\r\nith_term[72] =99999999999999999999985322037519232530;\r\nith_term[73] =99999999999999999999992661018759616270;\r\nith_term[74] =99999999999999999999996330509379808140;\r\nith_term[75] =99999999999999999999998165254689904070;\r\nith_term[76] =99999999999999999999999082627344952040;\r\nith_term[77] =99999999999999999999999541313672476020;\r\nith_term[78] =99999999999999999999999770656836238010;\r\nith_term[79] =99999999999999999999999885328418119010;\r\nith_term[80] =99999999999999999999999942664209059510;\r\nith_term[81] =99999999999999999999999971332104529760;\r\nith_term[82] =99999999999999999999999985666052264880;\r\nith_term[83] =99999999999999999999999992833026132440;\r\nith_term[84] =99999999999999999999999996416513066220;\r\nith_term[85] =99999999999999999999999998208256533110;\r\nith_term[86] =99999999999999999999999999104128266560;\r\nith_term[87] =99999999999999999999999999552064133280;\r\nith_term[88] =99999999999999999999999999776032066640;\r\nith_term[89] =99999999999999999999999999888016033320;\r\nith_term[90] =99999999999999999999999999944008016660;\r\nith_term[91] =99999999999999999999999999972004008330;\r\nith_term[92] =99999999999999999999999999986002004170;\r\nith_term[93] =99999999999999999999999999993001002090;\r\nith_term[94] =99999999999999999999999999996500501050;\r\nith_term[95] =99999999999999999999999999998250250530;\r\nith_term[96] =99999999999999999999999999999125125270;\r\nith_term[97] =99999999999999999999999999999562562640;\r\nith_term[98] =99999999999999999999999999999781281320;\r\nith_term[99] =99999999999999999999999999999890640660;\r\n}\r\n\r\nfunction setLUT2() public {\r\n  powersOfTwo[0] = 200000000000000000000000000000000000000;\r\n  powersOfTwo[1] = 50000000000000000000000000000000000000;\r\n  powersOfTwo[2] = 25000000000000000000000000000000000000;\r\n  powersOfTwo[3] = 12500000000000000000000000000000000000;\r\n  powersOfTwo[4] = 6250000000000000000000000000000000000;\r\n  powersOfTwo[5] = 3125000000000000000000000000000000000;\r\n  powersOfTwo[6] = 1562500000000000000000000000000000000;\r\n  powersOfTwo[7] = 781250000000000000000000000000000000;\r\n  powersOfTwo[8] = 390625000000000000000000000000000000;\r\n  powersOfTwo[9] = 195312500000000000000000000000000000;\r\n  powersOfTwo[10] = 97656250000000000000000000000000000;\r\n  powersOfTwo[11] = 48828125000000000000000000000000000;\r\n  powersOfTwo[12] = 24414062500000000000000000000000000;\r\n  powersOfTwo[13] = 12207031250000000000000000000000000;\r\n  powersOfTwo[14] = 6103515625000000000000000000000000;\r\n  powersOfTwo[15] = 3051757812500000000000000000000000;\r\n  powersOfTwo[16] = 1525878906250000000000000000000000;\r\n  powersOfTwo[17] = 762939453125000000000000000000000;\r\n  powersOfTwo[18] = 381469726562500000000000000000000;\r\n  powersOfTwo[19] = 190734863281250000000000000000000;\r\n  powersOfTwo[20] = 95367431640625000000000000000000;\r\n  powersOfTwo[21] = 47683715820312500000000000000000;\r\n  powersOfTwo[22] = 23841857910156250000000000000000;\r\n  powersOfTwo[23] = 11920928955078125000000000000000;\r\n  powersOfTwo[24] = 5960464477539062500000000000000;\r\n  powersOfTwo[25] = 2980232238769531250000000000000;\r\n  powersOfTwo[26] = 1490116119384765625000000000000;\r\n  powersOfTwo[27] = 745058059692382812500000000000;\r\n  powersOfTwo[28] = 372529029846191406250000000000;\r\n  powersOfTwo[29] = 186264514923095703125000000000;\r\n  powersOfTwo[30] = 93132257461547851562500000000;\r\n  powersOfTwo[31] = 46566128730773925781250000000;\r\n  powersOfTwo[32] = 23283064365386962890625000000;\r\n  powersOfTwo[33] = 11641532182693481445312500000;\r\n  powersOfTwo[34] = 5820766091346740722656250000;\r\n  powersOfTwo[35] = 2910383045673370361328125000;\r\n  powersOfTwo[36] = 1455191522836685180664062500;\r\n  powersOfTwo[37] = 727595761418342590332031250;\r\n  powersOfTwo[38] = 363797880709171295166015625;\r\n  powersOfTwo[39] = 181898940354585647583007812;\r\n  powersOfTwo[40] = 90949470177292823791503906;\r\n  powersOfTwo[41] = 45474735088646411895751953;\r\n  powersOfTwo[42] = 22737367544323205947875976;\r\n  powersOfTwo[43] = 11368683772161602973937988;\r\n  powersOfTwo[44] = 5684341886080801486968994;\r\n  powersOfTwo[45] = 2842170943040400743484497;\r\n  powersOfTwo[46] = 1421085471520200371742248;\r\n  powersOfTwo[47] = 710542735760100185871124;\r\n  powersOfTwo[48] = 355271367880050092935562;\r\n  powersOfTwo[49] = 177635683940025046467781;\r\n  powersOfTwo[50] = 88817841970012523233890;\r\n  powersOfTwo[51] = 44408920985006261616945;\r\n  powersOfTwo[52] = 22204460492503130808472;\r\n  powersOfTwo[53] = 11102230246251565404236;\r\n  powersOfTwo[54] = 5551115123125782702118;\r\n  powersOfTwo[55] = 2775557561562891351059;\r\n  powersOfTwo[56] = 1387778780781445675529;\r\n  powersOfTwo[57] = 693889390390722837764;\r\n  powersOfTwo[58] = 346944695195361418882;\r\n  powersOfTwo[59] = 173472347597680709441;\r\n  powersOfTwo[60] = 86736173798840354720;\r\n  powersOfTwo[61] = 43368086899420177360;\r\n  powersOfTwo[62] = 21684043449710088680;\r\n  powersOfTwo[63] = 10842021724855044340;\r\n  powersOfTwo[64] = 5421010862427522170;\r\n  powersOfTwo[65] = 2710505431213761085;\r\n  powersOfTwo[66] = 1355252715606880542;\r\n  powersOfTwo[67] = 677626357803440271;\r\n  powersOfTwo[68] = 338813178901720135;\r\n  powersOfTwo[69] = 169406589450860067;\r\n  powersOfTwo[70] = 84703294725430033;\r\n  powersOfTwo[71] = 42351647362715016;\r\n  powersOfTwo[72] = 21175823681357508;\r\n  powersOfTwo[73] = 10587911840678754;\r\n  powersOfTwo[74] = 5293955920339377;\r\n  powersOfTwo[75] = 2646977960169688;\r\n  powersOfTwo[76] = 1323488980084844;\r\n  powersOfTwo[77] = 661744490042422;\r\n  powersOfTwo[78] = 330872245021211;\r\n  powersOfTwo[79] = 165436122510605;\r\n  powersOfTwo[80] = 82718061255302;\r\n  powersOfTwo[81] = 41359030627651;\r\n  powersOfTwo[82] = 20679515313825;\r\n  powersOfTwo[83] = 10339757656912;\r\n  powersOfTwo[84] = 5169878828456;\r\n  powersOfTwo[85] = 2584939414228;\r\n  powersOfTwo[86] = 1292469707114;\r\n  powersOfTwo[87] = 646234853557;\r\n  powersOfTwo[88] = 323117426778;\r\n  powersOfTwo[89] = 161558713389;\r\n  powersOfTwo[90] = 80779356694;\r\n  powersOfTwo[91] = 40389678347;\r\n  powersOfTwo[92] = 20194839173;\r\n  powersOfTwo[93] = 10097419586;\r\n  powersOfTwo[94] = 5048709793;\r\n  powersOfTwo[95] = 2524354896;\r\n  powersOfTwo[96] = 1262177448;\r\n  powersOfTwo[97] = 631088724;\r\n  powersOfTwo[98] = 315544362;\r\n  powersOfTwo[99] = 157772181;\r\n}\r\n\r\n /// Log functions\r\n // 18DP. x is fixed point 18Dp as uint. i is uint.\r\n // Valid for x in [1,2[\r\n // remember ith_term array is zero-indexed, code accordingly...\r\n\r\n  function log2(uint x, uint accuracy) public view returns (uint) {\r\n    uint prod = x;\r\n    uint newProd = ONE_38_ZEROS;\r\n    uint output = 0;\r\n\r\n    for (uint i = 1; i <= accuracy; i++) {\r\n      newProd = decMul38(ith_term[i], prod);\r\n\r\n      if (newProd >= ONE_38_ZEROS) {\r\n        prod = newProd;\r\n        output += powersOfTwo[i];\r\n      }\r\n    }\r\n    return output;\r\n  }\r\n}\r\n\r\n////// 18DP LUTs:\r\n/*\r\nfunction setLUT1() public {\r\n// Terms at 18 DP.\r\nith_term[0] =2000000000000000000;\r\nith_term[1] =707106781186547524;\r\nith_term[2] =840896415253714543;\r\nith_term[3] =917004043204671232;\r\nith_term[4] =957603280698573647;\r\nith_term[5] =978572062087700135;\r\nith_term[6] =989228013193975484;\r\nith_term[7] =994599423483633176;\r\nith_term[8] =997296056085470126;\r\nith_term[9] =998647112890970174;\r\nith_term[10] =99932332750265075;\r\nith_term[11] =999661606496243684;\r\nith_term[12] =999830788931929063;\r\nith_term[13] =999915390886613498;\r\nith_term[14] =999957694548431133;\r\nith_term[15] =999978847050491930;\r\nith_term[16] =999989423469314464;\r\nith_term[17] =999994711720674283;\r\nith_term[18] =999997355856841395;\r\nith_term[19] =999998677927546760;\r\nith_term[20] =999999338963554895;\r\nith_term[21] =999999669481722826;\r\nith_term[22] =999999834740847758;\r\nith_term[23] =999999917370420465;\r\nith_term[24] =999999958685209379;\r\nith_term[25] =999999979342604476;\r\nith_term[26] =999999989671302184;\r\nith_term[27] =999999994835651079;\r\nith_term[28] =999999997417825536;\r\nith_term[29] =999999998708912767;\r\nith_term[30] =999999999354456383;\r\nith_term[31] =999999999677228192;\r\nith_term[32] =999999999838614096;\r\nith_term[33] =999999999919307048;\r\nith_term[34] =999999999959653524;\r\nith_term[35] =999999999979826762;\r\nith_term[36] =999999999989913381;\r\nith_term[37] =999999999994956691;\r\nith_term[38] =999999999997478345;\r\nith_term[39] =999999999998739173;\r\nith_term[40] =999999999999369586;\r\nith_term[41] =999999999999684793;\r\nith_term[42] =999999999999842397;\r\nith_term[43] =999999999999921198;\r\nith_term[44] =999999999999960599;\r\nith_term[45] =999999999999980230;\r\nith_term[46] =999999999999990150;\r\nith_term[47] =999999999999995075;\r\nith_term[48] =999999999999997538;\r\nith_term[49] =999999999999998769;\r\n ith_term[50] =999999999999999384;\r\n}\r\n\r\nfunction setLUT2() public {\r\npowersOfTwo[0] = 2000000000000000000;\r\npowersOfTwo[1] = 500000000000000000;\r\npowersOfTwo[2] = 250000000000000000;\r\npowersOfTwo[3] = 125000000000000000;\r\npowersOfTwo[4] = 62500000000000000;\r\npowersOfTwo[5] = 31250000000000000;\r\npowersOfTwo[6] = 15625000000000000;\r\npowersOfTwo[7] = 7812500000000000;\r\npowersOfTwo[8] = 3906250000000000;\r\npowersOfTwo[9] = 1953125000000000;\r\npowersOfTwo[10] =976562500000000;\r\npowersOfTwo[11] =488281250000000;\r\npowersOfTwo[12] =244140625000000;\r\npowersOfTwo[13] =122070312500000;\r\npowersOfTwo[14] =61035156250000;\r\npowersOfTwo[15] =30517578125000;\r\npowersOfTwo[16] =15258789062500;\r\npowersOfTwo[17] =7629394531250;\r\npowersOfTwo[18] =3814697265625;\r\npowersOfTwo[19] =1907348632813;\r\npowersOfTwo[20] =953674316406;\r\npowersOfTwo[22] =238418579102;\r\npowersOfTwo[23] =119209289551;\r\npowersOfTwo[24] =59604644775;\r\npowersOfTwo[25] =29802322388;\r\npowersOfTwo[26] =14901161194;\r\npowersOfTwo[27] =7450580597;\r\npowersOfTwo[28] =3725290298;\r\npowersOfTwo[29] =1862645149;\r\npowersOfTwo[30] =931322575;\r\npowersOfTwo[31] =465661287;\r\npowersOfTwo[32] =232830644;\r\npowersOfTwo[33] =116415322;\r\npowersOfTwo[34] =58207661;\r\npowersOfTwo[35] =29103830;\r\npowersOfTwo[36] =14551915;\r\npowersOfTwo[37] =7275958;\r\npowersOfTwo[38] =3637979;\r\npowersOfTwo[39] =1818989;\r\npowersOfTwo[40] =909495;\r\npowersOfTwo[41] =454747;\r\npowersOfTwo[42] =227374;\r\npowersOfTwo[43] =113687;\r\npowersOfTwo[44] =56843;\r\npowersOfTwo[45] =28422;\r\npowersOfTwo[46] =14211;\r\npowersOfTwo[47] =7105;\r\npowersOfTwo[48] =3553;\r\npowersOfTwo[49] =1776;\r\npowersOfTwo[50] =888;\r\npowersOfTwo[51] =444;\r\npowersOfTwo[52] =222;\r\npowersOfTwo[53] =111;\r\npowersOfTwo[54] =56;\r\npowersOfTwo[55] =28;\r\npowersOfTwo[56] =14;\r\npowersOfTwo[57] =7;\r\npowersOfTwo[58] =3;\r\npowersOfTwo[59] =2;\r\npowersOfTwo[60] =1;\r\n} */\r\n\r\n\r\n/* // Max uint256\r\n115792089237316195423570985008687907853269984665640564039457584007913129639936\r\n\r\n//X  - 39 DP\r\n999999999999999999999999999999999999999\r\n// X^2\r\n999999999999999999999999999999999999998000000000000000000000000000000000000001\r\n\r\n//10^78 < 2^256\r\n1000000000000000000000000000000000000000000000000000000000000000000000000000000 */\r\n",
  "sourcePath": "C:\\Users\\Administrator\\Desktop\\Solidity\\DeciMath\\contracts\\DeciMath.sol",
  "compiler": {
    "name": "solc",
    "version": "0.5.0+commit.1d4f565a.Emscripten.clang"
  },
  "schemaVersion": "3.0.2",
  "updatedAt": "2019-03-18T14:46:02.690Z",
  "devdoc": {
    "methods": {}
  },
  "userdoc": {
    "methods": {
      "log2(uint256,uint256)": {
        "notice": "Log functions"
      }
    }
  }
}