{
  "contractName": "DeciMathCaller",
  "abi": [
    {
      "constant": false,
      "inputs": [
        {
          "name": "_decimathAddr",
          "type": "address"
        }
      ],
      "name": "setDeciMath",
      "outputs": [],
      "payable": false,
      "stateMutability": "nonpayable",
      "type": "function",
      "signature": "0xe0bae6c1"
    },
    {
      "constant": false,
      "inputs": [
        {
          "name": "x",
          "type": "uint256"
        },
        {
          "name": "y",
          "type": "uint256"
        }
      ],
      "name": "callDecMul18",
      "outputs": [
        {
          "name": "",
          "type": "uint256"
        }
      ],
      "payable": false,
      "stateMutability": "nonpayable",
      "type": "function",
      "signature": "0xc1a6f2ea"
    },
    {
      "constant": false,
      "inputs": [
        {
          "name": "n",
          "type": "uint256"
        }
      ],
      "name": "callExp",
      "outputs": [
        {
          "name": "",
          "type": "uint256"
        }
      ],
      "payable": false,
      "stateMutability": "nonpayable",
      "type": "function",
      "signature": "0x3a47bea9"
    },
    {
      "constant": false,
      "inputs": [
        {
          "name": "b",
          "type": "uint256"
        },
        {
          "name": "x",
          "type": "uint256"
        }
      ],
      "name": "callExpBySquare18",
      "outputs": [
        {
          "name": "",
          "type": "uint256"
        }
      ],
      "payable": false,
      "stateMutability": "nonpayable",
      "type": "function",
      "signature": "0x530f7132"
    },
    {
      "constant": false,
      "inputs": [
        {
          "name": "n",
          "type": "uint256"
        }
      ],
      "name": "callExpTaylor",
      "outputs": [
        {
          "name": "",
          "type": "uint256"
        }
      ],
      "payable": false,
      "stateMutability": "nonpayable",
      "type": "function",
      "signature": "0x935dcbca"
    },
    {
      "constant": false,
      "inputs": [
        {
          "name": "x",
          "type": "uint256"
        },
        {
          "name": "n",
          "type": "uint256"
        }
      ],
      "name": "callExp18",
      "outputs": [
        {
          "name": "",
          "type": "uint256"
        }
      ],
      "payable": false,
      "stateMutability": "nonpayable",
      "type": "function",
      "signature": "0x5528a22f"
    },
    {
      "constant": false,
      "inputs": [
        {
          "name": "x",
          "type": "uint256"
        },
        {
          "name": "accuracy",
          "type": "uint256"
        }
      ],
      "name": "callLog2",
      "outputs": [
        {
          "name": "",
          "type": "uint256"
        }
      ],
      "payable": false,
      "stateMutability": "nonpayable",
      "type": "function",
      "signature": "0x11f2a675"
    },
    {
      "constant": false,
      "inputs": [
        {
          "name": "x",
          "type": "uint256"
        },
        {
          "name": "accuracy",
          "type": "uint256"
        }
      ],
      "name": "callLn",
      "outputs": [
        {
          "name": "",
          "type": "uint256"
        }
      ],
      "payable": false,
      "stateMutability": "nonpayable",
      "type": "function",
      "signature": "0xfa385126"
    },
    {
      "constant": false,
      "inputs": [
        {
          "name": "x",
          "type": "uint256"
        }
      ],
      "name": "callTwoX",
      "outputs": [
        {
          "name": "",
          "type": "uint256"
        }
      ],
      "payable": false,
      "stateMutability": "nonpayable",
      "type": "function",
      "signature": "0x5c685d10"
    },
    {
      "constant": false,
      "inputs": [
        {
          "name": "base",
          "type": "uint256"
        },
        {
          "name": "x",
          "type": "uint256"
        }
      ],
      "name": "callPow",
      "outputs": [
        {
          "name": "",
          "type": "uint256"
        }
      ],
      "payable": false,
      "stateMutability": "nonpayable",
      "type": "function",
      "signature": "0x55ee781b"
    }
  ],
  "bytecode": "0x608060405234801561001057600080fd5b50610bfb806100206000396000f3fe6080604052600436106100a4576000357c0100000000000000000000000000000000000000000000000000000000900463ffffffff16806311f2a675146100a95780633a47bea914610102578063530f7132146101515780635528a22f146101aa57806355ee781b146102035780635c685d101461025c578063935dcbca146102ab578063c1a6f2ea146102fa578063e0bae6c114610353578063fa385126146103a4575b600080fd5b3480156100b557600080fd5b506100ec600480360360408110156100cc57600080fd5b8101908080359060200190929190803590602001909291905050506103fd565b6040518082815260200191505060405180910390f35b34801561010e57600080fd5b5061013b6004803603602081101561012557600080fd5b81019080803590602001909291905050506104d7565b6040518082815260200191505060405180910390f35b34801561015d57600080fd5b506101946004803603604081101561017457600080fd5b8101908080359060200190929190803590602001909291905050506105a8565b6040518082815260200191505060405180910390f35b3480156101b657600080fd5b506101ed600480360360408110156101cd57600080fd5b810190808035906020019092919080359060200190929190505050610682565b6040518082815260200191505060405180910390f35b34801561020f57600080fd5b506102466004803603604081101561022657600080fd5b81019080803590602001909291908035906020019092919050505061075c565b6040518082815260200191505060405180910390f35b34801561026857600080fd5b506102956004803603602081101561027f57600080fd5b8101908080359060200190929190505050610836565b6040518082815260200191505060405180910390f35b3480156102b757600080fd5b506102e4600480360360208110156102ce57600080fd5b8101908080359060200190929190505050610907565b6040518082815260200191505060405180910390f35b34801561030657600080fd5b5061033d6004803603604081101561031d57600080fd5b8101908080359060200190929190803590602001909291905050506109d8565b6040518082815260200191505060405180910390f35b34801561035f57600080fd5b506103a26004803603602081101561037657600080fd5b81019080803573ffffffffffffffffffffffffffffffffffffffff169060200190929190505050610ab2565b005b3480156103b057600080fd5b506103e7600480360360408110156103c757600080fd5b810190808035906020019092919080359060200190929190505050610af5565b6040518082815260200191505060405180910390f35b60008060009054906101000a900473ffffffffffffffffffffffffffffffffffffffff1673ffffffffffffffffffffffffffffffffffffffff166378b9a1f384846040518363ffffffff167c0100000000000000000000000000000000000000000000000000000000028152600401808381526020018281526020019250505060206040518083038186803b15801561049557600080fd5b505afa1580156104a9573d6000803e3d6000fd5b505050506040513d60208110156104bf57600080fd5b81019080805190602001909291905050505092915050565b60008060009054906101000a900473ffffffffffffffffffffffffffffffffffffffff1673ffffffffffffffffffffffffffffffffffffffff1663b581fbe3836040518263ffffffff167c01000000000000000000000000000000000000000000000000000000000281526004018082815260200191505060206040518083038186803b15801561056757600080fd5b505afa15801561057b573d6000803e3d6000fd5b505050506040513d602081101561059157600080fd5b810190808051906020019092919050505050919050565b60008060009054906101000a900473ffffffffffffffffffffffffffffffffffffffff1673ffffffffffffffffffffffffffffffffffffffff16635dceada584846040518363ffffffff167c0100000000000000000000000000000000000000000000000000000000028152600401808381526020018281526020019250505060206040518083038186803b15801561064057600080fd5b505afa158015610654573d6000803e3d6000fd5b505050506040513d602081101561066a57600080fd5b81019080805190602001909291905050505092915050565b60008060009054906101000a900473ffffffffffffffffffffffffffffffffffffffff1673ffffffffffffffffffffffffffffffffffffffff16635dceada584846040518363ffffffff167c0100000000000000000000000000000000000000000000000000000000028152600401808381526020018281526020019250505060206040518083038186803b15801561071a57600080fd5b505afa15801561072e573d6000803e3d6000fd5b505050506040513d602081101561074457600080fd5b81019080805190602001909291905050505092915050565b60008060009054906101000a900473ffffffffffffffffffffffffffffffffffffffff1673ffffffffffffffffffffffffffffffffffffffff16632e4c697f84846040518363ffffffff167c0100000000000000000000000000000000000000000000000000000000028152600401808381526020018281526020019250505060206040518083038186803b1580156107f457600080fd5b505afa158015610808573d6000803e3d6000fd5b505050506040513d602081101561081e57600080fd5b81019080805190602001909291905050505092915050565b60008060009054906101000a900473ffffffffffffffffffffffffffffffffffffffff1673ffffffffffffffffffffffffffffffffffffffff1663d8e9acc0836040518263ffffffff167c01000000000000000000000000000000000000000000000000000000000281526004018082815260200191505060206040518083038186803b1580156108c657600080fd5b505afa1580156108da573d6000803e3d6000fd5b505050506040513d60208110156108f057600080fd5b810190808051906020019092919050505050919050565b60008060009054906101000a900473ffffffffffffffffffffffffffffffffffffffff1673ffffffffffffffffffffffffffffffffffffffff16631ea97975836040518263ffffffff167c01000000000000000000000000000000000000000000000000000000000281526004018082815260200191505060206040518083038186803b15801561099757600080fd5b505afa1580156109ab573d6000803e3d6000fd5b505050506040513d60208110156109c157600080fd5b810190808051906020019092919050505050919050565b60008060009054906101000a900473ffffffffffffffffffffffffffffffffffffffff1673ffffffffffffffffffffffffffffffffffffffff1663f7523c5284846040518363ffffffff167c0100000000000000000000000000000000000000000000000000000000028152600401808381526020018281526020019250505060206040518083038186803b158015610a7057600080fd5b505afa158015610a84573d6000803e3d6000fd5b505050506040513d6020811015610a9a57600080fd5b81019080805190602001909291905050505092915050565b806000806101000a81548173ffffffffffffffffffffffffffffffffffffffff021916908373ffffffffffffffffffffffffffffffffffffffff16021790555050565b60008060009054906101000a900473ffffffffffffffffffffffffffffffffffffffff1673ffffffffffffffffffffffffffffffffffffffff166344f7787f84846040518363ffffffff167c0100000000000000000000000000000000000000000000000000000000028152600401808381526020018281526020019250505060206040518083038186803b158015610b8d57600080fd5b505afa158015610ba1573d6000803e3d6000fd5b505050506040513d6020811015610bb757600080fd5b8101908080519060200190929190505050509291505056fea165627a7a723058209ec331cd6dcafac06e9a7080070910ddce66cff512da2a6c63d6ce5ee3093df20029",
  "source": "pragma solidity ^0.5.0;\r\nimport './DeciMath.sol';\r\n\r\n// Proxy contract, used in tests to call DeciMath funcs.\r\n// Allows us to calculate actual gas used in DeciMath 'view' functions.\r\n// Local calls to view functions use 0 gas, so to check gas we call them as part of a transaction, via this proxy contract.\r\n\r\n// Example usage:\r\n// An EOA sends tx to DeciMathCaller.callExp(n), which in turn calls exp(n) on deployed DeciMath instance.\r\n// As the latter func is called within a tx, it uses gas.\r\n\r\ncontract DeciMathCaller {\r\n  DeciMath decimath;\r\n\r\n  function setDeciMath(address _decimathAddr) public {\r\n    decimath = DeciMath(_decimathAddr);\r\n  }\r\n\r\n  function callDecMul18(uint x, uint y) public returns (uint) {\r\n    decimath.decMul18(x, y);\r\n  }\r\n  \r\n  function callExp(uint n) public returns (uint) {\r\n    decimath.exp(n);\r\n  }\r\n\r\n  function callExpBySquare18(uint b, uint x) public returns (uint) {\r\n    decimath.expBySquare18(b, x);\r\n  }\r\n\r\n  function callExpTaylor(uint n) public returns (uint) {\r\n    decimath.exp_taylor(n);\r\n  }\r\n\r\n  function callExp18(uint x, uint n) public returns (uint) {\r\n    decimath.expBySquare18(x, n);\r\n  }\r\n\r\n  function callLog2(uint x, uint accuracy) public returns (uint) {\r\n    decimath.log2(x, accuracy);\r\n  }\r\n\r\n  function callLn(uint x, uint accuracy) public returns (uint) {\r\n    decimath.ln(x, accuracy);\r\n  }\r\n\r\n  function callTwoX(uint x) public returns (uint) {\r\n    decimath.two_x(x);\r\n  }\r\n\r\n  function callPow(uint base, uint x) public returns (uint) {\r\n    decimath.pow(base, x);\r\n  }\r\n}\r\n",
  "sourcePath": "C:/Users/Administrator/Desktop/Solidity/DeciMath/contracts/DeciMathCaller.sol",
  "compiler": {
    "name": "solc",
    "version": "0.5.0+commit.1d4f565a.Emscripten.clang"
  },
  "schemaVersion": "3.0.6",
  "updatedAt": "2019-04-16T21:22:51.465Z",
  "devdoc": {
    "methods": {}
  },
  "userdoc": {
    "methods": {}
  }
}