{
  "contractName": "DeciMath",
  "abi": [
    {
      "constant": true,
      "inputs": [
        {
          "name": "",
          "type": "uint256"
        }
      ],
      "name": "powersOfTwo",
      "outputs": [
        {
          "name": "",
          "type": "uint256"
        }
      ],
      "payable": false,
      "stateMutability": "view",
      "type": "function",
      "signature": "0x26fd647a"
    },
    {
      "constant": true,
      "inputs": [
        {
          "name": "",
          "type": "uint256"
        }
      ],
      "name": "ith_term",
      "outputs": [
        {
          "name": "",
          "type": "uint256"
        }
      ],
      "payable": false,
      "stateMutability": "view",
      "type": "function",
      "signature": "0xbefc3839"
    },
    {
      "constant": true,
      "inputs": [
        {
          "name": "x",
          "type": "uint256"
        },
        {
          "name": "y",
          "type": "uint256"
        }
      ],
      "name": "decMul2",
      "outputs": [
        {
          "name": "decProduct",
          "type": "uint256"
        }
      ],
      "payable": false,
      "stateMutability": "pure",
      "type": "function",
      "signature": "0x94bcbc8d"
    },
    {
      "constant": true,
      "inputs": [
        {
          "name": "x",
          "type": "uint256"
        },
        {
          "name": "y",
          "type": "uint256"
        }
      ],
      "name": "decDiv2",
      "outputs": [
        {
          "name": "decQuotient",
          "type": "uint256"
        }
      ],
      "payable": false,
      "stateMutability": "pure",
      "type": "function",
      "signature": "0x4016e201"
    },
    {
      "constant": true,
      "inputs": [
        {
          "name": "x",
          "type": "uint256"
        },
        {
          "name": "y",
          "type": "uint256"
        }
      ],
      "name": "decMul18",
      "outputs": [
        {
          "name": "decProd",
          "type": "uint256"
        }
      ],
      "payable": false,
      "stateMutability": "pure",
      "type": "function",
      "signature": "0xf7523c52"
    },
    {
      "constant": true,
      "inputs": [
        {
          "name": "x",
          "type": "uint256"
        },
        {
          "name": "y",
          "type": "uint256"
        }
      ],
      "name": "decMul38",
      "outputs": [
        {
          "name": "decProd",
          "type": "uint256"
        }
      ],
      "payable": false,
      "stateMutability": "pure",
      "type": "function",
      "signature": "0x6172f467"
    },
    {
      "constant": true,
      "inputs": [
        {
          "name": "x",
          "type": "uint256"
        },
        {
          "name": "y",
          "type": "uint256"
        }
      ],
      "name": "decDiv18",
      "outputs": [
        {
          "name": "decQuotient",
          "type": "uint256"
        }
      ],
      "payable": false,
      "stateMutability": "pure",
      "type": "function",
      "signature": "0x64ce07d8"
    },
    {
      "constant": true,
      "inputs": [
        {
          "name": "x",
          "type": "uint256"
        }
      ],
      "name": "convertTo18DP",
      "outputs": [
        {
          "name": "y",
          "type": "uint256"
        }
      ],
      "payable": false,
      "stateMutability": "pure",
      "type": "function",
      "signature": "0x70577334"
    },
    {
      "constant": true,
      "inputs": [
        {
          "name": "x",
          "type": "uint256"
        },
        {
          "name": "n",
          "type": "uint256"
        }
      ],
      "name": "expNoDec",
      "outputs": [
        {
          "name": "",
          "type": "uint256"
        }
      ],
      "payable": false,
      "stateMutability": "pure",
      "type": "function",
      "signature": "0xe26b78e8"
    },
    {
      "constant": true,
      "inputs": [
        {
          "name": "x",
          "type": "uint256"
        },
        {
          "name": "n",
          "type": "uint256"
        }
      ],
      "name": "exp2",
      "outputs": [
        {
          "name": "",
          "type": "uint256"
        }
      ],
      "payable": false,
      "stateMutability": "pure",
      "type": "function",
      "signature": "0x1953d556"
    },
    {
      "constant": true,
      "inputs": [
        {
          "name": "base",
          "type": "uint256"
        },
        {
          "name": "n",
          "type": "uint256"
        }
      ],
      "name": "exp18",
      "outputs": [
        {
          "name": "",
          "type": "uint256"
        }
      ],
      "payable": false,
      "stateMutability": "pure",
      "type": "function",
      "signature": "0x72749dca"
    },
    {
      "constant": true,
      "inputs": [
        {
          "name": "n",
          "type": "uint256"
        }
      ],
      "name": "exp",
      "outputs": [
        {
          "name": "",
          "type": "uint256"
        }
      ],
      "payable": false,
      "stateMutability": "pure",
      "type": "function",
      "signature": "0xb581fbe3"
    },
    {
      "constant": false,
      "inputs": [],
      "name": "setLUT1",
      "outputs": [],
      "payable": false,
      "stateMutability": "nonpayable",
      "type": "function",
      "signature": "0xe5ac5717"
    },
    {
      "constant": false,
      "inputs": [],
      "name": "setLUT2",
      "outputs": [],
      "payable": false,
      "stateMutability": "nonpayable",
      "type": "function",
      "signature": "0xa463a087"
    },
    {
      "constant": true,
      "inputs": [
        {
          "name": "x",
          "type": "uint256"
        },
        {
          "name": "accuracy",
          "type": "uint256"
        }
      ],
      "name": "log2",
      "outputs": [
        {
          "name": "",
          "type": "uint256"
        }
      ],
      "payable": false,
      "stateMutability": "view",
      "type": "function",
      "signature": "0x78b9a1f3"
    }
  ],
  "bytecode": "0x608060405234801561001057600080fd5b506127fb806100206000396000f3fe6080604052600436106100db576000357c0100000000000000000000000000000000000000000000000000000000900463ffffffff1680631953d556146100e057806326fd647a146101395780634016e201146101885780636172f467146101e157806364ce07d81461023a578063705773341461029357806372749dca146102e257806378b9a1f31461033b57806394bcbc8d14610394578063a463a087146103ed578063b581fbe314610404578063befc383914610453578063e26b78e8146104a2578063e5ac5717146104fb578063f7523c5214610512575b600080fd5b3480156100ec57600080fd5b506101236004803603604081101561010357600080fd5b81019080803590602001909291908035906020019092919050505061056b565b6040518082815260200191505060405180910390f35b34801561014557600080fd5b506101726004803603602081101561015c57600080fd5b810190808035906020019092919050505061061e565b6040518082815260200191505060405180910390f35b34801561019457600080fd5b506101cb600480360360408110156101ab57600080fd5b810190808035906020019092919080359060200190929190505050610638565b6040518082815260200191505060405180910390f35b3480156101ed57600080fd5b506102246004803603604081101561020457600080fd5b810190808035906020019092919080359060200190929190505050610684565b6040518082815260200191505060405180910390f35b34801561024657600080fd5b5061027d6004803603604081101561025d57600080fd5b8101908080359060200190929190803590602001909291905050506106ef565b6040518082815260200191505060405180910390f35b34801561029f57600080fd5b506102cc600480360360208110156102b657600080fd5b8101908080359060200190929190505050610742565b6040518082815260200191505060405180910390f35b3480156102ee57600080fd5b506103256004803603604081101561030557600080fd5b8101908080359060200190929190803590602001909291905050506107d1565b6040518082815260200191505060405180910390f35b34801561034757600080fd5b5061037e6004803603604081101561035e57600080fd5b810190808035906020019092919080359060200190929190505050610892565b6040518082815260200191505060405180910390f35b3480156103a057600080fd5b506103d7600480360360408110156103b757600080fd5b8101908080359060200190929190803590602001909291905050506109fa565b6040518082815260200191505060405180910390f35b3480156103f957600080fd5b50610402610a3b565b005b34801561041057600080fd5b5061043d6004803603602081101561042757600080fd5b81019080803590602001909291905050506116c9565b6040518082815260200191505060405180910390f35b34801561045f57600080fd5b5061048c6004803603602081101561047657600080fd5b8101908080359060200190929190505050611730565b6040518082815260200191505060405180910390f35b3480156104ae57600080fd5b506104e5600480360360408110156104c557600080fd5b81019080803590602001909291908035906020019092919050505061174a565b6040518082815260200191505060405180910390f35b34801561050757600080fd5b50610510611821565b005b34801561051e57600080fd5b506105556004803603604081101561053557600080fd5b8101908080359060200190929190803590602001909291905050506126eb565b6040518082815260200191505060405180910390f35b60008082141561057e5760649050610618565b6000606490505b600183111561060a57600060028481151561059c57fe5b0614156105c3576105ad84856109fa565b93506002838115156105bb57fe5b049250610605565b60006002848115156105d157fe5b06141515610604576105e384826109fa565b90506105ef84856109fa565b935060026001840381151561060057fe5b0492505b5b610585565b61061484826109fa565b9150505b92915050565b60648160648110151561062d57fe5b016000915090505481565b60008061064f60648561274690919063ffffffff16565b90508261067160028581151561066157fe5b048361278490919063ffffffff16565b81151561067a57fe5b0491505092915050565b60008061069a838561274690919063ffffffff16565b90506f4b3b4ca85a86c47a098a2240000000006106dc60026f4b3b4ca85a86c47a098a2240000000008115156106cc57fe5b048361278490919063ffffffff16565b8115156106e557fe5b0491505092915050565b60008061070d670de0b6b3a76400008561274690919063ffffffff16565b90508261072f60028581151561071f57fe5b048361278490919063ffffffff16565b81151561073857fe5b0491505092915050565b600080678ac7230489e8000068056bc75e2d631000008481151561076257fe5b0681151561076c57fe5b049050600581101561079b5761079468056bc75e2d63100000846127a590919063ffffffff16565b91506107c8565b6005811015156107c75760016107c368056bc75e2d63100000856127a590919063ffffffff16565b0191505b5b81915050919050565b6000808214156107eb57670de0b6b3a7640000905061088c565b6000670de0b6b3a764000090505b600183111561087e57600060028481151561081057fe5b0614156108375761082184856126eb565b935060028381151561082f57fe5b049250610879565b600060028481151561084557fe5b061415156108785761085784826126eb565b905061086384856126eb565b935060026001840381151561087457fe5b0492505b5b6107f9565b61088884826126eb565b9150505b92915050565b6000670de0b6b3a764000083101580156108b65750670de0b6b3a764000060020283105b1515610950576040517f08c379a00000000000000000000000000000000000000000000000000000000081526004018080602001828103825260228152602001807f696e7075742078206d7573742062652077697468696e2072616e6765205b312c81526020017f325b00000000000000000000000000000000000000000000000000000000000081525060400191505060405180910390fd5b600068056bc75e2d631000008402905060006f4b3b4ca85a86c47a098a224000000000905060008090506000600190505b85811115156109e5576109a460008260648110151561099c57fe5b015485610684565b92506f4b3b4ca85a86c47a098a224000000000831015156109d8578293506064816064811015156109d157fe5b0154820191505b8080600101915050610981565b506109ef81610742565b935050505092915050565b600080610a10838561274690919063ffffffff16565b90506064610a2860328361278490919063ffffffff16565b811515610a3157fe5b0491505092915050565b6f96769950b50d88f4131444800000000060646000606481101515610a5c57fe5b01819055506f259da6542d43623d04c511200000000060646001606481101515610a8257fe5b01819055506f12ced32a16a1b11e826288900000000060646002606481101515610aa857fe5b01819055506f096769950b50d88f413144480000000060646003606481101515610ace57fe5b01819055506f04b3b4ca85a86c47a098a2240000000060646004606481101515610af457fe5b01819055506f0259da6542d43623d04c51120000000060646005606481101515610b1a57fe5b01819055506f012ced32a16a1b11e82628890000000060646006606481101515610b4057fe5b01819055506e96769950b50d88f41314448000000060646007606481101515610b6557fe5b01819055506e4b3b4ca85a86c47a098a224000000060646008606481101515610b8a57fe5b01819055506e259da6542d43623d04c5112000000060646009606481101515610baf57fe5b01819055506e12ced32a16a1b11e826288900000006064600a606481101515610bd457fe5b01819055506e096769950b50d88f413144480000006064600b606481101515610bf957fe5b01819055506e04b3b4ca85a86c47a098a2240000006064600c606481101515610c1e57fe5b01819055506e0259da6542d43623d04c51120000006064600d606481101515610c4357fe5b01819055506e012ced32a16a1b11e82628890000006064600e606481101515610c6857fe5b01819055506d96769950b50d88f41314448000006064600f606481101515610c8c57fe5b01819055506d4b3b4ca85a86c47a098a2240000060646010606481101515610cb057fe5b01819055506d259da6542d43623d04c51120000060646011606481101515610cd457fe5b01819055506d12ced32a16a1b11e82628890000060646012606481101515610cf857fe5b01819055506d096769950b50d88f41314448000060646013606481101515610d1c57fe5b01819055506d04b3b4ca85a86c47a098a224000060646014606481101515610d4057fe5b01819055506d0259da6542d43623d04c5112000060646015606481101515610d6457fe5b01819055506d012ced32a16a1b11e8262889000060646016606481101515610d8857fe5b01819055506c96769950b50d88f4131444800060646017606481101515610dab57fe5b01819055506c4b3b4ca85a86c47a098a22400060646018606481101515610dce57fe5b01819055506c259da6542d43623d04c511200060646019606481101515610df157fe5b01819055506c12ced32a16a1b11e82628890006064601a606481101515610e1457fe5b01819055506c096769950b50d88f41314448006064601b606481101515610e3757fe5b01819055506c04b3b4ca85a86c47a098a224006064601c606481101515610e5a57fe5b01819055506c0259da6542d43623d04c5112006064601d606481101515610e7d57fe5b01819055506c012ced32a16a1b11e8262889006064601e606481101515610ea057fe5b01819055506b96769950b50d88f4131444806064601f606481101515610ec257fe5b01819055506b4b3b4ca85a86c47a098a224060646020606481101515610ee457fe5b01819055506b259da6542d43623d04c5112060646021606481101515610f0657fe5b01819055506b12ced32a16a1b11e8262889060646022606481101515610f2857fe5b01819055506b096769950b50d88f4131444860646023606481101515610f4a57fe5b01819055506b04b3b4ca85a86c47a098a22460646024606481101515610f6c57fe5b01819055506b0259da6542d43623d04c511260646025606481101515610f8e57fe5b01819055506b012ced32a16a1b11e826288960646026606481101515610fb057fe5b01819055506a96769950b50d88f413144460646027606481101515610fd157fe5b01819055506a4b3b4ca85a86c47a098a2260646028606481101515610ff257fe5b01819055506a259da6542d43623d04c5116064602960648110151561101357fe5b01819055506a12ced32a16a1b11e8262886064602a60648110151561103457fe5b01819055506a096769950b50d88f4131446064602b60648110151561105557fe5b01819055506a04b3b4ca85a86c47a098a26064602c60648110151561107657fe5b01819055506a0259da6542d43623d04c516064602d60648110151561109757fe5b01819055506a012ced32a16a1b11e826286064602e6064811015156110b857fe5b01819055506996769950b50d88f413146064602f6064811015156110d857fe5b0181905550694b3b4ca85a86c47a098a606460306064811015156110f857fe5b018190555069259da6542d43623d04c56064603160648110151561111857fe5b01819055506912ced32a16a1b11e82626064603260648110151561113857fe5b018190555069096769950b50d88f41316064603360648110151561115857fe5b01819055506904b3b4ca85a86c47a0986064603460648110151561117857fe5b0181905550690259da6542d43623d04c6064603560648110151561119857fe5b018190555069012ced32a16a1b11e826606460366064811015156111b857fe5b01819055506896769950b50d88f413606460376064811015156111d757fe5b0181905550684b3b4ca85a86c47a09606460386064811015156111f657fe5b018190555068259da6542d43623d046064603960648110151561121557fe5b01819055506812ced32a16a1b11e826064603a60648110151561123457fe5b018190555068096769950b50d88f416064603b60648110151561125357fe5b01819055506804b3b4ca85a86c47a06064603c60648110151561127257fe5b0181905550680259da6542d43623d06064603d60648110151561129157fe5b018190555068012ced32a16a1b11e86064603e6064811015156112b057fe5b01819055506796769950b50d88f46064603f6064811015156112ce57fe5b0181905550674b3b4ca85a86c47a606460406064811015156112ec57fe5b018190555067259da6542d43623d6064604160648110151561130a57fe5b01819055506712ced32a16a1b11e6064604260648110151561132857fe5b018190555067096769950b50d88f6064604360648110151561134657fe5b01819055506704b3b4ca85a86c476064604460648110151561136457fe5b0181905550670259da6542d436236064604560648110151561138257fe5b018190555067012ced32a16a1b11606460466064811015156113a057fe5b01819055506696769950b50d88606460476064811015156113bd57fe5b0181905550664b3b4ca85a86c4606460486064811015156113da57fe5b018190555066259da6542d4362606460496064811015156113f757fe5b01819055506612ced32a16a1b16064604a60648110151561141457fe5b018190555066096769950b50d86064604b60648110151561143157fe5b01819055506604b3b4ca85a86c6064604c60648110151561144e57fe5b0181905550660259da6542d4366064604d60648110151561146b57fe5b018190555066012ced32a16a1b6064604e60648110151561148857fe5b01819055506596769950b50d6064604f6064811015156114a457fe5b0181905550654b3b4ca85a86606460506064811015156114c057fe5b018190555065259da6542d43606460516064811015156114dc57fe5b01819055506512ced32a16a1606460526064811015156114f857fe5b018190555065096769950b506064605360648110151561151457fe5b01819055506504b3b4ca85a86064605460648110151561153057fe5b0181905550650259da6542d46064605560648110151561154c57fe5b018190555065012ced32a16a6064605660648110151561156857fe5b01819055506496769950b56064605760648110151561158357fe5b0181905550644b3b4ca85a6064605860648110151561159e57fe5b018190555064259da6542d606460596064811015156115b957fe5b01819055506412ced32a166064605a6064811015156115d457fe5b018190555064096769950b6064605b6064811015156115ef57fe5b01819055506404b3b4ca856064605c60648110151561160a57fe5b0181905550640259da65426064605d60648110151561162557fe5b018190555064012ced32a16064605e60648110151561164057fe5b018190555063967699506064605f60648110151561165a57fe5b0181905550634b3b4ca86064606060648110151561167457fe5b018190555063259da6546064606160648110151561168e57fe5b01819055506312ced32a606460626064811015156116a857fe5b01819055506309676995606460636064811015156116c257fe5b0181905550565b600080600190506000670de0b6b3a764000090506000670de0b6b3a7640000905060008090505b8383111561172457670de0b6b3a76400008101905061171861171284886126eb565b826106ef565b925082820191506116f0565b81945050505050919050565b60008160648110151561173f57fe5b016000915090505481565b60008082141561175d576001905061181b565b6000600190505b600183111561180457600060028481151561177b57fe5b0614156117ab57611795848561274690919063ffffffff16565b93506002838115156117a357fe5b0492506117ff565b60006002848115156117b957fe5b061415156117fe576117d4818561274690919063ffffffff16565b90506117e9848561274690919063ffffffff16565b93506002600184038115156117fa57fe5b0492505b5b611764565b611817818561274690919063ffffffff16565b9150505b92915050565b600080600060648110151561183257fe5b01819055506f35326198caa4cf0398dd2df4a401fff76000600160648110151561185857fe5b01819055506f3f43136bbc1145a3d84ccd8fde8050606000600260648110151561187e57fe5b01819055506f44fcdaff61cc4ceae78af7acfc2dcb33600060036064811015156118a457fe5b01819055506f480ac4b15dff81588c37988631acc647600060046064811015156118ca57fe5b01819055506f499e9cc45b22529d4b6abaa6c727fa1e600060056064811015156118f057fe5b01819055506f4a6bd6a98878b7e749bca36139d8d4386000600660648110151561191657fe5b01819055506f4ad349c2776ffca447fac2991089d4966000600760648110151561193c57fe5b01819055506f4b07392f52b5c840e2f500a685315e0e6000600860648110151561196257fe5b01819055506f4b213e68c12287618b384447416493616000600960648110151561198857fe5b01819055506f4b2e4467966940f3e15f711b485e0c4e6000600a6064811015156119ae57fe5b01819055506f4b34c83fb45aa7f02968d3f10c7bf1736000600b6064811015156119d457fe5b01819055506f4b380a61f5a1002253dd42289d3f4eae6000600c6064811015156119fa57fe5b01819055506f4b39ab80a386e7ea4aa8befbc274a5996000600d606481101515611a2057fe5b01819055506f4b3a7c135de075ee193ece3e8ec0de136000600e606481101515611a4657fe5b01819055506f4b3ae45d93e9a0ecb716a961237770f66000600f606481101515611a6c57fe5b01819055506f4b3b1882e525a71aafc82b1e629fd4f560006010606481101515611a9257fe5b01819055506f4b3b32959b519153545560036c6f85ac60006011606481101515611ab857fe5b01819055506f4b3b3f9ef9cb0196d145667cf95b889260006012606481101515611ade57fe5b01819055506f4b3b4623a9e098ae32898d763688291560006013606481101515611b0457fe5b01819055506f4b3b496602219bfcc6e3c6e7270bab6160006014606481101515611b2a57fe5b01819055506f4b3b4b072e4fab95795f9efc3a14fb8c60006015606481101515611b5057fe5b01819055506f4b3b4bd7c46a16de429d50fdc920a2e560006016606481101515611b7657fe5b01819055506f4b3b4c400f782561c5f99e6e8cc40d7560006017606481101515611b9c57fe5b01819055506f4b3b4c7434ff62db4faed2a218e2ba6c60006018606481101515611bc257fe5b01819055506f4b3b4c8e47c30f26069626269d2ce29760006019606481101515611be857fe5b01819055506f4b3b4c9b5124e8aede8e5d050e398bb16000601a606481101515611c0e57fe5b01819055506f4b3b4ca1d5d5d64c29abc793827320756000601b606481101515611c3457fe5b01819055506f4b3b4ca5182e4d510702d61d917cca2d6000601c606481101515611c5a57fe5b01819055506f4b3b4ca6b95a88e103a07462aefce70c6000601d606481101515611c8057fe5b01819055506f4b3b4ca789f0a6ac656bc95b2f53ca656000601e606481101515611ca657fe5b01819055506f4b3b4ca7f23bb592ef30954fa967f1b76000601f606481101515611ccc57fe5b01819055506f4b3b4ca826613d066a4ac3a84c9c92d460006020606481101515611cf257fe5b01819055506f4b3b4ca8407400c03565ccec42b792c860006021606481101515611d1857fe5b01819055506f4b3b4ca84d7d629d1e56ce142844001860006022606481101515611d3e57fe5b01819055506f4b3b4ca85402138b93a82dc995d5ca4760006023606481101515611d6457fe5b01819055506f4b3b4ca857446c02ce87156cab570f3e60006024606481101515611d8a57fe5b01819055506f4b3b4ca858e5983e6c0417304dc6791660006025606481101515611db057fe5b01819055506f4b3b4ca859b62e5c3ac5fb8ea4e9f5c660006026606481101515611dd657fe5b01819055506f4b3b4ca85a1e796b2227c69cf1f6a8cc60006027606481101515611dfc57fe5b01819055506f4b3b4ca85a529ef295d8e25be0dbbfd760006028606481101515611e2257fe5b01819055506f4b3b4ca85a6cb1b64fb17dc94a65fac160006029606481101515611e4857fe5b01819055506f4b3b4ca85a79bb182c9dcee37bb1041a6000602a606481101515611e6e57fe5b01819055506f4b3b4ca85a803fc91b13f849737803bf6000602b606481101515611e9457fe5b01819055506f4b3b4ca85a838221924f0d32a723e24d6000602c606481101515611eba57fe5b01819055506f4b3b4ca85a85234dcdec97b4ceebe93e6000602d606481101515611ee057fe5b01819055506f4b3b4ca85a85f3e3ebbb5cf9464c72a36000602e606481101515611f0657fe5b01819055506f4b3b4ca85a865c2efaa2bf9c5adbd8d56000602f606481101515611f2c57fe5b01819055506f4b3b4ca85a869054821670ee1b5b544b60006030606481101515611f5257fe5b01819055506f4b3b4ca85a86aa6745d049970929041e60006031606481101515611f7857fe5b01819055506f4b3b4ca85a86b770a7ad35eb8373588860006032606481101515611f9e57fe5b01819055506f4b3b4ca85a86bdf5589bac15c17161e160006033606481101515611fc457fe5b01819055506f4b3b4ca85a86c137b112e72ae0a69e5a60006034606481101515611fea57fe5b01819055506f4b3b4ca85a86c2d8dd4e84b5704eca8a6000603560648110151561201057fe5b01819055506f4b3b4ca85a86c3a9736c537ab826441b6000603660648110151561203657fe5b01819055506f4b3b4ca85a86c411be7b3add5c12d9c76000603760648110151561205c57fe5b01819055506f4b3b4ca85a86c445e402ae8eae095acf6000603860648110151561208257fe5b01819055506f4b3b4ca85a86c45ff6c668675704a8e1600060396064811015156120a857fe5b01819055506f4b3b4ca85a86c46d00284553ab8253506000603a6064811015156120ce57fe5b01819055506f4b3b4ca85a86c47384d933c9d5c129636000603b6064811015156120f457fe5b01819055506f4b3b4ca85a86c476c731ab04eae0949c6000603c60648110151561211a57fe5b01819055506f4b3b4ca85a86c478685de6a275704a456000603d60648110151561214057fe5b01819055506f4b3b4ca85a86c47938f404713ab825206000603e60648110151561216657fe5b01819055506f4b3b4ca85a86c479a13f13589d5c12956000603f60648110151561218c57fe5b01819055506f4b3b4ca85a86c479d5649acc4eae094a600060406064811015156121b257fe5b01819055506f4b3b4ca85a86c479ef775e86275704aa600060416064811015156121d857fe5b01819055506f4b3b4ca85a86c479fc80c06313ab825a600060426064811015156121fe57fe5b01819055506f4b3b4ca85a86c47a0305715189d5c1326000604360648110151561222457fe5b01819055506f4b3b4ca85a86c47a0647c9c8c4eae09e6000604460648110151561224a57fe5b01819055506f4b3b4ca85a86c47a07e8f604627570546000604560648110151561227057fe5b01819055506f4b3b4ca85a86c47a08b98c22313ab82a6000604660648110151561229657fe5b01819055506f4b3b4ca85a86c47a0921d731189d5c1a600060476064811015156122bc57fe5b01819055506f4b3b4ca85a86c47a0955fcb88c4eae12600060486064811015156122e257fe5b01819055506f4b3b4ca85a86c47a09700f7c4627570e6000604960648110151561230857fe5b01819055506f4b3b4ca85a86c47a097d18de2313ab8c6000604a60648110151561232e57fe5b01819055506f4b3b4ca85a86c47a09839d8f1189d5c66000604b60648110151561235457fe5b01819055506f4b3b4ca85a86c47a0986dfe788c4eae86000604c60648110151561237a57fe5b01819055506f4b3b4ca85a86c47a09888113c46275746000604d6064811015156123a057fe5b01819055506f4b3b4ca85a86c47a098951a9e2313aba6000604e6064811015156123c657fe5b01819055506f4b3b4ca85a86c47a0989b9f4f1189d626000604f6064811015156123ec57fe5b01819055506f4b3b4ca85a86c47a0989ee1a788c4eb66000605060648110151561241257fe5b01819055506f4b3b4ca85a86c47a098a082d3c4627606000605160648110151561243857fe5b01819055506f4b3b4ca85a86c47a098a15369e2313b06000605260648110151561245e57fe5b01819055506f4b3b4ca85a86c47a098a1bbb4f1189d86000605360648110151561248457fe5b01819055506f4b3b4ca85a86c47a098a1efda788c4ec600060546064811015156124aa57fe5b01819055506f4b3b4ca85a86c47a098a209ed3c46276600060556064811015156124d057fe5b01819055506f4b3b4ca85a86c47a098a216f69e23140600060566064811015156124f657fe5b01819055506f4b3b4ca85a86c47a098a21d7b4f118a06000605760648110151561251c57fe5b01819055506f4b3b4ca85a86c47a098a220bda788c506000605860648110151561254257fe5b01819055506f4b3b4ca85a86c47a098a2225ed3c46286000605960648110151561256857fe5b01819055506f4b3b4ca85a86c47a098a2232f69e23146000605a60648110151561258e57fe5b01819055506f4b3b4ca85a86c47a098a22397b4f118a6000605b6064811015156125b457fe5b01819055506f4b3b4ca85a86c47a098a223cbda788ca6000605c6064811015156125da57fe5b01819055506f4b3b4ca85a86c47a098a223e5ed3c46a6000605d60648110151561260057fe5b01819055506f4b3b4ca85a86c47a098a223f2f69e23a6000605e60648110151561262657fe5b01819055506f4b3b4ca85a86c47a098a223f97b4f1226000605f60648110151561264c57fe5b01819055506f4b3b4ca85a86c47a098a223fcbda78966000606060648110151561267257fe5b01819055506f4b3b4ca85a86c47a098a223fe5ed3c506000606160648110151561269857fe5b01819055506f4b3b4ca85a86c47a098a223ff2f69e28600060626064811015156126be57fe5b01819055506f4b3b4ca85a86c47a098a223ff97b4f14600060636064811015156126e457fe5b0181905550565b600080612701838561274690919063ffffffff16565b9050670de0b6b3a76400006127336002670de0b6b3a764000081151561272357fe5b048361278490919063ffffffff16565b81151561273c57fe5b0491505092915050565b600080831415612759576000905061277e565b6000828402905082848281151561276c57fe5b0414151561277957600080fd5b809150505b92915050565b600080828401905083811015151561279b57600080fd5b8091505092915050565b600080821115156127b557600080fd5b600082848115156127c257fe5b049050809150509291505056fea165627a7a72305820038830faceaf829f822382202107586fa90306c7720249bce65172506e295f490029",
  "source": "pragma solidity ^0.5.0;\r\n\r\nimport 'openzeppelin-solidity/contracts/math/SafeMath.sol';\r\ncontract DeciMath {\r\n  using SafeMath for uint;\r\n\r\n  uint constant QUINT = 10**18;\r\n  uint constant ONE_38_ZEROS = 10**38;\r\n  uint constant TEN20 = 10**20;\r\n  uint constant TEN19 = 10**19;\r\n\r\n  uint[100] public ith_term;\r\n  uint[100] public powersOfTwo;\r\n\r\n  // 2 DP functions\r\n  function decMul2(uint x, uint y) public pure returns (uint decProduct) {\r\n    uint prod_xy = x.mul(y);\r\n    decProduct = prod_xy.add(100 / 2) / 100;\r\n  }\r\n  function decDiv2(uint x, uint y) public pure returns (uint decQuotient) {\r\n    uint prod_100x = x.mul(100);\r\n    decQuotient = prod_100x.add(y / 2) / y;\r\n  }\r\n\r\n  // 18 DP Functions\r\n  function decMul18(uint x, uint y) public pure returns (uint decProd) {\r\n    uint prod_xy = x.mul(y);\r\n    decProd = prod_xy.add(QUINT / 2) / QUINT;\r\n  }\r\n\r\n  function decMul38(uint x, uint y) public pure returns (uint decProd) {\r\n    uint prod_xy = x.mul(y);\r\n    decProd = prod_xy.add(ONE_38_ZEROS / 2) / ONE_38_ZEROS;\r\n  }\r\n\r\n  function decDiv18(uint x, uint y) public pure returns (uint decQuotient) {\r\n    uint prod_xQuint = x.mul(QUINT);\r\n    decQuotient = prod_xQuint.add(y / 2) / y;\r\n  }\r\n\r\n  // rounds a 38DP decimal to a 18DP decimal\r\n   function convertTo18DP(uint x) public pure returns ( uint y ) {\r\n    // Use modulus and floor division to grab the 20th digit from-the-right\r\n    uint digit = ( x % TEN20 ) / TEN19;\r\n\r\n     if ( digit < 5 ) {\r\n       // round down - chop off last 20 digits with floor div\r\n      y = x.div(TEN20);\r\n\r\n      } else if ( digit >= 5 ) {\r\n        // round up - chop off last 20 digits, and increment the 18th digit by one\r\n        y = x.div(TEN20) + 1;\r\n      }\r\n      return y;\r\n    }\r\n\r\n    //integer base, integer exponent\r\n    function expNoDec(uint x, uint n) public pure returns (uint) {\r\n      if (n == 0)\r\n      return 1;\r\n\r\n      uint y = 1;\r\n\r\n      while (n > 1)\r\n      if (n % 2 == 0) {\r\n        x = x.mul(x);\r\n        n = n / 2;\r\n        } else if (n % 2 != 0) {\r\n          y = x.mul(y);\r\n          x = x.mul(x);\r\n          n = (n - 1)/2;\r\n        }\r\n        return x.mul(y);\r\n      }\r\n\r\n      //2DP base, positive integer exponent n\r\n      function exp2(uint x, uint n) public pure returns (uint) {\r\n        if (n == 0)\r\n        return 100;\r\n\r\n        uint y = 100;\r\n\r\n        while (n > 1)\r\n        if (n % 2 == 0) {\r\n          x = decMul2(x, x);\r\n          n = n / 2;\r\n          } else if (n % 2 != 0) {\r\n            y = decMul2(x, y);\r\n            x = decMul2(x, x);\r\n            n = (n - 1)/2;\r\n          }\r\n          return decMul2(x, y);\r\n        }\r\n\r\n\r\n\r\n        //18DP base, positive integer exponent n\r\n        function exp18(uint base, uint n) public pure returns (uint) {\r\n          if (n == 0)\r\n          return QUINT;\r\n\r\n          uint y = QUINT;\r\n\r\n          while (n > 1)\r\n          if (n % 2 == 0) {\r\n            base = decMul18(base, base);\r\n            n = n / 2;\r\n            } else if (n % 2 != 0) {\r\n              y = decMul18(base, y);\r\n              base = decMul18(base, base);\r\n              n = (n - 1)/2;\r\n            }\r\n            return decMul18(base, y);\r\n          }\r\n\r\n          // e^n for real exponent.\r\n          // Exponent 'n' is  fixed point 18DP, represented by a uint.\r\n          function exp(uint n) public pure returns (uint) {\r\n            uint tolerance = 1;\r\n            uint term = QUINT;\r\n            uint sum = QUINT;\r\n            uint i = 0;\r\n\r\n            while (term > tolerance) { // stop computing terms when smallest term reaches 10^-18 in size\r\n              i += QUINT;\r\n              term = decDiv18( decMul18(term, n), i );\r\n              sum += term;\r\n            }\r\n            return sum;\r\n          }\r\n\r\n          //Lookup Table 1. Called by log2(x) func. Used to grab the 'i'th term in the log2 algorithm.\r\n\r\n          function setLUT1() public {\r\n            // Terms at 38 DP.\r\n            ith_term[0] =0;\r\n            ith_term[1] =70710678118654752440084436210484903927;\r\n            ith_term[2] =84089641525371454303112547623321489504;\r\n            ith_term[3] =91700404320467123174354159479414442803;\r\n            ith_term[4] =95760328069857364693630563514791544391;\r\n            ith_term[5] =97857206208770013450916112581343574558;\r\n            ith_term[6] =98922801319397548412912495906558366776;\r\n            ith_term[7] =99459942348363317565247768622216631446;\r\n            ith_term[8] =99729605608547012625765991384792260110;\r\n            ith_term[9] =99864711289097017358812131808592040801;\r\n            ith_term[10] =99932332750265075236028365984373804110;\r\n            ith_term[11] =99966160649624368394219686876281565555;\r\n            ith_term[12] =99983078893192906311748078019767389870;\r\n            ith_term[13] =99991539088661349753372497156418872729;\r\n            ith_term[14] =99995769454843113254396753730099797523;\r\n            ith_term[15] =99997884705049192982650067113039327478;\r\n            ith_term[16] =99998942346931446424221059225315431669;\r\n            ith_term[17] =99999471172067428300770241277030532524;\r\n            ith_term[18] =99999735585684139498225234636504270994;\r\n            ith_term[19] =99999867792754675970531776759801063701;\r\n            ith_term[20] =99999933896355489526178052900624509793;\r\n            ith_term[21] =99999966948172282646511738368820575116;\r\n            ith_term[22] =99999983474084775793885880947314828005;\r\n            ith_term[23] =99999991737042046514572235133214264693;\r\n            ith_term[24] =99999995868520937911689915196095249004;\r\n            ith_term[25] =99999997934260447619445466250978583191;\r\n            ith_term[26] =99999998967130218475622805194415901617;\r\n            ith_term[27] =99999999483565107904286413727651274869;\r\n            ith_term[28] =99999999741782553618761958785587923501;\r\n            ith_term[29] =99999999870891276726035667265628464908;\r\n            ith_term[30] =99999999935445638342181505587572099685;\r\n            ith_term[31] =99999999967722819165881670780794171831;\r\n            ith_term[32] =99999999983861409581638564886938948308;\r\n            ith_term[33] =99999999991930704790493714817578668744;\r\n            ith_term[34] =99999999995965352395165465502313349144;\r\n            ith_term[35] =99999999997982676197562384774537267783;\r\n            ith_term[36] =99999999998991338098776105393113730878;\r\n            ith_term[37] =99999999999495669049386780948018133270;\r\n            ith_term[38] =99999999999747834524693072536874382790;\r\n            ith_term[39] =99999999999873917262346456784153520332;\r\n            ith_term[40] =99999999999936958631173208521005842391;\r\n            ith_term[41] =99999999999968479315586599292735191745;\r\n            ith_term[42] =99999999999984239657793298404425663514;\r\n            ith_term[43] =99999999999992119828896648891727348671;\r\n            ith_term[44] =99999999999996059914448324368242303565;\r\n            ith_term[45] =99999999999998029957224162164715809086;\r\n            ith_term[46] =99999999999999014978612081077506568867;\r\n            ith_term[47] =99999999999999507489306040537540450517;\r\n            ith_term[48] =99999999999999753744653020268467016779;\r\n            ith_term[49] =99999999999999876872326510134157706270;\r\n            ith_term[50] =99999999999999938436163255067059902600;\r\n            ith_term[51] =99999999999999969218081627533525213665;\r\n            ith_term[52] =99999999999999984609040813766761422426;\r\n            ith_term[53] =99999999999999992304520406883380415114;\r\n            ith_term[54] =99999999999999996152260203441690133531;\r\n            ith_term[55] =99999999999999998076130101720845048263;\r\n            ith_term[56] =99999999999999999038065050860422519503;\r\n            ith_term[57] =99999999999999999519032525430211258593;\r\n            ith_term[58] =99999999999999999759516262715105629008;\r\n            ith_term[59] =99999999999999999879758131357552814435;\r\n            ith_term[60] =99999999999999999939879065678776407196;\r\n            ith_term[61] =99999999999999999969939532839388203589;\r\n            ith_term[62] =99999999999999999984969766419694101792;\r\n            ith_term[63] =99999999999999999992484883209847050901;\r\n            ith_term[64] =99999999999999999996242441604923525450;\r\n            ith_term[65] =99999999999999999998121220802461762730;\r\n            ith_term[66] =99999999999999999999060610401230881370;\r\n            ith_term[67] =99999999999999999999530305200615440690;\r\n            ith_term[68] =99999999999999999999765152600307720350;\r\n            ith_term[69] =99999999999999999999882576300153860180;\r\n            ith_term[70] =99999999999999999999941288150076930090;\r\n            ith_term[71] =99999999999999999999970644075038465050;\r\n            ith_term[72] =99999999999999999999985322037519232530;\r\n            ith_term[73] =99999999999999999999992661018759616270;\r\n            ith_term[74] =99999999999999999999996330509379808140;\r\n            ith_term[75] =99999999999999999999998165254689904070;\r\n            ith_term[76] =99999999999999999999999082627344952040;\r\n            ith_term[77] =99999999999999999999999541313672476020;\r\n            ith_term[78] =99999999999999999999999770656836238010;\r\n            ith_term[79] =99999999999999999999999885328418119010;\r\n            ith_term[80] =99999999999999999999999942664209059510;\r\n            ith_term[81] =99999999999999999999999971332104529760;\r\n            ith_term[82] =99999999999999999999999985666052264880;\r\n            ith_term[83] =99999999999999999999999992833026132440;\r\n            ith_term[84] =99999999999999999999999996416513066220;\r\n            ith_term[85] =99999999999999999999999998208256533110;\r\n            ith_term[86] =99999999999999999999999999104128266560;\r\n            ith_term[87] =99999999999999999999999999552064133280;\r\n            ith_term[88] =99999999999999999999999999776032066640;\r\n            ith_term[89] =99999999999999999999999999888016033320;\r\n            ith_term[90] =99999999999999999999999999944008016660;\r\n            ith_term[91] =99999999999999999999999999972004008330;\r\n            ith_term[92] =99999999999999999999999999986002004170;\r\n            ith_term[93] =99999999999999999999999999993001002090;\r\n            ith_term[94] =99999999999999999999999999996500501050;\r\n            ith_term[95] =99999999999999999999999999998250250530;\r\n            ith_term[96] =99999999999999999999999999999125125270;\r\n            ith_term[97] =99999999999999999999999999999562562640;\r\n            ith_term[98] =99999999999999999999999999999781281320;\r\n            ith_term[99] =99999999999999999999999999999890640660;\r\n          }\r\n\r\n          function setLUT2() public {\r\n            powersOfTwo[0] = 200000000000000000000000000000000000000;\r\n            powersOfTwo[1] = 50000000000000000000000000000000000000;\r\n            powersOfTwo[2] = 25000000000000000000000000000000000000;\r\n            powersOfTwo[3] = 12500000000000000000000000000000000000;\r\n            powersOfTwo[4] = 6250000000000000000000000000000000000;\r\n            powersOfTwo[5] = 3125000000000000000000000000000000000;\r\n            powersOfTwo[6] = 1562500000000000000000000000000000000;\r\n            powersOfTwo[7] = 781250000000000000000000000000000000;\r\n            powersOfTwo[8] = 390625000000000000000000000000000000;\r\n            powersOfTwo[9] = 195312500000000000000000000000000000;\r\n            powersOfTwo[10] = 97656250000000000000000000000000000;\r\n            powersOfTwo[11] = 48828125000000000000000000000000000;\r\n            powersOfTwo[12] = 24414062500000000000000000000000000;\r\n            powersOfTwo[13] = 12207031250000000000000000000000000;\r\n            powersOfTwo[14] = 6103515625000000000000000000000000;\r\n            powersOfTwo[15] = 3051757812500000000000000000000000;\r\n            powersOfTwo[16] = 1525878906250000000000000000000000;\r\n            powersOfTwo[17] = 762939453125000000000000000000000;\r\n            powersOfTwo[18] = 381469726562500000000000000000000;\r\n            powersOfTwo[19] = 190734863281250000000000000000000;\r\n            powersOfTwo[20] = 95367431640625000000000000000000;\r\n            powersOfTwo[21] = 47683715820312500000000000000000;\r\n            powersOfTwo[22] = 23841857910156250000000000000000;\r\n            powersOfTwo[23] = 11920928955078125000000000000000;\r\n            powersOfTwo[24] = 5960464477539062500000000000000;\r\n            powersOfTwo[25] = 2980232238769531250000000000000;\r\n            powersOfTwo[26] = 1490116119384765625000000000000;\r\n            powersOfTwo[27] = 745058059692382812500000000000;\r\n            powersOfTwo[28] = 372529029846191406250000000000;\r\n            powersOfTwo[29] = 186264514923095703125000000000;\r\n            powersOfTwo[30] = 93132257461547851562500000000;\r\n            powersOfTwo[31] = 46566128730773925781250000000;\r\n            powersOfTwo[32] = 23283064365386962890625000000;\r\n            powersOfTwo[33] = 11641532182693481445312500000;\r\n            powersOfTwo[34] = 5820766091346740722656250000;\r\n            powersOfTwo[35] = 2910383045673370361328125000;\r\n            powersOfTwo[36] = 1455191522836685180664062500;\r\n            powersOfTwo[37] = 727595761418342590332031250;\r\n            powersOfTwo[38] = 363797880709171295166015625;\r\n            powersOfTwo[39] = 181898940354585647583007812;\r\n            powersOfTwo[40] = 90949470177292823791503906;\r\n            powersOfTwo[41] = 45474735088646411895751953;\r\n            powersOfTwo[42] = 22737367544323205947875976;\r\n            powersOfTwo[43] = 11368683772161602973937988;\r\n            powersOfTwo[44] = 5684341886080801486968994;\r\n            powersOfTwo[45] = 2842170943040400743484497;\r\n            powersOfTwo[46] = 1421085471520200371742248;\r\n            powersOfTwo[47] = 710542735760100185871124;\r\n            powersOfTwo[48] = 355271367880050092935562;\r\n            powersOfTwo[49] = 177635683940025046467781;\r\n            powersOfTwo[50] = 88817841970012523233890;\r\n            powersOfTwo[51] = 44408920985006261616945;\r\n            powersOfTwo[52] = 22204460492503130808472;\r\n            powersOfTwo[53] = 11102230246251565404236;\r\n            powersOfTwo[54] = 5551115123125782702118;\r\n            powersOfTwo[55] = 2775557561562891351059;\r\n            powersOfTwo[56] = 1387778780781445675529;\r\n            powersOfTwo[57] = 693889390390722837764;\r\n            powersOfTwo[58] = 346944695195361418882;\r\n            powersOfTwo[59] = 173472347597680709441;\r\n            powersOfTwo[60] = 86736173798840354720;\r\n            powersOfTwo[61] = 43368086899420177360;\r\n            powersOfTwo[62] = 21684043449710088680;\r\n            powersOfTwo[63] = 10842021724855044340;\r\n            powersOfTwo[64] = 5421010862427522170;\r\n            powersOfTwo[65] = 2710505431213761085;\r\n            powersOfTwo[66] = 1355252715606880542;\r\n            powersOfTwo[67] = 677626357803440271;\r\n            powersOfTwo[68] = 338813178901720135;\r\n            powersOfTwo[69] = 169406589450860067;\r\n            powersOfTwo[70] = 84703294725430033;\r\n            powersOfTwo[71] = 42351647362715016;\r\n            powersOfTwo[72] = 21175823681357508;\r\n            powersOfTwo[73] = 10587911840678754;\r\n            powersOfTwo[74] = 5293955920339377;\r\n            powersOfTwo[75] = 2646977960169688;\r\n            powersOfTwo[76] = 1323488980084844;\r\n            powersOfTwo[77] = 661744490042422;\r\n            powersOfTwo[78] = 330872245021211;\r\n            powersOfTwo[79] = 165436122510605;\r\n            powersOfTwo[80] = 82718061255302;\r\n            powersOfTwo[81] = 41359030627651;\r\n            powersOfTwo[82] = 20679515313825;\r\n            powersOfTwo[83] = 10339757656912;\r\n            powersOfTwo[84] = 5169878828456;\r\n            powersOfTwo[85] = 2584939414228;\r\n            powersOfTwo[86] = 1292469707114;\r\n            powersOfTwo[87] = 646234853557;\r\n            powersOfTwo[88] = 323117426778;\r\n            powersOfTwo[89] = 161558713389;\r\n            powersOfTwo[90] = 80779356694;\r\n            powersOfTwo[91] = 40389678347;\r\n            powersOfTwo[92] = 20194839173;\r\n            powersOfTwo[93] = 10097419586;\r\n            powersOfTwo[94] = 5048709793;\r\n            powersOfTwo[95] = 2524354896;\r\n            powersOfTwo[96] = 1262177448;\r\n            powersOfTwo[97] = 631088724;\r\n            powersOfTwo[98] = 315544362;\r\n            powersOfTwo[99] = 157772181;\r\n          }\r\n\r\n          /// Log functions\r\n          // 18DP. x is fixed point 18Dp as uint. i is uint.\r\n          // Takes an\r\n          // Valid for x in [1,2[\r\n          // remember ith_term array is zero-indexed, code accordingly...\r\n\r\n          function log2(uint x, uint accuracy) public view returns (uint) {\r\n            require(x >= QUINT && x < 2 * QUINT, 'input x must be within range [1,2[');\r\n            uint prod = x * TEN20;\r\n            uint newProd = ONE_38_ZEROS;\r\n            uint output = 0;\r\n\r\n            for (uint i = 1; i <= accuracy; i++) {\r\n              newProd = decMul38(ith_term[i], prod);\r\n\r\n              if (newProd >= ONE_38_ZEROS) {\r\n                prod = newProd;\r\n                output += powersOfTwo[i];\r\n              }\r\n            }\r\n            return convertTo18DP(output);\r\n          }\r\n        }\r\n\r\n        /* // Max uint256\r\n        115792089237316195423570985008687907853269984665640564039457584007913129639936\r\n\r\n        //X  - 39 DP\r\n        999999999999999999999999999999999999999\r\n        // X^2\r\n        999999999999999999999999999999999999998000000000000000000000000000000000000001\r\n\r\n        //10^78 < 2^256\r\n        1000000000000000000000000000000000000000000000000000000000000000000000000000000 */\r\n",
  "sourcePath": "C:\\Users\\Administrator\\Desktop\\Solidity\\DeciMath\\contracts\\DeciMath.sol",
  "compiler": {
    "name": "solc",
    "version": "0.5.0+commit.1d4f565a.Emscripten.clang"
  },
  "schemaVersion": "3.0.2",
  "updatedAt": "2019-03-19T21:17:29.029Z",
  "devdoc": {
    "methods": {}
  },
  "userdoc": {
    "methods": {
      "log2(uint256,uint256)": {
        "notice": "Log functions"
      }
    }
  }
}