{
  "contractName": "DeciMathCaller",
  "abi": [
    {
      "constant": false,
      "inputs": [
        {
          "name": "_decimathAddr",
          "type": "address"
        }
      ],
      "name": "setDeciMath",
      "outputs": [],
      "payable": false,
      "stateMutability": "nonpayable",
      "type": "function",
      "signature": "0xe0bae6c1"
    },
    {
      "constant": false,
      "inputs": [
        {
          "name": "x",
          "type": "uint256"
        },
        {
          "name": "y",
          "type": "uint256"
        }
      ],
      "name": "callDecMul18",
      "outputs": [
        {
          "name": "",
          "type": "uint256"
        }
      ],
      "payable": false,
      "stateMutability": "nonpayable",
      "type": "function",
      "signature": "0xc1a6f2ea"
    },
    {
      "constant": false,
      "inputs": [
        {
          "name": "n",
          "type": "uint256"
        }
      ],
      "name": "callExp",
      "outputs": [
        {
          "name": "",
          "type": "uint256"
        }
      ],
      "payable": false,
      "stateMutability": "nonpayable",
      "type": "function",
      "signature": "0x3a47bea9"
    },
    {
      "constant": false,
      "inputs": [
        {
          "name": "b",
          "type": "uint256"
        },
        {
          "name": "x",
          "type": "uint256"
        }
      ],
      "name": "callExpBySquare18",
      "outputs": [
        {
          "name": "",
          "type": "uint256"
        }
      ],
      "payable": false,
      "stateMutability": "nonpayable",
      "type": "function",
      "signature": "0x530f7132"
    },
    {
      "constant": false,
      "inputs": [
        {
          "name": "b",
          "type": "uint256"
        },
        {
          "name": "x",
          "type": "uint256"
        }
      ],
      "name": "callExpBySquare38",
      "outputs": [
        {
          "name": "",
          "type": "uint256"
        }
      ],
      "payable": false,
      "stateMutability": "nonpayable",
      "type": "function",
      "signature": "0xa53b8943"
    },
    {
      "constant": false,
      "inputs": [
        {
          "name": "n",
          "type": "uint256"
        }
      ],
      "name": "callExpTaylor",
      "outputs": [
        {
          "name": "",
          "type": "uint256"
        }
      ],
      "payable": false,
      "stateMutability": "nonpayable",
      "type": "function",
      "signature": "0x935dcbca"
    },
    {
      "constant": false,
      "inputs": [
        {
          "name": "x",
          "type": "uint256"
        },
        {
          "name": "n",
          "type": "uint256"
        }
      ],
      "name": "callExp18",
      "outputs": [
        {
          "name": "",
          "type": "uint256"
        }
      ],
      "payable": false,
      "stateMutability": "nonpayable",
      "type": "function",
      "signature": "0x5528a22f"
    },
    {
      "constant": false,
      "inputs": [
        {
          "name": "x",
          "type": "uint256"
        },
        {
          "name": "accuracy",
          "type": "uint256"
        }
      ],
      "name": "callLog2",
      "outputs": [
        {
          "name": "",
          "type": "uint256"
        }
      ],
      "payable": false,
      "stateMutability": "nonpayable",
      "type": "function",
      "signature": "0x11f2a675"
    },
    {
      "constant": false,
      "inputs": [
        {
          "name": "x",
          "type": "uint256"
        },
        {
          "name": "accuracy",
          "type": "uint256"
        }
      ],
      "name": "callLn",
      "outputs": [
        {
          "name": "",
          "type": "uint256"
        }
      ],
      "payable": false,
      "stateMutability": "nonpayable",
      "type": "function",
      "signature": "0xfa385126"
    },
    {
      "constant": false,
      "inputs": [
        {
          "name": "x",
          "type": "uint256"
        }
      ],
      "name": "callTwoX",
      "outputs": [
        {
          "name": "",
          "type": "uint256"
        }
      ],
      "payable": false,
      "stateMutability": "nonpayable",
      "type": "function",
      "signature": "0x5c685d10"
    },
    {
      "constant": false,
      "inputs": [
        {
          "name": "base",
          "type": "uint256"
        },
        {
          "name": "x",
          "type": "uint256"
        }
      ],
      "name": "callPow",
      "outputs": [
        {
          "name": "",
          "type": "uint256"
        }
      ],
      "payable": false,
      "stateMutability": "nonpayable",
      "type": "function",
      "signature": "0x55ee781b"
    }
  ],
  "bytecode": "0x608060405234801561001057600080fd5b50610d39806100206000396000f3fe6080604052600436106100af576000357c0100000000000000000000000000000000000000000000000000000000900463ffffffff16806311f2a675146100b45780633a47bea91461010d578063530f71321461015c5780635528a22f146101b557806355ee781b1461020e5780635c685d1014610267578063935dcbca146102b6578063a53b894314610305578063c1a6f2ea1461035e578063e0bae6c1146103b7578063fa38512614610408575b600080fd5b3480156100c057600080fd5b506100f7600480360360408110156100d757600080fd5b810190808035906020019092919080359060200190929190505050610461565b6040518082815260200191505060405180910390f35b34801561011957600080fd5b506101466004803603602081101561013057600080fd5b810190808035906020019092919050505061053b565b6040518082815260200191505060405180910390f35b34801561016857600080fd5b5061019f6004803603604081101561017f57600080fd5b81019080803590602001909291908035906020019092919050505061060c565b6040518082815260200191505060405180910390f35b3480156101c157600080fd5b506101f8600480360360408110156101d857600080fd5b8101908080359060200190929190803590602001909291905050506106e6565b6040518082815260200191505060405180910390f35b34801561021a57600080fd5b506102516004803603604081101561023157600080fd5b8101908080359060200190929190803590602001909291905050506107c0565b6040518082815260200191505060405180910390f35b34801561027357600080fd5b506102a06004803603602081101561028a57600080fd5b810190808035906020019092919050505061089a565b6040518082815260200191505060405180910390f35b3480156102c257600080fd5b506102ef600480360360208110156102d957600080fd5b810190808035906020019092919050505061096b565b6040518082815260200191505060405180910390f35b34801561031157600080fd5b506103486004803603604081101561032857600080fd5b810190808035906020019092919080359060200190929190505050610a3c565b6040518082815260200191505060405180910390f35b34801561036a57600080fd5b506103a16004803603604081101561038157600080fd5b810190808035906020019092919080359060200190929190505050610b16565b6040518082815260200191505060405180910390f35b3480156103c357600080fd5b50610406600480360360208110156103da57600080fd5b81019080803573ffffffffffffffffffffffffffffffffffffffff169060200190929190505050610bf0565b005b34801561041457600080fd5b5061044b6004803603604081101561042b57600080fd5b810190808035906020019092919080359060200190929190505050610c33565b6040518082815260200191505060405180910390f35b60008060009054906101000a900473ffffffffffffffffffffffffffffffffffffffff1673ffffffffffffffffffffffffffffffffffffffff166378b9a1f384846040518363ffffffff167c0100000000000000000000000000000000000000000000000000000000028152600401808381526020018281526020019250505060206040518083038186803b1580156104f957600080fd5b505afa15801561050d573d6000803e3d6000fd5b505050506040513d602081101561052357600080fd5b81019080805190602001909291905050505092915050565b60008060009054906101000a900473ffffffffffffffffffffffffffffffffffffffff1673ffffffffffffffffffffffffffffffffffffffff1663b581fbe3836040518263ffffffff167c01000000000000000000000000000000000000000000000000000000000281526004018082815260200191505060206040518083038186803b1580156105cb57600080fd5b505afa1580156105df573d6000803e3d6000fd5b505050506040513d60208110156105f557600080fd5b810190808051906020019092919050505050919050565b60008060009054906101000a900473ffffffffffffffffffffffffffffffffffffffff1673ffffffffffffffffffffffffffffffffffffffff16635dceada584846040518363ffffffff167c0100000000000000000000000000000000000000000000000000000000028152600401808381526020018281526020019250505060206040518083038186803b1580156106a457600080fd5b505afa1580156106b8573d6000803e3d6000fd5b505050506040513d60208110156106ce57600080fd5b81019080805190602001909291905050505092915050565b60008060009054906101000a900473ffffffffffffffffffffffffffffffffffffffff1673ffffffffffffffffffffffffffffffffffffffff16635dceada584846040518363ffffffff167c0100000000000000000000000000000000000000000000000000000000028152600401808381526020018281526020019250505060206040518083038186803b15801561077e57600080fd5b505afa158015610792573d6000803e3d6000fd5b505050506040513d60208110156107a857600080fd5b81019080805190602001909291905050505092915050565b60008060009054906101000a900473ffffffffffffffffffffffffffffffffffffffff1673ffffffffffffffffffffffffffffffffffffffff16632e4c697f84846040518363ffffffff167c0100000000000000000000000000000000000000000000000000000000028152600401808381526020018281526020019250505060206040518083038186803b15801561085857600080fd5b505afa15801561086c573d6000803e3d6000fd5b505050506040513d602081101561088257600080fd5b81019080805190602001909291905050505092915050565b60008060009054906101000a900473ffffffffffffffffffffffffffffffffffffffff1673ffffffffffffffffffffffffffffffffffffffff1663d8e9acc0836040518263ffffffff167c01000000000000000000000000000000000000000000000000000000000281526004018082815260200191505060206040518083038186803b15801561092a57600080fd5b505afa15801561093e573d6000803e3d6000fd5b505050506040513d602081101561095457600080fd5b810190808051906020019092919050505050919050565b60008060009054906101000a900473ffffffffffffffffffffffffffffffffffffffff1673ffffffffffffffffffffffffffffffffffffffff16631ea97975836040518263ffffffff167c01000000000000000000000000000000000000000000000000000000000281526004018082815260200191505060206040518083038186803b1580156109fb57600080fd5b505afa158015610a0f573d6000803e3d6000fd5b505050506040513d6020811015610a2557600080fd5b810190808051906020019092919050505050919050565b60008060009054906101000a900473ffffffffffffffffffffffffffffffffffffffff1673ffffffffffffffffffffffffffffffffffffffff16632879bc9684846040518363ffffffff167c0100000000000000000000000000000000000000000000000000000000028152600401808381526020018281526020019250505060206040518083038186803b158015610ad457600080fd5b505afa158015610ae8573d6000803e3d6000fd5b505050506040513d6020811015610afe57600080fd5b81019080805190602001909291905050505092915050565b60008060009054906101000a900473ffffffffffffffffffffffffffffffffffffffff1673ffffffffffffffffffffffffffffffffffffffff1663f7523c5284846040518363ffffffff167c0100000000000000000000000000000000000000000000000000000000028152600401808381526020018281526020019250505060206040518083038186803b158015610bae57600080fd5b505afa158015610bc2573d6000803e3d6000fd5b505050506040513d6020811015610bd857600080fd5b81019080805190602001909291905050505092915050565b806000806101000a81548173ffffffffffffffffffffffffffffffffffffffff021916908373ffffffffffffffffffffffffffffffffffffffff16021790555050565b60008060009054906101000a900473ffffffffffffffffffffffffffffffffffffffff1673ffffffffffffffffffffffffffffffffffffffff166344f7787f84846040518363ffffffff167c0100000000000000000000000000000000000000000000000000000000028152600401808381526020018281526020019250505060206040518083038186803b158015610ccb57600080fd5b505afa158015610cdf573d6000803e3d6000fd5b505050506040513d6020811015610cf557600080fd5b8101908080519060200190929190505050509291505056fea165627a7a72305820f89cf6b4fbe5a29b4abe99bff5223856edff6b86c16ba6ce2ba4ec911240d14f0029",
  "source": "pragma solidity ^0.5.0;\r\nimport './DeciMath.sol';\r\n\r\n// Proxy contract, used in tests to call DeciMath funcs.\r\n// Allows us to calculate actual gas used in DeciMath 'view' functions.\r\n// Local calls to view functions use 0 gas, so to check gas we call them as part of a transaction, via this proxy contract.\r\n\r\n// Example usage:\r\n// An EOA sends tx to DeciMathCaller.callExp(n), which in turn calls exp(n) on deployed DeciMath instance.\r\n// As the latter func is called within a tx, it uses gas.\r\n\r\ncontract DeciMathCaller {\r\n  DeciMath decimath;\r\n\r\n  function setDeciMath(address _decimathAddr) public {\r\n    decimath = DeciMath(_decimathAddr);\r\n  }\r\n\r\n  function callDecMul18(uint x, uint y) public returns (uint) {\r\n    decimath.decMul18(x, y);\r\n  }\r\n\r\n  function callExp(uint n) public returns (uint) {\r\n    decimath.exp(n);\r\n  }\r\n\r\n  function callExpBySquare18(uint b, uint x) public returns (uint) {\r\n    decimath.expBySquare18(b, x);\r\n  }\r\n\r\n  function callExpBySquare38(uint b, uint x) public returns (uint) {\r\n    decimath.expBySquare38(b, x);\r\n  }\r\n\r\n  function callExpTaylor(uint n) public returns (uint) {\r\n    decimath.exp_taylor(n);\r\n  }\r\n\r\n  function callExp18(uint x, uint n) public returns (uint) {\r\n    decimath.expBySquare18(x, n);\r\n  }\r\n\r\n  function callLog2(uint x, uint accuracy) public returns (uint) {\r\n    decimath.log2(x, accuracy);\r\n  }\r\n\r\n  function callLn(uint x, uint accuracy) public returns (uint) {\r\n    decimath.ln(x, accuracy);\r\n  }\r\n\r\n  function callTwoX(uint x) public returns (uint) {\r\n    decimath.two_x(x);\r\n  }\r\n\r\n  function callPow(uint base, uint x) public returns (uint) {\r\n    decimath.pow(base, x);\r\n  }\r\n}\r\n",
  "sourcePath": "C:/Users/Administrator/Desktop/Solidity/DeciMath/contracts/DeciMathCaller.sol",
  "compiler": {
    "name": "solc",
    "version": "0.5.0+commit.1d4f565a.Emscripten.clang"
  },
  "schemaVersion": "3.0.6",
  "updatedAt": "2019-04-19T23:43:53.068Z",
  "devdoc": {
    "methods": {}
  },
  "userdoc": {
    "methods": {}
  }
}