{
  "contractName": "DeciMath",
  "abi": [
    {
      "constant": true,
      "inputs": [
        {
          "name": "x",
          "type": "uint256"
        },
        {
          "name": "y",
          "type": "uint256"
        }
      ],
      "name": "decMul2",
      "outputs": [
        {
          "name": "decProduct",
          "type": "uint256"
        }
      ],
      "payable": false,
      "stateMutability": "pure",
      "type": "function",
      "signature": "0x94bcbc8d"
    },
    {
      "constant": true,
      "inputs": [
        {
          "name": "x",
          "type": "uint256"
        },
        {
          "name": "y",
          "type": "uint256"
        }
      ],
      "name": "decDiv2",
      "outputs": [
        {
          "name": "decQuotient",
          "type": "uint256"
        }
      ],
      "payable": false,
      "stateMutability": "pure",
      "type": "function",
      "signature": "0x4016e201"
    },
    {
      "constant": true,
      "inputs": [
        {
          "name": "x",
          "type": "uint256"
        },
        {
          "name": "y",
          "type": "uint256"
        }
      ],
      "name": "decMul18",
      "outputs": [
        {
          "name": "decProd",
          "type": "uint256"
        }
      ],
      "payable": false,
      "stateMutability": "pure",
      "type": "function",
      "signature": "0xf7523c52"
    },
    {
      "constant": true,
      "inputs": [
        {
          "name": "x",
          "type": "uint256"
        },
        {
          "name": "y",
          "type": "uint256"
        }
      ],
      "name": "decDiv18",
      "outputs": [
        {
          "name": "decQuotient",
          "type": "uint256"
        }
      ],
      "payable": false,
      "stateMutability": "pure",
      "type": "function",
      "signature": "0x64ce07d8"
    }
  ],
  "bytecode": "0x608060405234801561001057600080fd5b50610391806100206000396000f3fe608060405260043610610062576000357c0100000000000000000000000000000000000000000000000000000000900463ffffffff1680634016e2011461006757806364ce07d8146100c057806394bcbc8d14610119578063f7523c5214610172575b600080fd5b34801561007357600080fd5b506100aa6004803603604081101561008a57600080fd5b8101908080359060200190929190803590602001909291905050506101cb565b6040518082815260200191505060405180910390f35b3480156100cc57600080fd5b50610103600480360360408110156100e357600080fd5b810190808035906020019092919080359060200190929190505050610217565b6040518082815260200191505060405180910390f35b34801561012557600080fd5b5061015c6004803603604081101561013c57600080fd5b81019080803590602001909291908035906020019092919050505061026a565b6040518082815260200191505060405180910390f35b34801561017e57600080fd5b506101b56004803603604081101561019557600080fd5b8101908080359060200190929190803590602001909291905050506102ab565b6040518082815260200191505060405180910390f35b6000806101e260648561030690919063ffffffff16565b9050826102046002858115156101f457fe5b048361034490919063ffffffff16565b81151561020d57fe5b0491505092915050565b600080610235670de0b6b3a76400008561030690919063ffffffff16565b90508261025760028581151561024757fe5b048361034490919063ffffffff16565b81151561026057fe5b0491505092915050565b600080610280838561030690919063ffffffff16565b9050606461029860328361034490919063ffffffff16565b8115156102a157fe5b0491505092915050565b6000806102c1838561030690919063ffffffff16565b9050670de0b6b3a76400006102f36002670de0b6b3a76400008115156102e357fe5b048361034490919063ffffffff16565b8115156102fc57fe5b0491505092915050565b600080831415610319576000905061033e565b6000828402905082848281151561032c57fe5b0414151561033957600080fd5b809150505b92915050565b600080828401905083811015151561035b57600080fd5b809150509291505056fea165627a7a72305820fd86562803b4638dfb834c9ddb05b53ea3e9bf0e061426ce23fc451b3837b74d0029",
  "source": "pragma solidity ^0.5.0;\r\n\r\nimport 'openzeppelin-solidity/contracts/math/SafeMath.sol';\r\n\r\ncontract DeciMath {\r\n  using SafeMath for uint;\r\n\r\n  uint constant QUINT = 10**18;\r\n\r\n  // 2 DP functions\r\n  function decMul2(uint x, uint y) public pure returns (uint decProduct) {\r\n    uint prod_xy = x.mul(y);\r\n    decProduct = prod_xy.add(100 / 2) / 100;\r\n  }\r\n  function decDiv2(uint x, uint y) public pure returns (uint decQuotient) {\r\n    uint prod_100x = x.mul(100);\r\n    decQuotient = prod_100x.add(y / 2) / y;\r\n  }\r\n\r\n  // 18 DP Functions\r\n  function decMul18(uint x, uint y) public pure returns (uint decProd) {\r\n    uint prod_xy = x.mul(y);\r\n    decProd = prod_xy.add(QUINT / 2) / QUINT;\r\n  }\r\n\r\n  function decDiv18(uint x, uint y) public pure returns (uint decQuotient) {\r\n    uint prod_xQuint = x.mul(QUINT);\r\n    decQuotient = prod_xQuint.add(y / 2) / y;\r\n  }\r\n}\r\n",
  "sourcePath": "C:/Users/Administrator/Desktop/Solidity/DeciMath/contracts/DeciMath.sol",
  "compiler": {
    "name": "solc",
    "version": "0.5.0+commit.1d4f565a.Emscripten.clang"
  },
  "schemaVersion": "3.0.2",
  "updatedAt": "2019-03-04T22:27:26.712Z",
  "devdoc": {
    "methods": {}
  },
  "userdoc": {
    "methods": {}
  }
}