{
  "contractName": "DeciMath",
  "abi": [
    {
      "constant": true,
      "inputs": [
        {
          "name": "",
          "type": "uint256"
        }
      ],
      "name": "powersOfTwo",
      "outputs": [
        {
          "name": "",
          "type": "uint256"
        }
      ],
      "payable": false,
      "stateMutability": "view",
      "type": "function",
      "signature": "0x26fd647a"
    },
    {
      "constant": true,
      "inputs": [
        {
          "name": "",
          "type": "uint256"
        }
      ],
      "name": "term_2_x",
      "outputs": [
        {
          "name": "",
          "type": "uint256"
        }
      ],
      "payable": false,
      "stateMutability": "view",
      "type": "function",
      "signature": "0x4084e8e8"
    },
    {
      "constant": true,
      "inputs": [
        {
          "name": "",
          "type": "uint256"
        }
      ],
      "name": "ith_term",
      "outputs": [
        {
          "name": "",
          "type": "uint256"
        }
      ],
      "payable": false,
      "stateMutability": "view",
      "type": "function",
      "signature": "0xbefc3839"
    },
    {
      "constant": true,
      "inputs": [
        {
          "name": "x",
          "type": "uint256"
        },
        {
          "name": "y",
          "type": "uint256"
        }
      ],
      "name": "decMul18",
      "outputs": [
        {
          "name": "decProd",
          "type": "uint256"
        }
      ],
      "payable": false,
      "stateMutability": "pure",
      "type": "function",
      "signature": "0xf7523c52"
    },
    {
      "constant": true,
      "inputs": [
        {
          "name": "x",
          "type": "uint256"
        },
        {
          "name": "y",
          "type": "uint256"
        }
      ],
      "name": "decMul30",
      "outputs": [
        {
          "name": "decProd",
          "type": "uint256"
        }
      ],
      "payable": false,
      "stateMutability": "pure",
      "type": "function",
      "signature": "0x58be7a89"
    },
    {
      "constant": true,
      "inputs": [
        {
          "name": "x",
          "type": "uint256"
        },
        {
          "name": "y",
          "type": "uint256"
        }
      ],
      "name": "decMul38",
      "outputs": [
        {
          "name": "decProd",
          "type": "uint256"
        }
      ],
      "payable": false,
      "stateMutability": "pure",
      "type": "function",
      "signature": "0x6172f467"
    },
    {
      "constant": true,
      "inputs": [
        {
          "name": "x",
          "type": "uint256"
        },
        {
          "name": "y",
          "type": "uint256"
        }
      ],
      "name": "decDiv18",
      "outputs": [
        {
          "name": "decQuotient",
          "type": "uint256"
        }
      ],
      "payable": false,
      "stateMutability": "pure",
      "type": "function",
      "signature": "0x64ce07d8"
    },
    {
      "constant": true,
      "inputs": [
        {
          "name": "x",
          "type": "uint256"
        }
      ],
      "name": "convertTo18DP",
      "outputs": [
        {
          "name": "y",
          "type": "uint256"
        }
      ],
      "payable": false,
      "stateMutability": "pure",
      "type": "function",
      "signature": "0x70577334"
    },
    {
      "constant": true,
      "inputs": [
        {
          "name": "x",
          "type": "uint256"
        }
      ],
      "name": "convert30To20DP",
      "outputs": [
        {
          "name": "y",
          "type": "uint256"
        }
      ],
      "payable": false,
      "stateMutability": "pure",
      "type": "function",
      "signature": "0x8d5dab35"
    },
    {
      "constant": true,
      "inputs": [
        {
          "name": "x",
          "type": "uint256"
        }
      ],
      "name": "floor",
      "outputs": [
        {
          "name": "num",
          "type": "uint256"
        }
      ],
      "payable": false,
      "stateMutability": "pure",
      "type": "function",
      "signature": "0x504f5e56"
    },
    {
      "constant": true,
      "inputs": [
        {
          "name": "num",
          "type": "uint256"
        }
      ],
      "name": "countDigits",
      "outputs": [
        {
          "name": "",
          "type": "uint256"
        }
      ],
      "payable": false,
      "stateMutability": "view",
      "type": "function",
      "signature": "0x9636c762"
    },
    {
      "constant": true,
      "inputs": [
        {
          "name": "x",
          "type": "uint256"
        },
        {
          "name": "n",
          "type": "uint256"
        }
      ],
      "name": "expBySquare",
      "outputs": [
        {
          "name": "",
          "type": "uint256"
        }
      ],
      "payable": false,
      "stateMutability": "pure",
      "type": "function",
      "signature": "0x045f48d2"
    },
    {
      "constant": true,
      "inputs": [
        {
          "name": "base",
          "type": "uint256"
        },
        {
          "name": "n",
          "type": "uint256"
        }
      ],
      "name": "expBySquare18",
      "outputs": [
        {
          "name": "",
          "type": "uint256"
        }
      ],
      "payable": false,
      "stateMutability": "pure",
      "type": "function",
      "signature": "0x5dceada5"
    },
    {
      "constant": true,
      "inputs": [
        {
          "name": "base",
          "type": "uint256"
        },
        {
          "name": "n",
          "type": "uint256"
        }
      ],
      "name": "expBySquare38",
      "outputs": [
        {
          "name": "",
          "type": "uint256"
        }
      ],
      "payable": false,
      "stateMutability": "pure",
      "type": "function",
      "signature": "0x2879bc96"
    },
    {
      "constant": true,
      "inputs": [
        {
          "name": "x",
          "type": "uint256"
        }
      ],
      "name": "exp",
      "outputs": [
        {
          "name": "num",
          "type": "uint256"
        }
      ],
      "payable": false,
      "stateMutability": "view",
      "type": "function",
      "signature": "0xb581fbe3"
    },
    {
      "constant": true,
      "inputs": [
        {
          "name": "n",
          "type": "uint256"
        }
      ],
      "name": "exp_taylor",
      "outputs": [
        {
          "name": "",
          "type": "uint256"
        }
      ],
      "payable": false,
      "stateMutability": "pure",
      "type": "function",
      "signature": "0x1ea97975"
    },
    {
      "constant": true,
      "inputs": [
        {
          "name": "x",
          "type": "uint256"
        },
        {
          "name": "accuracy",
          "type": "uint256"
        }
      ],
      "name": "log2",
      "outputs": [
        {
          "name": "",
          "type": "uint256"
        }
      ],
      "payable": false,
      "stateMutability": "view",
      "type": "function",
      "signature": "0x78b9a1f3"
    },
    {
      "constant": true,
      "inputs": [
        {
          "name": "x",
          "type": "uint256"
        }
      ],
      "name": "two_x",
      "outputs": [
        {
          "name": "",
          "type": "uint256"
        }
      ],
      "payable": false,
      "stateMutability": "view",
      "type": "function",
      "signature": "0xd8e9acc0"
    },
    {
      "constant": false,
      "inputs": [],
      "name": "setLUT1",
      "outputs": [],
      "payable": false,
      "stateMutability": "nonpayable",
      "type": "function",
      "signature": "0xe5ac5717"
    },
    {
      "constant": false,
      "inputs": [],
      "name": "setLUT2",
      "outputs": [],
      "payable": false,
      "stateMutability": "nonpayable",
      "type": "function",
      "signature": "0xa463a087"
    },
    {
      "constant": false,
      "inputs": [],
      "name": "setLUT3",
      "outputs": [],
      "payable": false,
      "stateMutability": "nonpayable",
      "type": "function",
      "signature": "0x889de906"
    }
  ],
  "bytecode": "0x608060405234801561001057600080fd5b506132a1806100206000396000f3fe60806040526004361061011d576000357c0100000000000000000000000000000000000000000000000000000000900463ffffffff168063045f48d2146101225780631ea979751461017b57806326fd647a146101ca5780632879bc96146102195780634084e8e814610272578063504f5e56146102c157806358be7a89146103105780635dceada5146103695780636172f467146103c257806364ce07d81461041b578063705773341461047457806378b9a1f3146104c3578063889de9061461051c5780638d5dab35146105335780639636c76214610582578063a463a087146105d1578063b581fbe3146105e8578063befc383914610637578063d8e9acc014610686578063e5ac5717146106d5578063f7523c52146106ec575b600080fd5b34801561012e57600080fd5b506101656004803603604081101561014557600080fd5b810190808035906020019092919080359060200190929190505050610745565b6040518082815260200191505060405180910390f35b34801561018757600080fd5b506101b46004803603602081101561019e57600080fd5b810190808035906020019092919050505061081c565b6040518082815260200191505060405180910390f35b3480156101d657600080fd5b50610203600480360360208110156101ed57600080fd5b8101908080359060200190929190505050610883565b6040518082815260200191505060405180910390f35b34801561022557600080fd5b5061025c6004803603604081101561023c57600080fd5b81019080803590602001909291908035906020019092919050505061089d565b6040518082815260200191505060405180910390f35b34801561027e57600080fd5b506102ab6004803603602081101561029557600080fd5b810190808035906020019092919050505061096e565b6040518082815260200191505060405180910390f35b3480156102cd57600080fd5b506102fa600480360360208110156102e457600080fd5b8101908080359060200190929190505050610988565b6040518082815260200191505060405180910390f35b34801561031c57600080fd5b506103536004803603604081101561033357600080fd5b8101908080359060200190929190803590602001909291905050506109ab565b6040518082815260200191505060405180910390f35b34801561037557600080fd5b506103ac6004803603604081101561038c57600080fd5b810190808035906020019092919080359060200190929190505050610a10565b6040518082815260200191505060405180910390f35b3480156103ce57600080fd5b50610405600480360360408110156103e557600080fd5b810190808035906020019092919080359060200190929190505050610ad1565b6040518082815260200191505060405180910390f35b34801561042757600080fd5b5061045e6004803603604081101561043e57600080fd5b810190808035906020019092919080359060200190929190505050610b3c565b6040518082815260200191505060405180910390f35b34801561048057600080fd5b506104ad6004803603602081101561049757600080fd5b8101908080359060200190929190505050610b8f565b6040518082815260200191505060405180910390f35b3480156104cf57600080fd5b50610506600480360360408110156104e657600080fd5b810190808035906020019092919080359060200190929190505050610c1e565b6040518082815260200191505060405180910390f35b34801561052857600080fd5b50610531610d86565b005b34801561053f57600080fd5b5061056c6004803603602081101561055657600080fd5b810190808035906020019092919050505061132c565b6040518082815260200191505060405180910390f35b34801561058e57600080fd5b506105bb600480360360208110156105a557600080fd5b81019080803590602001909291905050506113ab565b6040518082815260200191505060405180910390f35b3480156105dd57600080fd5b506105e66113e2565b005b3480156105f457600080fd5b506106216004803603602081101561060b57600080fd5b8101908080359060200190929190505050612070565b6040518082815260200191505060405180910390f35b34801561064357600080fd5b506106706004803603602081101561065a57600080fd5b810190808035906020019092919050505061211e565b6040518082815260200191505060405180910390f35b34801561069257600080fd5b506106bf600480360360208110156106a957600080fd5b8101908080359060200190929190505050612138565b6040518082815260200191505060405180910390f35b3480156106e157600080fd5b506106ea6122c7565b005b3480156106f857600080fd5b5061072f6004803603604081101561070f57600080fd5b810190808035906020019092919080359060200190929190505050613191565b6040518082815260200191505060405180910390f35b6000808214156107585760019050610816565b6000600190505b60018311156107ff57600060028481151561077657fe5b0614156107a65761079084856131ec90919063ffffffff16565b935060028381151561079e57fe5b0492506107fa565b60006002848115156107b457fe5b061415156107f9576107cf81856131ec90919063ffffffff16565b90506107e484856131ec90919063ffffffff16565b93506002600184038115156107f557fe5b0492505b5b61075f565b61081281856131ec90919063ffffffff16565b9150505b92915050565b600080600190506000670de0b6b3a764000090506000670de0b6b3a7640000905060008090505b8383111561087757670de0b6b3a76400008101905061086b6108658488613191565b82610b3c565b92508282019150610843565b81945050505050919050565b60648160648110151561089257fe5b016000915090505481565b6000808214156108bf576f4b3b4ca85a86c47a098a2240000000009050610968565b60006f4b3b4ca85a86c47a098a22400000000090505b600183111561095a5760006002848115156108ec57fe5b061415610913576108fd8485610ad1565b935060028381151561090b57fe5b049250610955565b600060028481151561092157fe5b06141515610954576109338482610ad1565b905061093f8485610ad1565b935060026001840381151561095057fe5b0492505b5b6108d5565b6109648482610ad1565b9150505b92915050565b60c88160278110151561097d57fe5b016000915090505481565b600068056bc75e2d631000008281151561099e57fe5b0682039050809050919050565b6000806109c183856131ec90919063ffffffff16565b90506c0c9f2c9cd04674edea400000006109fd60026c0c9f2c9cd04674edea400000008115156109ed57fe5b048361322a90919063ffffffff16565b811515610a0657fe5b0491505092915050565b600080821415610a2a57670de0b6b3a76400009050610acb565b6000670de0b6b3a764000090505b6001831115610abd576000600284811515610a4f57fe5b061415610a7657610a608485613191565b9350600283811515610a6e57fe5b049250610ab8565b6000600284811515610a8457fe5b06141515610ab757610a968482613191565b9050610aa28485613191565b9350600260018403811515610ab357fe5b0492505b5b610a38565b610ac78482613191565b9150505b92915050565b600080610ae783856131ec90919063ffffffff16565b90506f4b3b4ca85a86c47a098a224000000000610b2960026f4b3b4ca85a86c47a098a224000000000811515610b1957fe5b048361322a90919063ffffffff16565b811515610b3257fe5b0491505092915050565b600080610b5a670de0b6b3a7640000856131ec90919063ffffffff16565b905082610b7c600285811515610b6c57fe5b048361322a90919063ffffffff16565b811515610b8557fe5b0491505092915050565b600080678ac7230489e8000068056bc75e2d6310000084811515610baf57fe5b06811515610bb957fe5b0490506005811015610be857610be168056bc75e2d631000008461324b90919063ffffffff16565b9150610c15565b600581101515610c14576001610c1068056bc75e2d631000008561324b90919063ffffffff16565b0191505b5b81915050919050565b6000670de0b6b3a76400008310158015610c425750670de0b6b3a764000060020283105b1515610cdc576040517f08c379a00000000000000000000000000000000000000000000000000000000081526004018080602001828103825260228152602001807f696e7075742078206d7573742062652077697468696e2072616e6765205b312c81526020017f325b00000000000000000000000000000000000000000000000000000000000081525060400191505060405180910390fd5b600068056bc75e2d631000008402905060006f4b3b4ca85a86c47a098a224000000000905060008090506000600190505b8581111515610d7157610d30600082606481101515610d2857fe5b015485610ad1565b92506f4b3b4ca85a86c47a098a22400000000083101515610d6457829350606481606481101515610d5d57fe5b0154820191505b8080600101915050610d0d565b50610d7b81610b8f565b935050505092915050565b6f50a19b26283d0b34e82c419e778521b360c86000602781101515610da757fe5b01819055506f4bc1422ac6aec230a72fd844c9aea33160c86001602781101515610dcd57fe5b01819055506f4b48a7525f322bd41641432d1b296e5360c86002602781101515610df357fe5b01819055506f4b3ca26adc181e23c3f7c5dad355d41e60c86003602781101515610e1957fe5b01819055506f4b3b6ed5219f48be09db701ae9ef16d660c86004602781101515610e3f57fe5b01819055506f4b3b50133a89943d50fdc16ee0f2f73e60c86005602781101515610e6557fe5b01819055506f4b3b4cffd7520f6c63dac18be5cb197f60c86006602781101515610e8b57fe5b01819055506f4b3b4cb11a34adcb07707cfefb195abe60c86007602781101515610eb157fe5b01819055506f4b3b4ca93a7e8ef66a7f91d9c09f21a760c86008602781101515610ed757fe5b01819055506f4b3b4ca870ec58b98ed4c5fde7bd323260c86009602781101515610efd57fe5b01819055506f4b3b4ca85cc42019fcf7fc9916c7068760c8600a602781101515610f2357fe5b01819055506f4b3b4ca85ac01a706eadf372d36d133860c8600b602781101515610f4957fe5b01819055506f4b3b4ca85a8c8045e0741b9a7e66ef7060c8600c602781101515610f6f57fe5b01819055506f4b3b4ca85a8757419f07ee5d9d9096fe60c8600d602781101515610f9557fe5b01819055506f4b3b4ca85a86d327987d1d0fb611d99660c8600e602781101515610fbb57fe5b01819055506f4b3b4ca85a86c5f1cb08d4ee5ee0cb7f60c8600f602781101515610fe157fe5b01819055506f4b3b4ca85a86c49f9ce39a84a316264b60c8601060278110151561100757fe5b01819055506f4b3b4ca85a86c47dcb797b13a9e89c9660c8601160278110151561102d57fe5b01819055506f4b3b4ca85a86c47a69bbab21f7640fa660c8601260278110151561105357fe5b01819055506f4b3b4ca85a86c47a1328aff03256ce5d60c8601360278110151561107957fe5b01819055506f4b3b4ca85a86c47a0a80639e6b6f14a360c8601460278110151561109f57fe5b01819055506f4b3b4ca85a86c47a09a2c2630abe4edd60c860156027811015156110c557fe5b01819055506f4b3b4ca85a86c47a098c98a9e7796e4960c860166027811015156110eb57fe5b01819055506f4b3b4ca85a86c47a098a614a9725be3b60c8601760278110151561111157fe5b01819055506f4b3b4ca85a86c47a098a288ddbea2c9f60c8601860278110151561113757fe5b01819055506f4b3b4ca85a86c47a098a22e162ca9e1060c8601960278110151561115d57fe5b01819055506f4b3b4ca85a86c47a098a2250237aa96860c8601a60278110151561118357fe5b01819055506f4b3b4ca85a86c47a098a22419d25ddbe60c8601b6027811015156111a957fe5b01819055506f4b3b4ca85a86c47a098a22402950962d60c8601c6027811015156111cf57fe5b01819055506f4b3b4ca85a86c47a098a22400421a89e60c8601d6027811015156111f557fe5b01819055506f4b3b4ca85a86c47a098a22400069c41060c8601e60278110151561121b57fe5b01819055506f4b3b4ca85a86c47a098a2240000a939b60c8601f60278110151561124157fe5b01819055506f4b3b4ca85a86c47a098a224000010ec360c8602060278110151561126757fe5b01819055506f4b3b4ca85a86c47a098a224000001b1360c8602160278110151561128d57fe5b01819055506f4b3b4ca85a86c47a098a2240000002b560c860226027811015156112b357fe5b01819055506f4b3b4ca85a86c47a098a22400000004560c860236027811015156112d957fe5b01819055506f4b3b4ca85a86c47a098a22400000000760c860246027811015156112ff57fe5b01819055506f4b3b4ca85a86c47a098a22400000000160c8602560278110151561132557fe5b0181905550565b600080633b9aca006402540be4008481151561134457fe5b0681151561134e57fe5b0490506005811015611379576113726402540be4008461324b90919063ffffffff16565b91506113a2565b6005811015156113a157600161139d6402540be4008561324b90919063ffffffff16565b0191505b5b81915050919050565b600080600090505b6000831415156113d957600a838115156113c957fe5b04925080806001019150506113b3565b80915050919050565b6f96769950b50d88f413144480000000006064600060648110151561140357fe5b01819055506f259da6542d43623d04c51120000000006064600160648110151561142957fe5b01819055506f12ced32a16a1b11e82628890000000006064600260648110151561144f57fe5b01819055506f096769950b50d88f41314448000000006064600360648110151561147557fe5b01819055506f04b3b4ca85a86c47a098a224000000006064600460648110151561149b57fe5b01819055506f0259da6542d43623d04c511200000000606460056064811015156114c157fe5b01819055506f012ced32a16a1b11e826288900000000606460066064811015156114e757fe5b01819055506e96769950b50d88f4131444800000006064600760648110151561150c57fe5b01819055506e4b3b4ca85a86c47a098a22400000006064600860648110151561153157fe5b01819055506e259da6542d43623d04c511200000006064600960648110151561155657fe5b01819055506e12ced32a16a1b11e826288900000006064600a60648110151561157b57fe5b01819055506e096769950b50d88f413144480000006064600b6064811015156115a057fe5b01819055506e04b3b4ca85a86c47a098a2240000006064600c6064811015156115c557fe5b01819055506e0259da6542d43623d04c51120000006064600d6064811015156115ea57fe5b01819055506e012ced32a16a1b11e82628890000006064600e60648110151561160f57fe5b01819055506d96769950b50d88f41314448000006064600f60648110151561163357fe5b01819055506d4b3b4ca85a86c47a098a224000006064601060648110151561165757fe5b01819055506d259da6542d43623d04c5112000006064601160648110151561167b57fe5b01819055506d12ced32a16a1b11e8262889000006064601260648110151561169f57fe5b01819055506d096769950b50d88f413144480000606460136064811015156116c357fe5b01819055506d04b3b4ca85a86c47a098a2240000606460146064811015156116e757fe5b01819055506d0259da6542d43623d04c511200006064601560648110151561170b57fe5b01819055506d012ced32a16a1b11e826288900006064601660648110151561172f57fe5b01819055506c96769950b50d88f413144480006064601760648110151561175257fe5b01819055506c4b3b4ca85a86c47a098a2240006064601860648110151561177557fe5b01819055506c259da6542d43623d04c51120006064601960648110151561179857fe5b01819055506c12ced32a16a1b11e82628890006064601a6064811015156117bb57fe5b01819055506c096769950b50d88f41314448006064601b6064811015156117de57fe5b01819055506c04b3b4ca85a86c47a098a224006064601c60648110151561180157fe5b01819055506c0259da6542d43623d04c5112006064601d60648110151561182457fe5b01819055506c012ced32a16a1b11e8262889006064601e60648110151561184757fe5b01819055506b96769950b50d88f4131444806064601f60648110151561186957fe5b01819055506b4b3b4ca85a86c47a098a22406064602060648110151561188b57fe5b01819055506b259da6542d43623d04c51120606460216064811015156118ad57fe5b01819055506b12ced32a16a1b11e82628890606460226064811015156118cf57fe5b01819055506b096769950b50d88f41314448606460236064811015156118f157fe5b01819055506b04b3b4ca85a86c47a098a2246064602460648110151561191357fe5b01819055506b0259da6542d43623d04c51126064602560648110151561193557fe5b01819055506b012ced32a16a1b11e82628896064602660648110151561195757fe5b01819055506a96769950b50d88f41314446064602760648110151561197857fe5b01819055506a4b3b4ca85a86c47a098a226064602860648110151561199957fe5b01819055506a259da6542d43623d04c511606460296064811015156119ba57fe5b01819055506a12ced32a16a1b11e8262886064602a6064811015156119db57fe5b01819055506a096769950b50d88f4131446064602b6064811015156119fc57fe5b01819055506a04b3b4ca85a86c47a098a26064602c606481101515611a1d57fe5b01819055506a0259da6542d43623d04c516064602d606481101515611a3e57fe5b01819055506a012ced32a16a1b11e826286064602e606481101515611a5f57fe5b01819055506996769950b50d88f413146064602f606481101515611a7f57fe5b0181905550694b3b4ca85a86c47a098a60646030606481101515611a9f57fe5b018190555069259da6542d43623d04c560646031606481101515611abf57fe5b01819055506912ced32a16a1b11e826260646032606481101515611adf57fe5b018190555069096769950b50d88f413160646033606481101515611aff57fe5b01819055506904b3b4ca85a86c47a09860646034606481101515611b1f57fe5b0181905550690259da6542d43623d04c60646035606481101515611b3f57fe5b018190555069012ced32a16a1b11e82660646036606481101515611b5f57fe5b01819055506896769950b50d88f41360646037606481101515611b7e57fe5b0181905550684b3b4ca85a86c47a0960646038606481101515611b9d57fe5b018190555068259da6542d43623d0460646039606481101515611bbc57fe5b01819055506812ced32a16a1b11e826064603a606481101515611bdb57fe5b018190555068096769950b50d88f416064603b606481101515611bfa57fe5b01819055506804b3b4ca85a86c47a06064603c606481101515611c1957fe5b0181905550680259da6542d43623d06064603d606481101515611c3857fe5b018190555068012ced32a16a1b11e86064603e606481101515611c5757fe5b01819055506796769950b50d88f46064603f606481101515611c7557fe5b0181905550674b3b4ca85a86c47a60646040606481101515611c9357fe5b018190555067259da6542d43623d60646041606481101515611cb157fe5b01819055506712ced32a16a1b11e60646042606481101515611ccf57fe5b018190555067096769950b50d88f60646043606481101515611ced57fe5b01819055506704b3b4ca85a86c4760646044606481101515611d0b57fe5b0181905550670259da6542d4362360646045606481101515611d2957fe5b018190555067012ced32a16a1b1160646046606481101515611d4757fe5b01819055506696769950b50d8860646047606481101515611d6457fe5b0181905550664b3b4ca85a86c460646048606481101515611d8157fe5b018190555066259da6542d436260646049606481101515611d9e57fe5b01819055506612ced32a16a1b16064604a606481101515611dbb57fe5b018190555066096769950b50d86064604b606481101515611dd857fe5b01819055506604b3b4ca85a86c6064604c606481101515611df557fe5b0181905550660259da6542d4366064604d606481101515611e1257fe5b018190555066012ced32a16a1b6064604e606481101515611e2f57fe5b01819055506596769950b50d6064604f606481101515611e4b57fe5b0181905550654b3b4ca85a8660646050606481101515611e6757fe5b018190555065259da6542d4360646051606481101515611e8357fe5b01819055506512ced32a16a160646052606481101515611e9f57fe5b018190555065096769950b5060646053606481101515611ebb57fe5b01819055506504b3b4ca85a860646054606481101515611ed757fe5b0181905550650259da6542d460646055606481101515611ef357fe5b018190555065012ced32a16a60646056606481101515611f0f57fe5b01819055506496769950b560646057606481101515611f2a57fe5b0181905550644b3b4ca85a60646058606481101515611f4557fe5b018190555064259da6542d60646059606481101515611f6057fe5b01819055506412ced32a166064605a606481101515611f7b57fe5b018190555064096769950b6064605b606481101515611f9657fe5b01819055506404b3b4ca856064605c606481101515611fb157fe5b0181905550640259da65426064605d606481101515611fcc57fe5b018190555064012ced32a16064605e606481101515611fe757fe5b018190555063967699506064605f60648110151561200157fe5b0181905550634b3b4ca86064606060648110151561201b57fe5b018190555063259da6546064606160648110151561203557fe5b01819055506312ced32a6064606260648110151561204f57fe5b018190555063096769956064606360648110151561206957fe5b0181905550565b600061208a64e8d4a51000836131ec90919063ffffffff16565b91506120a36c1235995e1e4b3c4c2e092eb92a836109ab565b91506120ae8261132c565b9150600068056bc75e2d631000006120c584610988565b0390506000818403905060006120f760026120f268056bc75e2d631000008661324b90919063ffffffff16565b610745565b905061211461210583612138565b826131ec90919063ffffffff16565b9350505050919050565b60008160648110151561212d57fe5b016000915090505481565b600068056bc75e2d63100000821015801561215e575068056bc75e2d6310000060020282105b15156121f8576040517f08c379a00000000000000000000000000000000000000000000000000000000081526004018080602001828103825260228152602001807f696e7075742078206d7573742062652077697468696e2072616e6765205b312c81526020017f325b00000000000000000000000000000000000000000000000000000000000081525060400191505060405180910390fd5b6000670de0b6b3a76400008302905060006f4b3b4ca85a86c47a098a224000000000600202905060006f4b3b4ca85a86c47a098a2240000000008381151561223c57fe5b069050600061224a826113ab565b905060008090505b818110156122ba57600081600a0a60018301600a0a8581151561227157fe5b0681151561227b57fe5b049050600061229d60c88460250360278110151561229557fe5b01548361089d565b90506122a98682610ad1565b955050508080600101915050612252565b5082945050505050919050565b60008060006064811015156122d857fe5b01819055506f35326198caa4cf0398dd2df4a401fff7600060016064811015156122fe57fe5b01819055506f3f43136bbc1145a3d84ccd8fde8050606000600260648110151561232457fe5b01819055506f44fcdaff61cc4ceae78af7acfc2dcb336000600360648110151561234a57fe5b01819055506f480ac4b15dff81588c37988631acc6476000600460648110151561237057fe5b01819055506f499e9cc45b22529d4b6abaa6c727fa1e6000600560648110151561239657fe5b01819055506f4a6bd6a98878b7e749bca36139d8d438600060066064811015156123bc57fe5b01819055506f4ad349c2776ffca447fac2991089d496600060076064811015156123e257fe5b01819055506f4b07392f52b5c840e2f500a685315e0e6000600860648110151561240857fe5b01819055506f4b213e68c12287618b384447416493616000600960648110151561242e57fe5b01819055506f4b2e4467966940f3e15f711b485e0c4e6000600a60648110151561245457fe5b01819055506f4b34c83fb45aa7f02968d3f10c7bf1736000600b60648110151561247a57fe5b01819055506f4b380a61f5a1002253dd42289d3f4eae6000600c6064811015156124a057fe5b01819055506f4b39ab80a386e7ea4aa8befbc274a5996000600d6064811015156124c657fe5b01819055506f4b3a7c135de075ee193ece3e8ec0de136000600e6064811015156124ec57fe5b01819055506f4b3ae45d93e9a0ecb716a961237770f66000600f60648110151561251257fe5b01819055506f4b3b1882e525a71aafc82b1e629fd4f56000601060648110151561253857fe5b01819055506f4b3b32959b519153545560036c6f85ac6000601160648110151561255e57fe5b01819055506f4b3b3f9ef9cb0196d145667cf95b88926000601260648110151561258457fe5b01819055506f4b3b4623a9e098ae32898d7636882915600060136064811015156125aa57fe5b01819055506f4b3b496602219bfcc6e3c6e7270bab61600060146064811015156125d057fe5b01819055506f4b3b4b072e4fab95795f9efc3a14fb8c600060156064811015156125f657fe5b01819055506f4b3b4bd7c46a16de429d50fdc920a2e56000601660648110151561261c57fe5b01819055506f4b3b4c400f782561c5f99e6e8cc40d756000601760648110151561264257fe5b01819055506f4b3b4c7434ff62db4faed2a218e2ba6c6000601860648110151561266857fe5b01819055506f4b3b4c8e47c30f26069626269d2ce2976000601960648110151561268e57fe5b01819055506f4b3b4c9b5124e8aede8e5d050e398bb16000601a6064811015156126b457fe5b01819055506f4b3b4ca1d5d5d64c29abc793827320756000601b6064811015156126da57fe5b01819055506f4b3b4ca5182e4d510702d61d917cca2d6000601c60648110151561270057fe5b01819055506f4b3b4ca6b95a88e103a07462aefce70c6000601d60648110151561272657fe5b01819055506f4b3b4ca789f0a6ac656bc95b2f53ca656000601e60648110151561274c57fe5b01819055506f4b3b4ca7f23bb592ef30954fa967f1b76000601f60648110151561277257fe5b01819055506f4b3b4ca826613d066a4ac3a84c9c92d46000602060648110151561279857fe5b01819055506f4b3b4ca8407400c03565ccec42b792c8600060216064811015156127be57fe5b01819055506f4b3b4ca84d7d629d1e56ce1428440018600060226064811015156127e457fe5b01819055506f4b3b4ca85402138b93a82dc995d5ca476000602360648110151561280a57fe5b01819055506f4b3b4ca857446c02ce87156cab570f3e6000602460648110151561283057fe5b01819055506f4b3b4ca858e5983e6c0417304dc679166000602560648110151561285657fe5b01819055506f4b3b4ca859b62e5c3ac5fb8ea4e9f5c66000602660648110151561287c57fe5b01819055506f4b3b4ca85a1e796b2227c69cf1f6a8cc600060276064811015156128a257fe5b01819055506f4b3b4ca85a529ef295d8e25be0dbbfd7600060286064811015156128c857fe5b01819055506f4b3b4ca85a6cb1b64fb17dc94a65fac1600060296064811015156128ee57fe5b01819055506f4b3b4ca85a79bb182c9dcee37bb1041a6000602a60648110151561291457fe5b01819055506f4b3b4ca85a803fc91b13f849737803bf6000602b60648110151561293a57fe5b01819055506f4b3b4ca85a838221924f0d32a723e24d6000602c60648110151561296057fe5b01819055506f4b3b4ca85a85234dcdec97b4ceebe93e6000602d60648110151561298657fe5b01819055506f4b3b4ca85a85f3e3ebbb5cf9464c72a36000602e6064811015156129ac57fe5b01819055506f4b3b4ca85a865c2efaa2bf9c5adbd8d56000602f6064811015156129d257fe5b01819055506f4b3b4ca85a869054821670ee1b5b544b600060306064811015156129f857fe5b01819055506f4b3b4ca85a86aa6745d049970929041e60006031606481101515612a1e57fe5b01819055506f4b3b4ca85a86b770a7ad35eb8373588860006032606481101515612a4457fe5b01819055506f4b3b4ca85a86bdf5589bac15c17161e160006033606481101515612a6a57fe5b01819055506f4b3b4ca85a86c137b112e72ae0a69e5a60006034606481101515612a9057fe5b01819055506f4b3b4ca85a86c2d8dd4e84b5704eca8a60006035606481101515612ab657fe5b01819055506f4b3b4ca85a86c3a9736c537ab826441b60006036606481101515612adc57fe5b01819055506f4b3b4ca85a86c411be7b3add5c12d9c760006037606481101515612b0257fe5b01819055506f4b3b4ca85a86c445e402ae8eae095acf60006038606481101515612b2857fe5b01819055506f4b3b4ca85a86c45ff6c668675704a8e160006039606481101515612b4e57fe5b01819055506f4b3b4ca85a86c46d00284553ab8253506000603a606481101515612b7457fe5b01819055506f4b3b4ca85a86c47384d933c9d5c129636000603b606481101515612b9a57fe5b01819055506f4b3b4ca85a86c476c731ab04eae0949c6000603c606481101515612bc057fe5b01819055506f4b3b4ca85a86c478685de6a275704a456000603d606481101515612be657fe5b01819055506f4b3b4ca85a86c47938f404713ab825206000603e606481101515612c0c57fe5b01819055506f4b3b4ca85a86c479a13f13589d5c12956000603f606481101515612c3257fe5b01819055506f4b3b4ca85a86c479d5649acc4eae094a60006040606481101515612c5857fe5b01819055506f4b3b4ca85a86c479ef775e86275704aa60006041606481101515612c7e57fe5b01819055506f4b3b4ca85a86c479fc80c06313ab825a60006042606481101515612ca457fe5b01819055506f4b3b4ca85a86c47a0305715189d5c13260006043606481101515612cca57fe5b01819055506f4b3b4ca85a86c47a0647c9c8c4eae09e60006044606481101515612cf057fe5b01819055506f4b3b4ca85a86c47a07e8f6046275705460006045606481101515612d1657fe5b01819055506f4b3b4ca85a86c47a08b98c22313ab82a60006046606481101515612d3c57fe5b01819055506f4b3b4ca85a86c47a0921d731189d5c1a60006047606481101515612d6257fe5b01819055506f4b3b4ca85a86c47a0955fcb88c4eae1260006048606481101515612d8857fe5b01819055506f4b3b4ca85a86c47a09700f7c4627570e60006049606481101515612dae57fe5b01819055506f4b3b4ca85a86c47a097d18de2313ab8c6000604a606481101515612dd457fe5b01819055506f4b3b4ca85a86c47a09839d8f1189d5c66000604b606481101515612dfa57fe5b01819055506f4b3b4ca85a86c47a0986dfe788c4eae86000604c606481101515612e2057fe5b01819055506f4b3b4ca85a86c47a09888113c46275746000604d606481101515612e4657fe5b01819055506f4b3b4ca85a86c47a098951a9e2313aba6000604e606481101515612e6c57fe5b01819055506f4b3b4ca85a86c47a0989b9f4f1189d626000604f606481101515612e9257fe5b01819055506f4b3b4ca85a86c47a0989ee1a788c4eb660006050606481101515612eb857fe5b01819055506f4b3b4ca85a86c47a098a082d3c46276060006051606481101515612ede57fe5b01819055506f4b3b4ca85a86c47a098a15369e2313b060006052606481101515612f0457fe5b01819055506f4b3b4ca85a86c47a098a1bbb4f1189d860006053606481101515612f2a57fe5b01819055506f4b3b4ca85a86c47a098a1efda788c4ec60006054606481101515612f5057fe5b01819055506f4b3b4ca85a86c47a098a209ed3c4627660006055606481101515612f7657fe5b01819055506f4b3b4ca85a86c47a098a216f69e2314060006056606481101515612f9c57fe5b01819055506f4b3b4ca85a86c47a098a21d7b4f118a060006057606481101515612fc257fe5b01819055506f4b3b4ca85a86c47a098a220bda788c5060006058606481101515612fe857fe5b01819055506f4b3b4ca85a86c47a098a2225ed3c46286000605960648110151561300e57fe5b01819055506f4b3b4ca85a86c47a098a2232f69e23146000605a60648110151561303457fe5b01819055506f4b3b4ca85a86c47a098a22397b4f118a6000605b60648110151561305a57fe5b01819055506f4b3b4ca85a86c47a098a223cbda788ca6000605c60648110151561308057fe5b01819055506f4b3b4ca85a86c47a098a223e5ed3c46a6000605d6064811015156130a657fe5b01819055506f4b3b4ca85a86c47a098a223f2f69e23a6000605e6064811015156130cc57fe5b01819055506f4b3b4ca85a86c47a098a223f97b4f1226000605f6064811015156130f257fe5b01819055506f4b3b4ca85a86c47a098a223fcbda78966000606060648110151561311857fe5b01819055506f4b3b4ca85a86c47a098a223fe5ed3c506000606160648110151561313e57fe5b01819055506f4b3b4ca85a86c47a098a223ff2f69e286000606260648110151561316457fe5b01819055506f4b3b4ca85a86c47a098a223ff97b4f146000606360648110151561318a57fe5b0181905550565b6000806131a783856131ec90919063ffffffff16565b9050670de0b6b3a76400006131d96002670de0b6b3a76400008115156131c957fe5b048361322a90919063ffffffff16565b8115156131e257fe5b0491505092915050565b6000808314156131ff5760009050613224565b6000828402905082848281151561321257fe5b0414151561321f57600080fd5b809150505b92915050565b600080828401905083811015151561324157600080fd5b8091505092915050565b6000808211151561325b57600080fd5b6000828481151561326857fe5b049050809150509291505056fea165627a7a7230582001588f04b547432e101e65aae5d13c1a1ac06a57e11587687b9d2aab455fc5d90029",
  "source": "pragma solidity ^0.5.0;\r\n\r\nimport 'openzeppelin-solidity/contracts/math/SafeMath.sol';\r\ncontract DeciMath {\r\n  using SafeMath for uint;\r\n\r\n  uint constant QUINT = 10**18;\r\n  uint constant TEN38 = 10**38;\r\n  uint constant TEN30 = 10**30;\r\n  uint constant TEN20 = 10**20;\r\n  uint constant TEN19 = 10**19;\r\n  uint constant TEN17 = 10**17;\r\n  uint constant TEN12 = 10**12;\r\n  uint constant TEN10 = 10**10;\r\n  uint constant TEN9 = 10**9;\r\n\r\n  // Fixed-point 30DP representation of 1/ln(2) - used in exp(x)\r\n  uint constant ONE_OVER_LN2 = 1442695040888963407359924681002;\r\n\r\n  //Lookup table arrays for log2(x)\r\n  uint[100] public ith_term;\r\n  uint[100] public powersOfTwo;\r\n\r\n  // Lookup table for two_x(x)\r\n  uint[39] public term_2_x;\r\n\r\n  // 18 DP Functions\r\n  function decMul18(uint x, uint y) public pure returns (uint decProd) {\r\n    uint prod_xy = x.mul(y);\r\n    decProd = prod_xy.add(QUINT / 2) / QUINT;\r\n  }\r\n\r\n  function decMul30(uint x, uint y) public pure returns (uint decProd) {\r\n    uint prod_xy = x.mul(y);\r\n    decProd = prod_xy.add(TEN30 / 2) / TEN30;\r\n  }\r\n\r\n  function decMul38(uint x, uint y) public pure returns (uint decProd) {\r\n    uint prod_xy = x.mul(y);\r\n    decProd = prod_xy.add(TEN38 / 2) / TEN38;\r\n  }\r\n\r\n  function decDiv18(uint x, uint y) public pure returns (uint decQuotient) {\r\n    uint prod_xQuint = x.mul(QUINT);\r\n    decQuotient = prod_xQuint.add(y / 2) / y;\r\n  }\r\n\r\n  /****** HELPER FUNCTIONS ******/\r\n\r\n  // rounds a 38DP fixed-point to a 18DP fixed-point\r\n  function convertTo18DP(uint x) public pure returns ( uint y ) {\r\n    // Use modulus and floor division to grab the 20th digit from-the-right\r\n    uint digit = ( x % TEN20 ) / TEN19;\r\n\r\n    if ( digit < 5 ) {\r\n      // round down - chop off last 20 digits with floor div\r\n      y = x.div(TEN20);\r\n      } else if ( digit >= 5 ) {\r\n        // round up - chop off last 20 digits, and increment the 18th digit by one\r\n        y = x.div(TEN20) + 1;\r\n      }\r\n      return y;\r\n    }\r\n\r\n    // convert a 30DP fixed-point to a 20DP fixed-point\r\n    function convert30To20DP(uint x) public pure returns ( uint y ) {\r\n      uint digit = ( x % TEN10) / TEN9;\r\n\r\n      if ( digit < 5 ) {\r\n        y = x.div(TEN10);\r\n        } else if ( digit >= 5 ) {\r\n          y = x.div(TEN10) + 1;\r\n        }\r\n        return y;\r\n      }\r\n\r\n      // returns the floor of a fixed-point 20DP number - used in exp(x)\r\n      function floor(uint x) public pure returns (uint num) {\r\n        num = x - (x % TEN20);\r\n        return num;\r\n        }\r\n\r\n        function countDigits(uint num) public view returns (uint) {\r\n          uint digits = 0;\r\n          while (num != 0) {\r\n            num /= 10;  //  yields 0 and stops loop if num < 10, due to floor division\r\n            digits++;\r\n          }\r\n          return digits;\r\n        }\r\n\r\n\r\n    /* Exponentiation-by-Squaring functions.\r\n      Efficient algorithms - gas usage is O(log(n)) */\r\n\r\n    // Integer base, integer exponent\r\n    function expBySquare(uint x, uint n) public pure returns (uint) {\r\n      if (n == 0)\r\n      return 1;\r\n\r\n      uint y = 1;\r\n\r\n      while (n > 1)\r\n      if (n % 2 == 0) {\r\n        x = x.mul(x);\r\n        n = n / 2;\r\n        } else if (n % 2 != 0) {\r\n          y = x.mul(y);\r\n          x = x.mul(x);\r\n          n = (n - 1)/2;\r\n        }\r\n        return x.mul(y);\r\n      }\r\n\r\n        //Fixed-point 18DP base, integer exponent\r\n        function expBySquare18(uint base, uint n) public pure returns (uint) {\r\n          if (n == 0)\r\n          return QUINT;\r\n\r\n          uint y = QUINT;\r\n\r\n          while (n > 1)\r\n          if (n % 2 == 0) {\r\n            base = decMul18(base, base);\r\n            n = n / 2;\r\n            } else if (n % 2 != 0) {\r\n              y = decMul18(base, y);\r\n              base = decMul18(base, base);\r\n              n = (n - 1)/2;\r\n            }\r\n            return decMul18(base, y);\r\n          }\r\n\r\n          //Fixed-point 38DP base, positive integer exponent n\r\n          function expBySquare38(uint base, uint n) public pure returns (uint) {\r\n            if (n == 0)\r\n            return TEN38;\r\n\r\n            uint y = TEN38;\r\n\r\n            while (n > 1)\r\n            if (n % 2 == 0) {\r\n              base = decMul38(base, base);\r\n              n = n / 2;\r\n              } else if (n % 2 != 0) {\r\n                y = decMul38(base, y);\r\n                base = decMul38(base, base);\r\n                n = (n - 1)/2;\r\n              }\r\n              return decMul38(base, y);\r\n            }\r\n\r\n          /* EXP(x) - EFFICIENT GAS IMPLEMENTATION. Use identities:\r\n          A) e^x = 2^(x / ln(2))\r\n          and\r\n          B) 2^x = (2^r) * 2^(x - r); where r is floor(x) - 1. */\r\n          function exp(uint x) public view returns (uint num) {\r\n\r\n            x = x.mul(TEN12); //make x 30DP\r\n            x = decMul30( ONE_OVER_LN2, x);\r\n\r\n            x = convert30To20DP(x);\r\n\r\n            uint r = floor(x) - TEN20;\r\n            uint exponent = x - r; // yield an exponent in range [1,2[\r\n\r\n            uint coefficient =  expBySquare(2, r.div(TEN20)) ;\r\n\r\n            return coefficient.mul(two_x(exponent));\r\n          }\r\n\r\n          // exp(x) - Taylor series implementation (High gas cost)\r\n            function exp_taylor(uint n) public pure returns (uint) {\r\n              uint tolerance = 1;\r\n              uint term = QUINT;\r\n              uint sum = QUINT;\r\n              uint i = 0;\r\n\r\n              while (term > tolerance) { // stop computing terms when smallest term reaches 10^-18 in size\r\n                i += QUINT;\r\n                term = decDiv18( decMul18(term, n), i );\r\n                sum += term;\r\n              }\r\n              return sum;\r\n            }\r\n\r\n            // Base-2 logarithm function. Valid for x in range [1,2[\r\n            function log2(uint x, uint accuracy) public view returns (uint) {\r\n              require(x >= QUINT && x < 2 * QUINT, 'input x must be within range [1,2[');\r\n              uint prod = x * TEN20;\r\n              uint newProd = TEN38;\r\n              uint output = 0;\r\n\r\n              for (uint i = 1; i <= accuracy; i++) {\r\n                newProd = decMul38(ith_term[i], prod);\r\n\r\n                if (newProd >= TEN38) {\r\n                  prod = newProd;\r\n                  output += powersOfTwo[i];\r\n                }\r\n              }\r\n              return convertTo18DP(output);\r\n            }\r\n\r\n            // 2^x function, for x in range [1,2[\r\n            function two_x(uint x) public view returns (uint) {\r\n              require(x >= TEN20 && x < 2 * TEN20, 'input x must be within range [1,2[');\r\n              uint x_38dp = x * QUINT;\r\n              uint prod = 2 * TEN38;\r\n              uint fractPart = x_38dp % TEN38;\r\n              uint digitsLength = countDigits(fractPart);\r\n\r\n              // loop and multiply each digit of the mantissa by Lookup-table value\r\n              for (uint i = 0; i < digitsLength; i++) {\r\n                uint digit  = ( fractPart % (10 ** (i + 1))) / (10 ** i); // grab the ith digit from right\r\n\r\n                // computer i'th term and new product\r\n                uint term = expBySquare38(term_2_x[37 - i], digit);\r\n\r\n                prod = decMul38(prod, term);\r\n              }\r\n              return prod;\r\n            }\r\n\r\n            /// Lookup Tables (LUTs). 38 DP fixed-point numbers.\r\n\r\n            // LUT for the 'i'th term in the log2(x) algorithm. term[i] = 1/(2^(1/2^i))\r\n            function setLUT1() public {\r\n              ith_term[0] =0;\r\n              ith_term[1] =70710678118654752440084436210484903927;\r\n              ith_term[2] =84089641525371454303112547623321489504;\r\n              ith_term[3] =91700404320467123174354159479414442803;\r\n              ith_term[4] =95760328069857364693630563514791544391;\r\n              ith_term[5] =97857206208770013450916112581343574558;\r\n              ith_term[6] =98922801319397548412912495906558366776;\r\n              ith_term[7] =99459942348363317565247768622216631446;\r\n              ith_term[8] =99729605608547012625765991384792260110;\r\n              ith_term[9] =99864711289097017358812131808592040801;\r\n              ith_term[10] =99932332750265075236028365984373804110;\r\n              ith_term[11] =99966160649624368394219686876281565555;\r\n              ith_term[12] =99983078893192906311748078019767389870;\r\n              ith_term[13] =99991539088661349753372497156418872729;\r\n              ith_term[14] =99995769454843113254396753730099797523;\r\n              ith_term[15] =99997884705049192982650067113039327478;\r\n              ith_term[16] =99998942346931446424221059225315431669;\r\n              ith_term[17] =99999471172067428300770241277030532524;\r\n              ith_term[18] =99999735585684139498225234636504270994;\r\n              ith_term[19] =99999867792754675970531776759801063701;\r\n              ith_term[20] =99999933896355489526178052900624509793;\r\n              ith_term[21] =99999966948172282646511738368820575116;\r\n              ith_term[22] =99999983474084775793885880947314828005;\r\n              ith_term[23] =99999991737042046514572235133214264693;\r\n              ith_term[24] =99999995868520937911689915196095249004;\r\n              ith_term[25] =99999997934260447619445466250978583191;\r\n              ith_term[26] =99999998967130218475622805194415901617;\r\n              ith_term[27] =99999999483565107904286413727651274869;\r\n              ith_term[28] =99999999741782553618761958785587923501;\r\n              ith_term[29] =99999999870891276726035667265628464908;\r\n              ith_term[30] =99999999935445638342181505587572099685;\r\n              ith_term[31] =99999999967722819165881670780794171831;\r\n              ith_term[32] =99999999983861409581638564886938948308;\r\n              ith_term[33] =99999999991930704790493714817578668744;\r\n              ith_term[34] =99999999995965352395165465502313349144;\r\n              ith_term[35] =99999999997982676197562384774537267783;\r\n              ith_term[36] =99999999998991338098776105393113730878;\r\n              ith_term[37] =99999999999495669049386780948018133270;\r\n              ith_term[38] =99999999999747834524693072536874382790;\r\n              ith_term[39] =99999999999873917262346456784153520332;\r\n              ith_term[40] =99999999999936958631173208521005842391;\r\n              ith_term[41] =99999999999968479315586599292735191745;\r\n              ith_term[42] =99999999999984239657793298404425663514;\r\n              ith_term[43] =99999999999992119828896648891727348671;\r\n              ith_term[44] =99999999999996059914448324368242303565;\r\n              ith_term[45] =99999999999998029957224162164715809086;\r\n              ith_term[46] =99999999999999014978612081077506568867;\r\n              ith_term[47] =99999999999999507489306040537540450517;\r\n              ith_term[48] =99999999999999753744653020268467016779;\r\n              ith_term[49] =99999999999999876872326510134157706270;\r\n              ith_term[50] =99999999999999938436163255067059902600;\r\n              ith_term[51] =99999999999999969218081627533525213665;\r\n              ith_term[52] =99999999999999984609040813766761422426;\r\n              ith_term[53] =99999999999999992304520406883380415114;\r\n              ith_term[54] =99999999999999996152260203441690133531;\r\n              ith_term[55] =99999999999999998076130101720845048263;\r\n              ith_term[56] =99999999999999999038065050860422519503;\r\n              ith_term[57] =99999999999999999519032525430211258593;\r\n              ith_term[58] =99999999999999999759516262715105629008;\r\n              ith_term[59] =99999999999999999879758131357552814435;\r\n              ith_term[60] =99999999999999999939879065678776407196;\r\n              ith_term[61] =99999999999999999969939532839388203589;\r\n              ith_term[62] =99999999999999999984969766419694101792;\r\n              ith_term[63] =99999999999999999992484883209847050901;\r\n              ith_term[64] =99999999999999999996242441604923525450;\r\n              ith_term[65] =99999999999999999998121220802461762730;\r\n              ith_term[66] =99999999999999999999060610401230881370;\r\n              ith_term[67] =99999999999999999999530305200615440690;\r\n              ith_term[68] =99999999999999999999765152600307720350;\r\n              ith_term[69] =99999999999999999999882576300153860180;\r\n              ith_term[70] =99999999999999999999941288150076930090;\r\n              ith_term[71] =99999999999999999999970644075038465050;\r\n              ith_term[72] =99999999999999999999985322037519232530;\r\n              ith_term[73] =99999999999999999999992661018759616270;\r\n              ith_term[74] =99999999999999999999996330509379808140;\r\n              ith_term[75] =99999999999999999999998165254689904070;\r\n              ith_term[76] =99999999999999999999999082627344952040;\r\n              ith_term[77] =99999999999999999999999541313672476020;\r\n              ith_term[78] =99999999999999999999999770656836238010;\r\n              ith_term[79] =99999999999999999999999885328418119010;\r\n              ith_term[80] =99999999999999999999999942664209059510;\r\n              ith_term[81] =99999999999999999999999971332104529760;\r\n              ith_term[82] =99999999999999999999999985666052264880;\r\n              ith_term[83] =99999999999999999999999992833026132440;\r\n              ith_term[84] =99999999999999999999999996416513066220;\r\n              ith_term[85] =99999999999999999999999998208256533110;\r\n              ith_term[86] =99999999999999999999999999104128266560;\r\n              ith_term[87] =99999999999999999999999999552064133280;\r\n              ith_term[88] =99999999999999999999999999776032066640;\r\n              ith_term[89] =99999999999999999999999999888016033320;\r\n              ith_term[90] =99999999999999999999999999944008016660;\r\n              ith_term[91] =99999999999999999999999999972004008330;\r\n              ith_term[92] =99999999999999999999999999986002004170;\r\n              ith_term[93] =99999999999999999999999999993001002090;\r\n              ith_term[94] =99999999999999999999999999996500501050;\r\n              ith_term[95] =99999999999999999999999999998250250530;\r\n              ith_term[96] =99999999999999999999999999999125125270;\r\n              ith_term[97] =99999999999999999999999999999562562640;\r\n              ith_term[98] =99999999999999999999999999999781281320;\r\n              ith_term[99] =99999999999999999999999999999890640660;\r\n            }\r\n\r\n            //LUT for 2^((1/i)) - used in log2(x)\r\n            function setLUT2() public {\r\n              powersOfTwo[0] = 200000000000000000000000000000000000000;\r\n              powersOfTwo[1] = 50000000000000000000000000000000000000;\r\n              powersOfTwo[2] = 25000000000000000000000000000000000000;\r\n              powersOfTwo[3] = 12500000000000000000000000000000000000;\r\n              powersOfTwo[4] = 6250000000000000000000000000000000000;\r\n              powersOfTwo[5] = 3125000000000000000000000000000000000;\r\n              powersOfTwo[6] = 1562500000000000000000000000000000000;\r\n              powersOfTwo[7] = 781250000000000000000000000000000000;\r\n              powersOfTwo[8] = 390625000000000000000000000000000000;\r\n              powersOfTwo[9] = 195312500000000000000000000000000000;\r\n              powersOfTwo[10] = 97656250000000000000000000000000000;\r\n              powersOfTwo[11] = 48828125000000000000000000000000000;\r\n              powersOfTwo[12] = 24414062500000000000000000000000000;\r\n              powersOfTwo[13] = 12207031250000000000000000000000000;\r\n              powersOfTwo[14] = 6103515625000000000000000000000000;\r\n              powersOfTwo[15] = 3051757812500000000000000000000000;\r\n              powersOfTwo[16] = 1525878906250000000000000000000000;\r\n              powersOfTwo[17] = 762939453125000000000000000000000;\r\n              powersOfTwo[18] = 381469726562500000000000000000000;\r\n              powersOfTwo[19] = 190734863281250000000000000000000;\r\n              powersOfTwo[20] = 95367431640625000000000000000000;\r\n              powersOfTwo[21] = 47683715820312500000000000000000;\r\n              powersOfTwo[22] = 23841857910156250000000000000000;\r\n              powersOfTwo[23] = 11920928955078125000000000000000;\r\n              powersOfTwo[24] = 5960464477539062500000000000000;\r\n              powersOfTwo[25] = 2980232238769531250000000000000;\r\n              powersOfTwo[26] = 1490116119384765625000000000000;\r\n              powersOfTwo[27] = 745058059692382812500000000000;\r\n              powersOfTwo[28] = 372529029846191406250000000000;\r\n              powersOfTwo[29] = 186264514923095703125000000000;\r\n              powersOfTwo[30] = 93132257461547851562500000000;\r\n              powersOfTwo[31] = 46566128730773925781250000000;\r\n              powersOfTwo[32] = 23283064365386962890625000000;\r\n              powersOfTwo[33] = 11641532182693481445312500000;\r\n              powersOfTwo[34] = 5820766091346740722656250000;\r\n              powersOfTwo[35] = 2910383045673370361328125000;\r\n              powersOfTwo[36] = 1455191522836685180664062500;\r\n              powersOfTwo[37] = 727595761418342590332031250;\r\n              powersOfTwo[38] = 363797880709171295166015625;\r\n              powersOfTwo[39] = 181898940354585647583007812;\r\n              powersOfTwo[40] = 90949470177292823791503906;\r\n              powersOfTwo[41] = 45474735088646411895751953;\r\n              powersOfTwo[42] = 22737367544323205947875976;\r\n              powersOfTwo[43] = 11368683772161602973937988;\r\n              powersOfTwo[44] = 5684341886080801486968994;\r\n              powersOfTwo[45] = 2842170943040400743484497;\r\n              powersOfTwo[46] = 1421085471520200371742248;\r\n              powersOfTwo[47] = 710542735760100185871124;\r\n              powersOfTwo[48] = 355271367880050092935562;\r\n              powersOfTwo[49] = 177635683940025046467781;\r\n              powersOfTwo[50] = 88817841970012523233890;\r\n              powersOfTwo[51] = 44408920985006261616945;\r\n              powersOfTwo[52] = 22204460492503130808472;\r\n              powersOfTwo[53] = 11102230246251565404236;\r\n              powersOfTwo[54] = 5551115123125782702118;\r\n              powersOfTwo[55] = 2775557561562891351059;\r\n              powersOfTwo[56] = 1387778780781445675529;\r\n              powersOfTwo[57] = 693889390390722837764;\r\n              powersOfTwo[58] = 346944695195361418882;\r\n              powersOfTwo[59] = 173472347597680709441;\r\n              powersOfTwo[60] = 86736173798840354720;\r\n              powersOfTwo[61] = 43368086899420177360;\r\n              powersOfTwo[62] = 21684043449710088680;\r\n              powersOfTwo[63] = 10842021724855044340;\r\n              powersOfTwo[64] = 5421010862427522170;\r\n              powersOfTwo[65] = 2710505431213761085;\r\n              powersOfTwo[66] = 1355252715606880542;\r\n              powersOfTwo[67] = 677626357803440271;\r\n              powersOfTwo[68] = 338813178901720135;\r\n              powersOfTwo[69] = 169406589450860067;\r\n              powersOfTwo[70] = 84703294725430033;\r\n              powersOfTwo[71] = 42351647362715016;\r\n              powersOfTwo[72] = 21175823681357508;\r\n              powersOfTwo[73] = 10587911840678754;\r\n              powersOfTwo[74] = 5293955920339377;\r\n              powersOfTwo[75] = 2646977960169688;\r\n              powersOfTwo[76] = 1323488980084844;\r\n              powersOfTwo[77] = 661744490042422;\r\n              powersOfTwo[78] = 330872245021211;\r\n              powersOfTwo[79] = 165436122510605;\r\n              powersOfTwo[80] = 82718061255302;\r\n              powersOfTwo[81] = 41359030627651;\r\n              powersOfTwo[82] = 20679515313825;\r\n              powersOfTwo[83] = 10339757656912;\r\n              powersOfTwo[84] = 5169878828456;\r\n              powersOfTwo[85] = 2584939414228;\r\n              powersOfTwo[86] = 1292469707114;\r\n              powersOfTwo[87] = 646234853557;\r\n              powersOfTwo[88] = 323117426778;\r\n              powersOfTwo[89] = 161558713389;\r\n              powersOfTwo[90] = 80779356694;\r\n              powersOfTwo[91] = 40389678347;\r\n              powersOfTwo[92] = 20194839173;\r\n              powersOfTwo[93] = 10097419586;\r\n              powersOfTwo[94] = 5048709793;\r\n              powersOfTwo[95] = 2524354896;\r\n              powersOfTwo[96] = 1262177448;\r\n              powersOfTwo[97] = 631088724;\r\n              powersOfTwo[98] = 315544362;\r\n              powersOfTwo[99] = 157772181;\r\n            }\r\n\r\n            // LUT for two_x(x).  The i'th term is 2^(1 / 10^(i + 1)).\r\n            function setLUT3() public {\r\n              term_2_x[0] = 107177346253629316421300632502334202291;\r\n              term_2_x[1] = 100695555005671880883269821411323978545;\r\n              term_2_x[2] = 100069338746258063253756863930385919571;\r\n              term_2_x[3] = 100006931712037656919243991260264256542;\r\n              term_2_x[4] = 100000693149582830565320908980056168150;\r\n              term_2_x[5] = 100000069314742078650777263622740703038;\r\n              term_2_x[6] = 100000006931472045825965603683996211583;\r\n              term_2_x[7] = 100000000693147182962210384558650120894;\r\n              term_2_x[8] = 100000000069314718080017181643183694247;\r\n              term_2_x[9] = 100000000006931471805839679601136972338;\r\n              term_2_x[10] = 100000000000693147180562347574486828679;\r\n              term_2_x[11] = 100000000000069314718056018553592419128;\r\n              term_2_x[12] = 100000000000006931471805599693320679280;\r\n              term_2_x[13] = 100000000000000693147180559947711682302;\r\n              term_2_x[14] = 100000000000000069314718055994554964374;\r\n              term_2_x[15] = 100000000000000006931471805599453334399;\r\n              term_2_x[16] = 100000000000000000693147180559945311819;\r\n              term_2_x[17] = 100000000000000000069314718055994530966;\r\n              term_2_x[18] = 100000000000000000006931471805599453094;\r\n              term_2_x[19] = 100000000000000000000693147180559945309;\r\n              term_2_x[20] = 100000000000000000000069314718055994531;\r\n              term_2_x[21] = 100000000000000000000006931471805599453;\r\n              term_2_x[22] = 100000000000000000000000693147180559945;\r\n              term_2_x[23] = 100000000000000000000000069314718055995;\r\n              term_2_x[24] = 100000000000000000000000006931471805599;\r\n              term_2_x[25] = 100000000000000000000000000693147180560;\r\n              term_2_x[26] = 100000000000000000000000000069314718056;\r\n              term_2_x[27] = 100000000000000000000000000006931471806;\r\n              term_2_x[28] = 100000000000000000000000000000693147181;\r\n              term_2_x[29] = 100000000000000000000000000000069314718;\r\n              term_2_x[30] = 100000000000000000000000000000006931472;\r\n              term_2_x[31] = 100000000000000000000000000000000693147;\r\n              term_2_x[32] = 100000000000000000000000000000000069315;\r\n              term_2_x[33] = 100000000000000000000000000000000006931;\r\n              term_2_x[34] = 100000000000000000000000000000000000693;\r\n              term_2_x[35] = 100000000000000000000000000000000000069;\r\n              term_2_x[36] = 100000000000000000000000000000000000007;\r\n              term_2_x[37] = 100000000000000000000000000000000000001;\r\n            }\r\n          }\r\n",
  "sourcePath": "C:\\Users\\Administrator\\Desktop\\Solidity\\DeciMath\\contracts\\DeciMath.sol",
  "compiler": {
    "name": "solc",
    "version": "0.5.0+commit.1d4f565a.Emscripten.clang"
  },
  "schemaVersion": "3.0.6",
  "updatedAt": "2019-04-05T10:05:32.011Z",
  "devdoc": {
    "methods": {}
  },
  "userdoc": {
    "methods": {
      "convertTo18DP(uint256)": {
        "notice": "**** HELPER FUNCTIONS *****"
      },
      "setLUT1()": {
        "notice": "Lookup Tables (LUTs). 38 DP fixed-point numbers."
      }
    }
  }
}